:020000040800F2
:1000000000500020BD1500084D1300084F130008D4
:100010005113000853130008551300080000000096
:10002000000000000000000000000000412D00085A
:100030005713000800000000E12D0008252E0008DD
:100040000516000805160008051600080516000824
:100050000516000805160008051600080516000814
:100060000516000805160008051600080516000804
:1000700005160008051600080516000805160008F4
:1000800005160008051600080516000805160008E4
:100090000516000805160008051600085913000883
:1000A00005160008051600080516000805160008C4
:1000B0000516000805160008751300080516000847
:1000C00005160008051600080516000805160008A4
:1000D000051600088513000895130008A5130008ED
:1000E00005160008051600080516000800000000A7
:1000F0000000000000000000000000000000000000
:0C01000000000000000000005FF808F1A3
:1001100010B5054C237833B9044B13B10448AFF341
:1001200000800123237010BD4C040020000000005B
:10013000946E000808B5034B1BB103490348AFF3A5
:10014000008008BD0000000050040020946E0008EC
:1001500081F0004102E000BF83F0004330B54FEA78
:1001600041044FEA430594EA050F08BF90EA020FE5
:100170001FBF54EA000C55EA020C7FEA645C7FEA78
:10018000655C00F0E2804FEA5454D4EB5555B8BF9B
:100190006D420CDD2C4480EA020281EA030382EA0C
:1001A000000083EA010180EA020281EA0303362D9E
:1001B00088BF30BD11F0004F4FEA01314FF4801C71
:1001C0004CEA113102D0404261EB410113F0004F83
:1001D0004FEA03334CEA133302D0524263EB43033A
:1001E00094EA050F00F0A780A4F10104D5F1200ED8
:1001F0000DDB02FA0EFC22FA05F2801841F1000133
:1002000003FA0EF2801843FA05F359410EE0A5F106
:1002100020050EF1200E012A03FA0EFC28BF4CF037
:10022000020C43FA05F3C01851EBE37101F00045ED
:1002300007D54FF0000EDCF1000C7EEB00006EEBFA
:100240000101B1F5801F1BD3B1F5001F0CD3490884
:100250005FEA30004FEA3C0C04F101044FEA4452DB
:1002600012F5800F80F09A80BCF1004F08BF5FEA62
:10027000500C50F1000041EB045141EA050130BD42
:100280005FEA4C0C404141EB0101013C28BFB1F554
:10029000801FE9D291F0000F04BF01460020B1FA9F
:1002A00081F308BF2033A3F10B03B3F120020CDA72
:1002B0000C3208DD02F1140CC2F10C0201FA0CF050
:1002C00021FA02F10CE002F11402D8BFC2F1200CB5
:1002D00001FA02F120FA0CFCDCBF41EA0C0190406B
:1002E000E41AA2BF01EB0451294330BD6FEA0404B4
:1002F0001F3C1CDA0C340EDC04F11404C4F120029F
:1003000020FA04F001FA02F340EA030021FA04F3B0
:1003100045EA030130BDC4F10C04C4F1200220FA07
:1003200002F001FA04F340EA0300294630BD21FA45
:1003300004F0294630BD94F0000F83F4801306BF0B
:1003400081F480110134013D4EE77FEA645C18BFFF
:100350007FEA655C29D094EA050F08BF90EA020F96
:1003600005D054EA000C04BF1946104630BD91EA8E
:10037000030F1EBF0021002030BD5FEA545C05D191
:100380004000494128BF41F0004130BD14F58004D0
:100390003CBF01F5801130BD01F0004545F0FE4144
:1003A00041F470014FF0000030BD7FEA645C1ABF79
:1003B000194610467FEA655C1CBF0B46024650EAB0
:1003C000013406BF52EA033591EA030F41F40021DC
:1003D00030BD00BF90F0000F04BF0021704730B562
:1003E0004FF4806404F132044FF000054FF0000137
:1003F00050E700BF90F0000F04BF0021704730B5F8
:100400004FF4806404F1320410F0004548BF4042CC
:100410004FF000013EE700BF42004FEAE2014FEA21
:1004200031014FEA02701FBF12F07F4393F07F4FFC
:1004300081F06051704732F07F4208BF704793F0FF
:100440007F4F04BF41F40021704730B54FF4607412
:1004500001F0004521F000411CE700BF50EA010215
:1004600008BF704730B54FF000050AE050EA0102BE
:1004700008BF704730B511F0004502D5404261EB2E
:1004800041014FF4806404F132045FEA915C3FF46F
:10049000D8AE4FF003025FEADC0C18BF03325FEA0C
:1004A000DC0C18BF033202EBDC02C2F1200300FABD
:1004B00003FC20FA02F001FA03FE40EA0E0021FAE2
:1004C00002F11444BDE600BF70B54FF0FF0C4CF4D0
:1004D000E06C1CEA11541DBF1CEA135594EA0C0F82
:1004E00095EA0C0F00F0DEF82C4481EA030621EABD
:1004F0004C5123EA4C5350EA013518BF52EA0335F8
:1005000041F4801143F4801338D0A0FB02CE4FF0A9
:100510000005E1FB02E506F00042E0FB03E54FF0D9
:100520000006E1FB03569CF0000F18BF4EF0010ED1
:10053000A4F1FF04B6F5007F64F5407404D25FEACD
:100540004E0E6D4146EB060642EAC62141EA555180
:100550004FEAC52040EA5E504FEACE2EB4F1FD0CC2
:1005600088BFBCF5E06F1ED8BEF1004F08BF5FEA40
:10057000500E50F1000041EB045170BD06F00046F2
:1005800046EA010140EA020081EA0301B4EB5C049F
:10059000C2BFD4EB0C0541EA045170BD41F4801197
:1005A0004FF0000E013C00F3AB8014F1360FDEBFBC
:1005B000002001F0004170BDC4F10004203C35DA98
:1005C0000C341BDC04F11404C4F1200500FA05F31B
:1005D00020FA04F001FA05F240EA020001F00042BC
:1005E00021F0004110EBD37021FA04F642EB060132
:1005F0005EEA430E08BF20EAD37070BDC4F10C045C
:10060000C4F1200500FA04F320FA05F001FA04F21F
:1006100040EA020001F0004110EBD37041F100010B
:100620005EEA430E08BF20EAD37070BDC4F1200516
:1006300000FA05F24EEA020E20FA04F301FA05F27E
:1006400043EA020321FA04F001F0004121FA04F226
:1006500020EA020000EBD3705EEA430E08BF20EAF6
:10066000D37070BD94F0000F0FD101F00046400030
:1006700041EB010111F4801F08BF013CF7D041EAB2
:10068000060195F0000F18BF704703F000465200B6
:1006900043EB030313F4801F08BF013DF7D043EA87
:1006A0000603704794EA0C0F0CEA135518BF95EA3D
:1006B0000C0F0CD050EA410618BF52EA4306D1D1C4
:1006C00081EA030101F000414FF0000070BD50EAE3
:1006D000410606BF1046194652EA430619D094EA6D
:1006E0000C0F02D150EA013613D195EA0C0F05D157
:1006F00052EA03361CBF104619460AD181EA0301AB
:1007000001F0004141F0FE4141F470014FF0000062
:1007100070BD41F0FE4141F4780170BD70B54FF0FD
:10072000FF0C4CF4E06C1CEA11541DBF1CEA13557D
:1007300094EA0C0F95EA0C0F00F0A7F8A4EB05045F
:1007400081EA030E52EA03354FEA013100F0888056
:100750004FEA03334FF0805545EA131343EA12631F
:100760004FEA022245EA111545EA10654FEA0026D4
:100770000EF000419D4208BF964244F1FD0404F58D
:10078000407402D25B084FEA3202B61A65EB0305E9
:100790005B084FEA32024FF480104FF4002CB6EBA6
:1007A000020E75EB030E22BFB61A754640EA0C0026
:1007B0005B084FEA3202B6EB020E75EB030E22BF66
:1007C000B61A754640EA5C005B084FEA3202B6EBA7
:1007D000020E75EB030E22BFB61A754640EA9C0066
:1007E0005B084FEA3202B6EB020E75EB030E22BF36
:1007F000B61A754640EADC0055EA060E18D04FEAF4
:10080000051545EA16754FEA06164FEAC30343EA93
:1008100052734FEAC2025FEA1C1CC0D111F4801F60
:100820000BD141EA00014FF000004FF0004CB6E759
:1008300011F4801F04BF01430020B4F1FD0C88BFF8
:10084000BCF5E06F3FF6AFAEB5EB030C04BFB6EB03
:10085000020C5FEA500C50F1000041EB045170BDF6
:100860000EF0004E4EEA113114EB5C04C2BFD4EB23
:100870000C0541EA045170BD41F480114FF0000EA7
:10088000013C90E645EA060E8DE60CEA135594EA23
:100890000C0F08BF95EA0C0F3FF43BAF94EA0C0F26
:1008A0000AD150EA01347FF434AF95EA0C0F7FF49B
:1008B00025AF104619462CE795EA0C0F06D152EAEF
:1008C00003353FF4FDAE1046194622E750EA4106D3
:1008D00018BF52EA43067FF4C5AE50EA41047FF4E4
:1008E0000DAF52EA43057FF4EBAE12E74FF0FF3C49
:1008F00006E000BF4FF0010C02E000BF4FF0010C1A
:100900004DF804CD4FEA410C7FEA6C5C4FEA430C92
:1009100018BF7FEA6C5C1BD001B050EA410C0CBFE1
:1009200052EA430C91EA030F02BF90EA020F002043
:10093000704710F1000F91EA030F58BF994208BFAA
:1009400090422CBFD8176FEAE37040F00100704767
:100950004FEA410C7FEA6C5C02D150EA013C07D1BE
:100960004FEA430C7FEA6C5CD6D152EA033CD3D009
:100970005DF8040B704700BF8446104662468C4603
:100980001946634600E000BF01B5FFF7B7FF002836
:1009900048BF10F1000F01BD4DF808EDFFF7F4FF5F
:1009A0000CBF012000205DF808FB00BF4DF808EDEA
:1009B000FFF7EAFF34BF012000205DF808FB00BF0D
:1009C0004DF808EDFFF7E0FF94BF012000205DF82F
:1009D00008FB00BF4DF808EDFFF7CEFF94BF0120E4
:1009E00000205DF808FB00BF4DF808EDFFF7C4FFDD
:1009F00034BF012000205DF808FB00BF4FEA410230
:100A000012F5001215D211D56FF47873B3EB625260
:100A100012D94FEAC12343F0004343EA505311F087
:100A2000004F23FA02F018BF404270474FF0000019
:100A3000704750EA013005D111F0004008BF6FF057
:100A4000004070474FF00000704700BF844641EA05
:100A5000000313F0030349D1403A23D30B6803602A
:100A60004B6843608B688360CB68C3600B6903612C
:100A70004B6943618B698361CB69C3610B6A036214
:100A80004B6A43628B6A8362CB6AC3620B6B0363FC
:100A90004B6B43638B6B8363CB6BC36340304031E1
:100AA000403ADBD230320BD30B6803604B684360B3
:100AB0008B688360CB68C36010301031103AF3D27A
:100AC0000C3205D351F8043B40F8043B043AF9D208
:100AD000043208D0D2071CBF11F8013B00F8013BDB
:100AE00001D30B8803806046704700BF082A13D3E8
:100AF0008B07B1D010F00303AED0C3F10403D21AB8
:100B0000DB071CBF11F8013B00F8013BA4D331F80F
:100B1000023B20F8023B9FE7043AD9D3013A11F88F
:100B2000013B00F8013BF9D20B7803704B7843701E
:100B30008B788370604670474FEA410C7FEA6C5CAB
:100B400002D150EA013C0AD14FEA430C7FEA6C5CC7
:100B500002D152EA033C02D14FF0000070474FF03F
:100B60000100704708B5012002F028F8FBE70000FB
:100B700010B5074C01224021204600F05EFF6420A2
:100B800002F01CF800224021204600F056FF10BD64
:100B9000000C014008B5074A0021074801F098FF02
:100BA000064B1860064A0021064801F091FF064BEB
:100BB000186008BDDC6E0008650B000868040020A2
:100BC000006F0008B10D00086C0400200000000058
:100BD00070B58AB00024724D2DE002AE0022714B38
:100BE000CDE9002322462B46304600F065FA04ABDF
:100BF00093E803008DE8030096E80C0006A800F0D7
:100C0000A3FADDE90601FFF7F9FE674B1860DDE99D
:100C10000801FFF7F3FE654B186000F031FA1E2063
:100C200001F0CCFF5CA3D3E9002320462946FFF75F
:100C300095FA04460D4600225A4B20462946FFF7F6
:100C4000BFFE0028C9D10024564D2BE002AECDE9ED
:100C500000450022534B304600F02EFA04AB93E8D7
:100C600003008DE8030096E80C0006A800F06CFA7B
:100C7000DDE90601FFF7C2FE4B4B1860DDE9080114
:100C8000FFF7BCFE494B186000F0FAF91E2001F096
:100C900095FF41A3D3E9002320462946FFF75CFADC
:100CA00004460D4600223E4B20462946FFF792FEA1
:100CB0000028CBD100243B4D2DE002AE0022384B62
:100CC000CDE9002322462B46304600F0F5F904AB6F
:100CD00093E803008DE8030096E80C0006A800F0F6
:100CE00033FADDE90601FFF789FE2F4B1860DDE9D5
:100CF0000801FFF783FE2D4B186000F0C1F91E209C
:100D000001F05CFF24A3D3E9002320462946FFF726
:100D100023FA04460D460022214B20462946FFF7C0
:100D200059FE0028C9D100241D4D2BE002AECDE9AB
:100D3000004500221A4B304600F0BEF904AB93E8A0
:100D400003008DE8030096E80C0006A800F0FCF90B
:100D5000DDE90601FFF752FE134B1860DDE90801DB
:100D6000FFF74CFE114B186000F08AF91E2001F0CD
:100D700025FF09A3D3E9002320462946FFF7EEF912
:100D800004460D460022074B20462946FFF718FE71
:100D90000028CBD10AB070BD7B14AE47E17A843F06
:100DA0000000D0BF0000D03F040000200800002059
:100DB00008B505E000F0BEF890B9012001F0FEFE94
:100DC00000F086F800F05CF9174B1B68002BF1D09F
:100DD000062BF2D1FFF7FCFE134B00221A60ECE762
:100DE000FFF7C6FE114B93F900303BB9104A92F958
:100DF00000201AB90C4B01221A60DEE7012B0AD041
:100E0000002BDAD10A4B93F90030012BD5D1064BD8
:100E100006221A60D1E7064A92F90020002AEFD193
:100E2000014B05221A60C8E77004002074040020FA
:100E30007504002070B588B00024049405940694CD
:100E40000794204B9A6942F020029A619A6902F055
:100E500020020192019A9A6942F004029A619A6909
:100E600002F004020292029A9A6942F008029A6120
:100E70009B6903F008030393039B134D2246402113
:100E8000284600F0DAFD402304930126059602234C
:100E90000693079304A9284600F0B6FC4FF460734C
:100EA00004930A4B0593069604A9284600F0ACFC6F
:100EB00022460521172000F0F1FB172000F026FC48
:100EC00008B070BD00100240000C0140000031105D
:100ED00010B5134C8021204600F0A8FD114B18706E
:100EE0004FF40071204600F0A1FDB0FA80F04009F7
:100EF0000D4B18704FF48071204600F097FDB0FA4A
:100F000080F04009094B1870094B93F90030B3F198
:100F1000FF3F00D010BD034B1A78054B1A70F9E75C
:100F2000000C0140760400207404002075040020A9
:100F30000000002008B5084B93F90020074B93F9F7
:100F400000309A4201D1002008BD034A1370C82026
:100F500001F034FE0120F7E70000002076040020B5
:100F60007047000008B50268034B9A4200D008BDE4
:100F700000F05CFBFBE700BF0008004072B6FEE734
:100F800000B591B02822002106A803F095FB0023AC
:100F900001930293039304930593012206924FF465
:100FA000803307930A9202220D920E934FF4E013BE
:100FB0000F9306A800F06CFD80B90F230193022166
:100FC0000291002303934FF480620492059301A8D9
:100FD00000F090FF20B911B05DF804FBFFF7CEFFE1
:100FE000FFF7CCFF08B500F00FFBFFF7C9FFFFF7D5
:100FF00021FF00F0E1F900F0F9F900F011FA0A4CD4
:1010000001224021204600F018FD642000F020FB62
:1010100000224021204600F010FD01F011FDFFF7F5
:10102000B9FD01F02FFDFEE7000C0140124B1B68DB
:10103000B3F5967F03DA104B4FF496721A600E4B9D
:101040001B68B3F52F7F03DD0B4B4FF42F721A6033
:101050000A4B1B68B3F5967F03DA084B4FF4967280
:101060001A60064B1B68B3F52F7F03DD034B4FF46B
:101070002F721A60704700BF040000200800002093
:1010800008B5FFF7D3FF4FF4FA62094B1988012026
:1010900000F0ACF8074B1968C1F580614FF4FA62B3
:1010A00089B2022000F0A2F800F0D0F808BD00BF1D
:1010B00004000020080000202DE9F0478246144675
:1010C0001D464FF000084FF0804942464B462046EF
:1010D000294603F033FC06460F4642464B46DDE9FF
:1010E000080103F02BFC02460B4630463946FFF759
:1010F00035F80022124BFFF731F803F08DFC06465D
:101100000F4602460B46DDE90801FFF707FB03F037
:10111000EDFB02460B46CAE9022303F08FFB324681
:101120003B46FFF7D1F902460B4620462946FFF71A
:10113000F5FA03F0DBFBCAE900015046BDE8F08791
:101140000000F03F0000000082B010B5044602A984
:1011500081E80C001AA3D3E90023DDE90201FEF7C0
:10116000FBFF02460B46CDE9022317A3D3E9002378
:10117000FFF7D4FA02460B4600204FF08141FEF7FC
:10118000EBFFC4E90001DDE904230DA1D1E9000171
:10119000FEF7E2FF02460B46CDE904230AA3D3E99A
:1011A0000023FFF7BBFA00224FF08143FEF7D6FF82
:1011B000C4E902012046BDE8104002B0704700BFFC
:1011C0004AD8124DFB21F93F217A335EC1B76E3FF9
:1011D000002305E012F800C063449BB20130C0B2A6
:1011E0008842F7D9D843C0B27047000030B585B007
:1011F00005460C469646134BEC460FCBACE8070071
:101200008CF800308DF80250230A8DF806308DF8E6
:1012100007404FEA1E238DF80A308DF80BE06A462E
:101220000B210220FFF7D4FF8DF80C000A230D22BA
:101230006946054801F0D4F9012000F009FA05B02B
:1012400030BD00BFB06E00085005002000B583B06F
:10125000084B93E803000090ADF804100A2306221F
:101260006946054801F0BCF9012000F0F1F903B02E
:101270005DF804FB246F00085005002000B583B022
:10128000114B9A6942F001029A619A6902F00102D7
:101290000092009ADA6942F08052DA61DB6903F069
:1012A00080530193019B00220F216FF0010000F099
:1012B000F5F9064A536823F0E06343F00073536086
:1012C00003B05DF804FB00BF0010024000000140C5
:1012D00000B589B0014600221E2000F0DFF91E2073
:1012E00000F014FA154BDA6942F00402DA61DB69A6
:1012F00003F004030193019B02A903A800F0D6FEAA
:1013000000F0B4FE43000E48A0FB03239B0C013BFE
:101310000C480D4A026040F2E732C260436000238D
:101320000361836001F012F818B1012009B05DF883
:1013300004FB044800F0DAFEF8E700BF00100240AA
:1013400083DE1B437804002000080040FEE7FEE730
:10135000FEE7FEE7FEE7704708B5802000F074FB6B
:101360004FF4807000F070FB4FF4007000F06CFBE5
:1013700008BD000008B5024800F0F0FE08BD00BF3F
:101380007804002008B5024801F016FA08BD00BF35
:10139000C004002008B5024801F00EFA08BD00BFE5
:1013A0000805002008B5024801F006FA08BD00BF94
:1013B000500500207047000008B50A480A4B03603A
:1013C0004FF4E133436000238360C36003610C2268
:1013D00042618361C36101F0D3F800B908BDFFF732
:1013E000CDFDFBE7C00400200038014008B50A48E5
:1013F0000A4B03604FF4E133436000238360C36012
:1014000003610C2242618361C36101F0B9F800B944
:1014100008BDFFF7B3FDFBE70805002000440040CE
:1014200008B50A480A4B03604FF4E13343600023D8
:101430008360C36003610C2242618361C36101F078
:101440009FF800B908BDFFF799FDFBE750050020A4
:101450000048004030B58BB00023069307930893F3
:10146000099303684F4A934207D04F4A934236D0BC
:101470004E4A934263D00BB030BD4D4B9A6942F453
:1014800080429A619A6902F480420092009A9A69B5
:1014900042F004029A619B6903F004030193019BEB
:1014A0004FF4007306930223079303230993414DDE
:1014B00006A9284600F0A8F94FF48063069300249B
:1014C0000794089406A9284600F09EF922460521B3
:1014D000252000F0E3F8252000F018F9CBE7344B85
:1014E000DA6942F40032DA61DA6902F40032029217
:1014F000029A9A6942F004029A619B6903F004031C
:101500000393039B04230693022307930323099366
:10151000284D06A9284600F077F9082306930024F1
:101520000794089406A9284600F06EF92246052182
:10153000262000F0B3F8262000F0E8F89BE71C4BCB
:10154000DA6942F48022DA61DA6902F480220492D4
:10155000049A9A6942F008029A619B6903F00803B1
:101560000593059B4FF4806306930223079303239F
:101570000993114D06A9284600F046F94FF400637F
:10158000069300240794089406A9284600F03CF925
:1015900022460521272000F081F8272000F0B6F828
:1015A00069E700BF003801400044004000480040A7
:1015B0000010024000080140000C0140FFF7FAFE55
:1015C0000B480C490C4A002302E0D458C4500433A1
:1015D000C4188C42F9D3094A094C002301E0136076
:1015E0000432A242FBD303F043F8FFF7FBFC704741
:1015F000000000204C0400205C7100084C04002016
:10160000E81E0020FEE7000008B5074A136843F013
:1016100010031360032000F02FF80F20FFF758FE8F
:10162000FFF72CFE002008BD00200240034A11688D
:10163000034B1B780B441360704700BF98050020D4
:1016400010000020014B1868704700BF980500206B
:1016500038B50446FFF7F6FF0546B4F1FF3F02D068
:10166000044B1B781C44FFF7EDFF401BA042FAD34C
:1016700038BD00BF10000020074AD36823F4E063A0
:101680001B041B0C000200F4E060034343F0BF6343
:1016900043F40033D360704700ED00E000B5194B10
:1016A000DB68C3F30223C3F1070CBCF1040F28BFAE
:1016B0004FF0040C03F1040EBEF1060F18D9033BE2
:1016C0004FF0FF3E0EFA0CFC21EA0C0199400EFA95
:1016D00003F322EA0303194300280BDB0901C9B213
:1016E00000F1604000F5614080F800135DF804FBF4
:1016F0000023E5E700F00F000901C9B2024B1954BD
:10170000F4E700BF00ED00E014ED00E0002807DB87
:1017100000F01F02400901239340024A42F82030A2
:10172000704700BF00E100E090F82130DBB2022BEF
:1017300006D004238363002380F820300120704703
:101740000268136823F00E0313600268136823F025
:1017500001031360036CC16B012202FA03F34B60B7
:1017600080F82120002380F82030184670470000C0
:1017700008B590F82130DBB2022B03D00423836339
:10178000012008BD0268136823F00E03136002688D
:10179000136823F0010313600368194A934214D0BD
:1017A000143293421FD0143293421ED0143293420B
:1017B0001ED0143293421ED01432934202D04FF006
:1017C000807203E04FF4801200E001220D4B5A605A
:1017D000012380F82130002380F82030436B6BB167
:1017E00098470020CDE71022F0E74FF48072EDE734
:1017F0004FF48052EAE74FF48032E7E70020C0E779
:10180000080002400000024070B582B00024A446E7
:10181000A6E0804DAA4210D007D97F4DAA420CD035
:1018200005F58035AA4208D013E0A5F58015AA4237
:1018300003D005F57025AA4207D18A68002A58D03E
:10184000012A51D04361082403E0A5F58015AA427E
:10185000F3D0BEF1FF0F4ED80646BEF1FF0F4CD8B5
:101860004FEA8C0233680F25954023EA050304FAFA
:1018700002F2134333604B6813F0805F6ED0674B06
:101880009A6942F001029A619B6903F00103019396
:10189000019B4FEA9C02951C614B53F825600CF0AC
:1018A00003039D000F23AB4026EA03065D4B9842DD
:1018B00029D003F58063984200F08E8003F58063A1
:1018C000984200F08B8003F58063984219D004237E
:1018D0001AE0CC68BDE7CC680434BAE7CC680834B9
:1018E000B7E7CC680C34B4E703610824B1E70024FF
:1018F000AFE70424ADE7061DAFE7ACF108029200A4
:10190000B0E7032300E00023AB4033430232444DF1
:1019100045F822304B6813F4801F61D0424A936827
:1019200043EA0E0393604B6813F4001F5ED03E4AF7
:10193000D36843EA0E03D3604B6813F4003F5BD0D7
:10194000394A536843EA0E0353604B6813F4803FEF
:1019500058D0354A136843EA0E0313600CF1010CAA
:101960000A6832FA0CF353D0012303FA0CF302EAAB
:10197000030E33EA0202F1D14A68122A3FF649AF58
:10198000122A3FF666AF01A555F822F03B18000871
:10199000D3180008DD180008EF18000853180008D5
:1019A000531800085318000853180008531800086B
:1019B000531800085318000853180008531800085B
:1019C000531800085318000853180008531800084B
:1019D000D7180008E3180008012395E7022393E7CE
:1019E000114A936823EA0E0393609CE70E4AD3687A
:1019F00023EA0E03D3609FE70B4A536823EA0E03E2
:101A00005360A2E7084A136823EA0E031360A5E7B0
:101A100002B070BD00002210000031100010024022
:101A200000000140000801400004014083681942A1
:101A300001D001207047002070470AB10161704752
:101A4000090401617047000008B5054B5B6903425A
:101A500000D108BD024B5861FFF782FAF9E700BFD9
:101A60000004014082B0084B1B68084AA2FB032314
:101A70005B0A00FB03F3019300BF019B5A1E019216
:101A8000002BF9D102B070470C000020D34D62103A
:101A9000002800F0F18170B582B00446036813F0AD
:101AA000010F2CD0994B5B6803F00C03042B1DD065
:101AB000964B5B6803F00C03082B12D06368B3F5F8
:101AC000803F41D0002B55D103F1804303F504330F
:101AD0001A6822F480321A601A6822F480221A608E
:101AE00037E08A4B5B6813F4803FE7D0874B1B6875
:101AF00013F4003F03D06368002B00F0BF8123681C
:101B000013F0020F75D0814B5B6813F00C0F5FD0A0
:101B10007E4B5B6803F00C03082B54D02369002B29
:101B200000F08A807A4B01221A60FFF78BFD054690
:101B3000764B1B6813F0020F75D1FFF783FD401B36
:101B40000228F5D903209EE1704A136843F48033DC
:101B50001360636843B3FFF775FD05466B4B1B6865
:101B600013F4003FCBD1FFF76DFD401B6428F5D97E
:101B7000032088E1B3F5A02F09D0644B1A6822F442
:101B800080321A601A6822F480221A60E1E703F1B9
:101B90008043A3F53C331A6842F480221A601A6825
:101BA00042F480321A60D4E7FFF74CFD0546574BEC
:101BB0001B6813F4003FA2D0FFF744FD401B6428CC
:101BC000F5D903205FE1514B5B6813F4803FA5D149
:101BD0004E4B1B6813F0020F03D02369012B40F01A
:101BE0004F814A4A136823F0F803616943EAC1034D
:101BF0001360236813F0080F33D0A369002B5CD067
:101C0000434B0122C3F88024FFF71CFD05463F4BE0
:101C10005B6A13F0020F21D1FFF714FD401B02286D
:101C2000F5D903202FE1394A136823F0F8036169DD
:101C300043EAC1031360DCE7354B00221A60FFF76B
:101C400001FD0546314B1B6813F0020FD1D0FFF7A1
:101C5000F9FC401B0228F5D9032014E10120FFF70D
:101C600001FF236813F0040F00F09680274BDB6917
:101C700013F0805F34D1254BDA6942F08052DA618B
:101C8000DB6903F080530193019B0125214B1B6805
:101C900013F4807F26D0E368012B3DD0002B53D175
:101CA00003F1804303F504331A6A22F001021A6239
:101CB0001A6A22F004021A6233E0154B0022C3F8BC
:101CC0008024FFF7BFFC0546104B5B6A13F0020F40
:101CD000C7D0FFF7B7FC401B0228F5D90320D2E09C
:101CE0000025D3E70B4A136843F480731360FFF7B2
:101CF000A9FC0646074B1B6813F4807FCBD1FFF786
:101D0000A1FC801B6428F5D90320BCE00010024030
:101D100000004242007000405F4A136A43F0010332
:101D20001362E36833B3FFF78DFC06465A4B1B6A18
:101D300013F0020F2FD1FFF785FC801B41F288338F
:101D40009842F3D903209EE0052B09D0524B1A6A22
:101D500022F001021A621A6A22F004021A62E0E713
:101D60004D4B1A6A42F004021A621A6A42F00102EA
:101D70001A62D6E7FFF766FC0646474B1B6A13F06C
:101D8000020F08D0FFF75EFC801B41F288339842B7
:101D9000F3D9032077E0E5B9E369002B72D03E4A1E
:101DA000526802F00C02082A56D0022B17D03B4B87
:101DB00000221A66FFF746FC0446374B1B6813F0F7
:101DC000007F47D0FFF73EFC001B0228F5D9032017
:101DD00059E0314AD36923F08053D361DCE72F4BBC
:101DE00000221A66FFF72EFC05462B4B1B6813F0EA
:101DF000007F06D0FFF726FC401B0228F5D9032000
:101E000041E0236AB3F5803F1AD023494B6823F49D
:101E10007413226A606A024313434B601F4B012212
:101E20001A66FFF70FFC04461B4B1B6813F0007F7C
:101E30000ED1FFF707FC001B0228F5D9032022E092
:101E4000154A536823F40033A1680B435360DCE761
:101E5000002018E0002016E0012B16D00E4B5B6826
:101E600003F48031226A914211D103F47013626A43
:101E700093420ED1002006E001207047012002E0CD
:101E8000012000E0002002B070BD0120FBE701202E
:101E9000F9E70120F7E700BF0010024000004242CE
:101EA0000F4B5B6803F00C02082A01D00D48704705
:101EB000C3F383420C49885C13F4803F0BD0084B7A
:101EC0005B68C3F34043094AD35C064A02FB00F057
:101ED000B0FBF3F07047064B03FB00F0704700BF08
:101EE0000010024000127A00446F0008546F00088E
:101EF00000093D00002800F0A08070B50D460446A2
:101F0000524B1B6803F007038B420BD24F4A1368F6
:101F100023F007030B431360136803F007038B429E
:101F200040F08D80236813F0020F17D013F0040FD8
:101F300004D0474A536843F4E0635360236813F0C6
:101F4000080F04D0424A536843F460535360404A38
:101F5000536823F0F003A1680B435360236813F028
:101F6000010F31D06368012B20D0022B25D0384AD5
:101F7000126812F0020F64D035494A6822F0030259
:101F800013434B60FFF75EFB0646314B5B6803F083
:101F90000C036268B3EB820F16D0FFF753FB801B74
:101FA00041F288339842F0D9032045E0284A12686C
:101FB00012F4003FE0D101203EE0254A126812F001
:101FC000007FD9D1012037E0204B1B6803F00703C5
:101FD000AB420AD91D4A136823F007032B43136051
:101FE000136803F00703AB422DD1236813F0040FED
:101FF00006D0174A536823F4E063E1680B4353604B
:10200000236813F0080F07D0114A536823F4605374
:10201000216943EAC1035360FFF742FF0C4B5B6841
:10202000C3F303130B4AD35CD8400B4B18600B4B24
:102030001868FFF74DF9002070BD0120704701209E
:10204000FAE70120F8E70120F6E700BF0020024090
:10205000001002402C6F00080C000020140000202B
:10206000014B1868704700BF0C00002008B5FFF74F
:10207000F7FF044B5B68C3F30223034AD35CD840E9
:1020800008BD00BF001002403C6F000808B5FFF714
:10209000E7FF044B5B68C3F3C223034AD35CD84019
:1020A00008BD00BF001002403C6F00080F23036012
:1020B0000B4B5A6802F0030242605A6802F0F002C9
:1020C00082605A6802F4E062C2605B68DB0803F475
:1020D000E0630361034B1B6803F007030B60704769
:1020E00000100240002002407047000090F83D3090
:1020F000DBB2012B27D1022380F83D300268D36880
:1021000043F00103D3600368114A934210D0B3F146
:10211000804F0DD0A2F59432934209D002F580622F
:10212000934205D01A6842F001021A6000207047FD
:102130009A6802F00702062A07D01A6842F00102E4
:102140001A6000207047012070470020704700BFD0
:10215000002C0140704770477047704710B5044627
:1021600003681A6912F0020F11D0DA6812F0020F38
:102170000DD06FF002021A610123037703689B6997
:1021800013F0030F70D0FFF7E6FF002323772368D7
:102190001A6912F0040F12D0DA6812F0040F0ED090
:1021A0006FF004021A610223237723689B6913F4FA
:1021B000407F5FD02046FFF7CEFF002323772368C0
:1021C0001A6912F0080F12D0DA6812F0080F0ED058
:1021D0006FF008021A61042323772368DB6913F088
:1021E000030F4ED02046FFF7B6FF00232377236866
:1021F0001A6912F0100F12D0DA6812F0100F0ED018
:102200006FF010021A61082323772368DB6913F447
:10221000407F3DD02046FFF79EFF002323772368B1
:102220001A6912F0010F03D0DA6812F0010F36D1EB
:1022300023681A6912F0800F03D0DA6812F0800F59
:1022400034D123681A6912F0400F03D0DA6812F013
:10225000400F32D123681A6912F0200F03D0DA68D8
:1022600012F0200F30D110BDFFF774FF2046FFF7AA
:1022700073FF8AE72046FFF76DFF2046FFF76CFFEC
:102280009BE72046FFF766FF2046FFF765FFACE7B8
:102290002046FFF75FFF2046FFF75EFFBDE76FF0C8
:1022A00001021A612046FEF75DFEC1E76FF0800271
:1022B0001A61204600F077F8C3E76FF040021A6118
:1022C0002046FFF74AFFC5E76FF020021A6120465B
:1022D00000F068F8C7E7000003681B4A90420AD084
:1022E000B0F1804F07D0A2F59432904203D002F5AE
:1022F0008062904203D123F070034A681343124A6C
:1023000090420AD0B0F1804F07D0A2F594329042AB
:1023100003D002F58062904203D123F44073CA686F
:10232000134323F080034A69134303608B68C3623D
:102330000B688362044B984202D0012343617047CB
:102340000B690363F9E700BF002C014040B310B5EF
:10235000044690F83D30F3B1022384F83D30214625
:1023600051F8040BFFF7B8FF012384F8463084F8D6
:102370003E3084F83F3084F8403084F8413084F8AF
:10238000423084F8433084F8443084F8453084F88F
:102390003D30002010BD80F83C30FFF7A5FEDBE7A4
:1023A0000120704770477047026802F10C0353E840
:1023B000003F23F490730C3242E800310029F3D13E
:1023C000026802F1140353E8003F23F001031432C2
:1023D00042E800310029F3D1036B012B05D0202303
:1023E00080F84230002303637047026802F10C0357
:1023F00053E8003F23F010030C3242E8003100297B
:10240000F3D1ECE790F84130DBB2212B01D0022070
:1024100070478368B3F5805F17D0036A5A1C026265
:102420001A7803685A60C38C9BB2013B9BB2C38489
:102430004BB90268D36823F08003D3600268D36885
:1024400043F04003D360002070470369002BE4D1C0
:10245000036A1B880268C3F308035360036A0233EC
:102460000362E0E710B504460268136923F44053A1
:10247000C1680B43136183680269134342691A43BD
:102480000168CB6823F4B05323F00C031343CB60F3
:102490000268536923F4407381690B4353610268F6
:1024A000134B9A4220D0FFF7E1FD024602EB820275
:1024B00002EB820263689B00B2FBF3F20D48A0FBC3
:1024C00002314909642303FB11231B013233A0FBB2
:1024D00003235B0903F0F00202EB011203F00F0388
:1024E000216813448B6010BDFFF7D0FD0246DDE785
:1024F000003801401F85EB512DE9F84305460F4692
:1025000016469946DDF820802C68246837EA0403D3
:102510000CBF4FF0010C4FF0000CB4452DD1B8F1B9
:10252000FF3FF1D0B8F1000F05D0FFF78BF8A0EB1B
:1025300009004045E8D92A6802F10C0353E8003F3E
:1025400023F4D0730C3242E800310029F3D12A6819
:1025500002F1140353E8003F23F00103143242E870
:1025600000310029F3D1202385F8413085F842302D
:10257000002385F84030032000E00020BDE8F88308
:1025800060B310B5044690F8413013B3242384F8A7
:1025900041302268D36823F40053D3602046FFF70C
:1025A00061FF2268136923F4904313612268536921
:1025B00023F02A0353612268D36843F40053D360A5
:1025C00000206064202384F8413084F84230606346
:1025D00010BD80F84030FEF73DFFD7E7012070477F
:1025E0002DE9F04182B01E4690F84130DBB2202B3D
:1025F0004BD104460D46904600294AD00AB9012025
:1026000044E000234364212380F84130FFF71AF8A7
:102610000746A4F82480A4F82680A368B3F5805F59
:1026200002D04FF000080FE02369FBB14FF0000823
:102630000AE038F8023B2268C3F308035360E28CD7
:1026400092B2013A92B2E284E38C9BB28BB10096D3
:102650003B46002280212046FFF74EFFD8B9002DCF
:10266000E7D015F8012B23685A60E8E7A846002553
:10267000EAE700963B46002240212046FFF73CFF58
:1026800058B9202384F8413000E0022002B0BDE8B0
:10269000F0810120FAE70320F8E70320F6E770470E
:1026A00008B50168CA6822F04002CA60202280F89A
:1026B0004120FFF7F4FF002008BD7047704708B5C0
:1026C000406A0023C385C384FFF7F8FF08BD704745
:1026D00090F84230DBB2222B69D18368B3F5805F7A
:1026E0004FD0826AB3F5805F04D0002B56D10369C6
:1026F000002B53D103685B681370836A01338362D4
:10270000C38D9BB2013B9BB2C385002B51D100B559
:1027100083B00268D36823F02003D3600268D368D3
:1027200023F48073D3600268536923F0010353617B
:10273000202380F8423000234363036B012B33D105
:1027400000230363026802F10C0353E8003F23F007
:1027500010030C3242E800310029F3D103681A68F3
:1027600012F0100F06D0002201921A6801925B68E5
:102770000193019B818DFFF7AAFF002003B05DF854
:1027800004FB0269002AACD1826A03685B68C3F368
:1027900008031380836A02338362B1E703685B68CE
:1027A00003F07F031370A8E7FFF787FFE5E7022038
:1027B000704700207047000030B583B004460268BF
:1027C0001368D068516913F00F0505D113F0200F7D
:1027D00002D010F0200F19D12DB111F0010119D143
:1027E00010F4907F16D1216B01297DD013F0800F5A
:1027F00003D010F0800F40F0188113F0400F03D089
:1028000010F0400F40F0158103B030BD2046FFF7B7
:102810005FFFF9E713F0010F06D010F4807F03D0BB
:10282000626C42F00102626413F0040F04D019B12B
:10283000626C42F00202626413F0020F04D019B11C
:10284000626C42F00402626413F0080F07D010F0CB
:10285000200F00D119B1626C42F008026264626C10
:10286000002AD1D013F0200F02D010F0200F29D170
:1028700023685B6903F04003626C12F0080F00D11B
:1028800063B32046FFF790FD23685B6913F0400FA8
:1028900020D0226802F1140353E8003F23F04003E4
:1028A000143242E800310029F3D1E36B73B1634A7B
:1028B0005A63E06BFEF75CFF0028A5D0E06B436B2A
:1028C0009847A1E72046FFF703FFD1E72046FFF72F
:1028D000F5FE99E72046FFF7F1FE95E72046FFF762
:1028E000EDFE002363648FE713F0100F3FF47EAF1B
:1028F00010F0100F3FF47AAF002301931368019397
:1029000053680193019B536913F0400F51D0E26B60
:1029100013685B689BB2002B3FF476AFA18D9942A0
:102920007FF672AFE3859369202B37D0226802F1DE
:102930000C0353E8003F23F480730C3242E800316B
:102940000029F3D1226802F1140353E8003F23F079
:102950000103143242E800310029F3D1226802F168
:10296000140353E8003F23F04003143242E80031DF
:102970000029F3D1202384F8423000232363226806
:1029800002F10C0353E8003F23F010030C3242E83D
:1029900000310029F3D1E06BFEF7C6FE022363632A
:1029A000A18DE38D9BB2C91A89B22046FFF78FFE35
:1029B0002AE7A18DE38D9BB2C91A89B2E38D9BB240
:1029C000002B3FF421AF00293FF41EAF226802F133
:1029D0000C0353E8003F23F490730C3242E80030BC
:1029E0000028F3D1226802F1140353E8003F23F0DA
:1029F0000103143242E800300028F3D1202384F888
:102A0000423000232363226802F10C0353E8003FA5
:102A100023F010030C3242E800300028F3D10223E7
:102A200063632046FFF753FEEEE62046FFF7EAFC1D
:102A3000EAE62046FFF734FEE6E600BFBF260008C0
:102A4000EFF3058393B9EFF3108393B90C4B186838
:102A5000022804D080B90A4B01221A607047EFF3B4
:102A60001183002BF6D06FF0050070476FF0050062
:102A700070476FF0050070474FF0FF30704700BFA0
:102A8000F807002008B5EFF30583B3B9EFF310831F
:102A9000B3B90E4B1B68022B08D0012B13D10B4B83
:102AA00002221A6001F0CCF8002008BDEFF3118279
:102AB000002AF2D06FF00500F7E76FF00500F4E7A9
:102AC0006FF00500F1E74FF0FF30EEE7F807002068
:102AD000F0B587B000240494EFF30584002C43D1B3
:102AE000EFF31083002B3FD1334B1B68022B16D022
:102AF000002839D000238DF8173062B3156895B1DE
:102B0000936903B918235C1E372C51D8546814F00C
:102B1000010F4FD156694EB14FEA960C08E0EFF322
:102B200011830BBBE4E70DF11705E9E74FF0800CCB
:102B300094682CB1D7685B2F02D9176907B1B6B971
:102B400014B14FF0FF340CE0D46894B914699CB10F
:102B50004FF0FF3405E0002418234FF0800C0DF1F6
:102B60001705012C0AD0ACB1049807B0F0BD0124C0
:102B7000F7E74FF0FF34F4E70024F2E714699268B6
:102B80000292019400930B466246294600F0EAFF48
:102B90000490E9E704AA019200930B461FFA8CF215
:102BA000294601F019F80128DED000230493DBE761
:102BB0000020DAE70020D8E7F807002008B5EFF397
:102BC0000583A3B9EFF31083A3B90C4B1B68022B49
:102BD00002D040B9002008BDEFF31183002BF8D0DC
:102BE0006FF00500F7E701F08FF90020F3E76FF0D1
:102BF0000500F0E76FF00500EDE700BFF8070020E3
:102C0000034B0360034B0B6080231360704700BFCE
:102C10009C0700209C050020034B0360034B0B60C6
:102C20004FF4807313607047FC0B0020FC070020FA
:102C300000F1080343604FF0FF328260C36003611C
:102C400000230360704700230361704743684B60B3
:102C50009A688A6051609960086103680133036073
:102C6000704730B40D68B5F1FF3F11D000F1080393
:102C70001C465B681A68AA42FAD963684B6099607F
:102C80008C606160086103680133036030BC704789
:102C90000469F2E70369416882688A6041685160AB
:102CA0005A68824206D0002202611A68013A1A600C
:102CB0001868704782685A60F5E7000082B0002308
:102CC00001930D4B1B68B3F1FF3F08D04FF0500349
:102CD00083F31188BFF36F8FBFF34F8FFEE74FF081
:102CE000500383F31188BFF36F8FBFF34F8F019BA6
:102CF000002BFCD002B07047180000200648006886
:102D0000006880F3088862B661B6BFF34F8FBFF3E7
:102D10006F8F00DF00BF000008ED00E04FF0807310
:102D200040F8043C21F0010140F8081C034B40F836
:102D30000C3C40F8202C4038704700BFBD2C0008E8
:102D4000074B19680868B0E8F00F80F30988BFF3F3
:102D50006F8F4FF0000080F311884EF00D0E70471A
:102D6000B81800204FF0500383F31188BFF36F8F22
:102D7000BFF34F8F0B4A136801331360012B00D050
:102D800070474FF0E023D3F8043D13F0FF0FF7D066
:102D90004FF0500383F31188BFF36F8FBFF34F8F52
:102DA000FEE700BF18000020094B1B6843B94FF035
:102DB000500383F31188BFF36F8FBFF34F8FFEE78C
:102DC000013B034A13600BB983F31188704700BFBE
:102DD00018000020000000000000000000000000BB
:102DE000EFF30980BFF36F8F0D4B1A6820E9F00FE6
:102DF00010602DE908404FF0500080F3118801F079
:102E0000A9F84FF0000080F31188BDE80840196868
:102E10000868B0E8F00F80F30988BFF36F8F704740
:102E2000B818002008B54FF0500383F31188BFF3A2
:102E30006F8FBFF34F8F00F05FFF28B14FF0E0239B
:102E40004FF08052C3F8042D002383F3118808BD8E
:102E50004FF0E022002313619361054B1B68054985
:102E6000A1FB03139B09013B5361072313617047C7
:102E70000C000020D34D621010B582B02A4B1A7896
:102E8000D2B20192FF221A701B78DBB28DF80330A8
:102E90009DF8033003F05003244A1370244B07229B
:102EA0001A6009E0224A1368013B13609DF8033061
:102EB0005B00DBB28DF803309DF8033013F0800F18
:102EC000F0D11B4B1B68032B08D04FF0500383F34A
:102ED0001188BFF36F8FBFF34F8FFEE71B02144AB9
:102EE000136003F4E0631360019BDBB20E4A1370BE
:102EF0004FF0E023D3F8202D42F47002C3F8202DC8
:102F0000D3F8202D42F07042C3F8202DFFF7A0FF28
:102F10000024084B1C60FFF7F1FE01F01BF8FFF7DF
:102F2000CDFE204602B010BD00E400E0580C0020A9
:102F30005C0C002018000020EFF305830F2B0FD945
:102F4000114A9B5CDBB2114A12789A4208D94FF0C1
:102F5000500383F31188BFF36F8FBFF34F8FFEE7EA
:102F60004FF0E023D3F80C3D03F4E063084A126805
:102F7000934208D94FF0500383F31188BFF36F8F4A
:102F8000BFF34F8FFEE77047F0E300E0580C0020DE
:102F90005C0C0020124A12F0070F1ED0D11D21F048
:102FA0000701C1F5406313440A460E480260002140
:102FB00041601344083B23F007030B48036059604A
:102FC0001960991A51601360084B1960084B196019
:102FD000084B4FF000421A6070474FF44063E4E73B
:102FE000640C002070180020600C00206C18002079
:102FF0006818002064180020154B1A461B6883428D
:10300000FBD3516802EB010C844509D0416800EB09
:10301000010C634509D00360904218D010607047DE
:103020004068014451601046F0E710B4094C246830
:10303000A3420AD05B681944416013681B680360AF
:10304000904200D0106010BC70470460F8E77047F1
:1030500070180020600C002070B5054600F03EFEA0
:10306000344B1B68A3B1344B1B681D424AD135B1A8
:10307000083515F0070F02D025F007050835002D9B
:1030800042D02E4B1B68AB424DD32D4A146804E04E
:10309000FFF780FFE7E722461C466368AB4202D297
:1030A0002368002BF7D1234B1B68A3423DD0166841
:1030B00008362368136063685B1B102B10D96019F6
:1030C00010F0070F08D04FF0500383F31188BFF3BF
:1030D0006F8FBFF34F8FFEE743606560FFF78CFF94
:1030E000626816490B689B1A0B60164909688B4287
:1030F00001D214490B60104B1B681343636000231B
:10310000236002E0002600E0002600F081FE16F0B9
:10311000070F0CD04FF0500383F31188BFF36F8F6C
:10312000BFF34F8FFEE70026EFE70026EDE73046BE
:1031300070BD00BF600C00206418002068180020DB
:10314000701800206C18002080B338B50446A0F138
:10315000080550F8043C164A1268134208D14FF093
:10316000500383F31188BFF36F8FBFF34F8FFEE7D8
:1031700050F8081C41B14FF0500383F31188BFF39E
:103180006F8FBFF34F8FFEE723EA020340F8043C42
:1031900000F0A4FD54F8041C064A13680B441360A5
:1031A0002846FFF729FF00F033FE38BD704700BF07
:1031B000641800206818002010B50446FFF7D2FDFF
:1031C000A26BE36B9A4204D00024FFF7EDFD20468A
:1031D00010BD0124F9E710B50446FFF7C3FDA36B4A
:1031E00023B90124FFF7E0FD204610BD0024F9E7D4
:1031F00070B504461546866B026C5AB903681BB15C
:1032000000200136A66370BD406800F0CBFF0023AC
:103210006360F6E76DB98068FDF718FC226CA3685F
:103220001344A3606268934219D32368A3602846BD
:10323000E7E7C068FDF70AFC226C5142E3689B1A7D
:10324000E3602268934202D263680B44E360022D7C
:1032500001D00020D5E726B1013E0020D1E7284665
:10326000CFE70020CDE708B50346026C62B10846FF
:10327000D9681144D960D3F804C0614501D31968F5
:10328000D960D968FDF7E2FB08BD38B50546FFF700
:1032900069FD95F8454064B201E0013C64B2002C40
:1032A0000ADD6B6A43B105F1240000F0D1FE00286D
:1032B000F3D000F061FFF0E7FF2385F84530FFF71A
:1032C00073FDFFF74FFD95F8444064B201E0013C07
:1032D00064B2002C0ADD2B6943B105F1100000F047
:1032E000B7FE0028F3D000F047FFF0E7FF2385F892
:1032F0004430FFF759FD38BD38B5E0B10D460446FE
:10330000FFF730FD2368E26B216C01FB0230606047
:103310000020A063A360013A02FB0133E360FF23B6
:1033200084F8443084F84530FDB9236963B9FFF768
:103330003BFD012038BD4FF0500383F31188BFF3EC
:103340006F8FBFF34F8FFEE704F1100000F080FE97
:103350000028ECD04FF0E0234FF08052C3F8042D4A
:10336000BFF34F8FBFF36F8FE1E704F11000FFF75A
:103370005FFC04F12400FFF75BFCD8E738B51D467D
:10338000049C0B4649B92460E06323640121204674
:10339000FFF7B2FF84F84C5038BD2260F4E740B923
:1033A0004FF0500383F31188BFF36F8FBFF34F8F3C
:1033B000FEE710B584B01C46844653B192B189B97A
:1033C0004FF0500383F31188BFF36F8FBFF34F8F1C
:1033D000FEE74FF0500383F31188BFF36F8FBFF305
:1033E0004F8FFEE76AB150230393039B502B13D0FA
:1033F0004FF0500383F31188BFF36F8FBFF34F8FEC
:10340000FEE70029EFD04FF0500383F31188BFF39C
:103410006F8FBFF34F8FFEE7012384F8463000948F
:103420009DF818306046FFF7A9FF204604B010BD94
:10343000F0B585B0019288B10F461D460446B1B182
:10344000022D20D1E36B012B1DD04FF0500383F3ED
:103450001188BFF36F8FBFF34F8FFEE74FF050031C
:1034600083F31188BFF36F8FBFF34F8FFEE7036CB9
:10347000002BE5D04FF0500383F31188BFF36F8F1B
:10348000BFF34F8FFEE700F07DFE064658B9019B63
:10349000002B48D04FF0500383F31188BFF36F8F98
:1034A000BFF34F8FFEE700263DE02A46394620460F
:1034B000FFF79EFE636A7BB948B14FF0E0234FF0FF
:1034C0008052C3F8042DBFF34F8FBFF36F8FFFF708
:1034D0006BFC012005B0F0BD04F1240000F0B8FD44
:1034E0000028F4D04FF0E0234FF08052C3F8042DB1
:1034F000BFF34F8FBFF36F8FE9E7FFF755FC002055
:10350000E8E702A800F0EAFD012619E0002384F8AC
:10351000443021E0002384F8453023E02046FFF7C3
:10352000B4FE00F075FCFFF71DFCA26BE36B9A4242
:10353000BBD3022DB9D0019B002BDED0002EE0D0F2
:10354000FFF732FC00F0CAFBFFF70CFC94F84420B4
:1035500052B2B2F1FF3FD9D094F8452052B2B2F145
:10356000FF3FD7D0FFF720FC01A902A800F0C2FD61
:10357000D8B92046FFF720FE0028CFD0019904F1EA
:10358000100000F031FD2046FFF77FFE00F040FC08
:103590000028C8D14FF0E0234FF08052C3F8042D2B
:1035A000BFF34F8FBFF36F8FBDE72046FFF76DFE70
:1035B00000F02EFC00208DE72DE9F84390B10F4676
:1035C00016461C460546B1B1022C20D1EB6B012BEF
:1035D0001DD04FF0500383F31188BFF36F8FBFF3FB
:1035E0004F8FFEE74FF0500383F31188BFF36F8FC7
:1035F000BFF34F8FFEE7036C002BE5D04FF0500375
:1036000083F31188BFF36F8FBFF34F8FFEE7FFF790
:1036100093FCEFF311894FF0500383F31188BFF34C
:103620006F8FBFF34F8FAA6BEB6B9A4206D3022CBE
:1036300004D0002089F31188BDE8F88395F845800F
:103640004FFA88F8224639462846FFF7D1FDB8F1EF
:10365000FF3F06D008F101035BB285F84530012039
:10366000E8E76B6A0BB90120E4E705F1240000F0FC
:10367000EFFC18B126B101203060DBE70120D9E76B
:103680000120D7E7F0B585B0019290B10F4604460E
:10369000C1B100F077FD064600BB019B002B5ED058
:1036A0004FF0500383F31188BFF36F8FBFF34F8F39
:1036B000FEE74FF0500383F31188BFF36F8FBFF322
:1036C0004F8FFEE7036C002BE3D04FF0500383F3E2
:1036D0001188BFF36F8FBFF34F8FFEE700263EE0E8
:1036E00039462046FFF7BFFD013DA563236923B995
:1036F000FFF75AFB012005B0F0BD04F1100000F007
:10370000A7FC0028F4D04FF0E0234FF08052C3F81C
:10371000042DBFF34F8FBFF36F8FE9E7FFF744FB33
:103720000020E8E702A800F0D9FC012621E00023F0
:1037300084F8443029E0002384F845302BE020460B
:10374000FFF7A3FD00F064FB09E02046FFF79DFDB5
:1037500000F05EFB2046FFF73EFD00283FD1FFF75B
:1037600001FBA56B002DBBD1019B002BD6D0002EF9
:10377000D8D0FFF719FB00F0B1FAFFF7F3FA94F88D
:1037800044305BB2B3F1FF3FD1D094F845305BB227
:10379000B3F1FF3FCFD0FFF707FB01A902A800F06C
:1037A000A9FC0028D1D12046FFF715FD0028C6D07E
:1037B000019904F1240000F017FC2046FFF765FD95
:1037C00000F026FB0028CAD14FF0E0234FF08052D2
:1037D000C3F8042DBFF34F8FBFF36F8FBFE70020F7
:1037E00089E700000023072B0CD8074A52F8332042
:1037F0000AB10133F7E7044A42F8331002EBC3037E
:1038000058607047704700BF7818002070B50446B4
:103810000D461646FFF7A6FA94F844305BB2B3F1B2
:10382000FF3F0DD094F845305BB2B3F1FF3F0BD0B2
:10383000FFF7BAFAA36B5BB12046FFF726FD70BD18
:10384000002384F84430EDE7002384F84530EFE7A7
:103850003246294604F1240000F0DEFBECE70000CC
:10386000084B1B681B6823B9074B4FF0FF321A60E7
:103870007047044B1B68DB68DB685A68024B1A60B0
:10388000704700BFBC180020681D00202DE9F047DC
:1038900080460D4617469946089EDDF824A00A9CEE
:1038A0009200A521206B00F007FF236B07F18042F7
:1038B000013A03EB820727F007074FF0000CBCF139
:1038C0000F0F0BD815F80C2004EB0C0383F83420F1
:1038D00015F80C3013B10CF1010CF0E7002384F85B
:1038E0004330372E00D93726E662E6640025256589
:1038F000201DFFF7A8F904F11800FFF7A4F92461CF
:10390000C6F13806A6616462656584F858504A4677
:1039100041463846FFF702FA2060BAF1000F01D0A5
:10392000CAF80040BDE8F08738B5002407E004EB92
:10393000840293000E481844FFF77AF90134372CBB
:10394000F5D90C4D2846FFF773F90B4C2046FFF7CD
:103950006FF90A48FFF76CF90948FFF769F9094858
:10396000FFF766F9084B1D60084B1C6038BD00BFAF
:10397000C41800203C1D0020501D0020701D002098
:103980009C1D0020881D0020BC180020C0180020AD
:1039900010B50446FFF7E6F9224A136801331360B5
:1039A000214B1B685BB1214B1B686BB91E4B1B681D
:1039B000DA6AE36A9A4207D81B4B1C6004E01A4B90
:1039C0001C601368012B29D0194A13680133136056
:1039D0006364E06A174B1B68984201D9154B186065
:1039E00000EB8000211D144B03EB8000FFF72EF944
:1039F000FFF7DAF90D4B1B687BB10B4B1B68DA6ADA
:103A0000E36A9A4209D24FF0E0234FF08052C3F8A4
:103A1000042DBFF34F8FBFF36F8F10BDFFF784FFEF
:103A2000D2E700BF241D0020B8180020841D00200C
:103A3000341D0020381D0020C418002010B5044695
:103A400090F8593063B1012B11D0022B0ED04FF0FA
:103A5000500383F31188BFF36F8FBFF34F8FFEE7DF
:103A6000006BFFF771FB2046FFF76EFB10BDFFF701
:103A70006BFBFBE70F4B1B68D3B110B5FFF772F977
:103A80000D4BDB68DC68201DFFF704F90B4A136857
:103A9000013B1360074A1368013B1360FFF784F989
:103AA0002046FFF7CBFF034B1B68002BE6D110BD70
:103AB000704700BF281D00209C1D0020241D0020F1
:103AC00008B5FFF7D7FF074B1B68012BF9D94FF05B
:103AD000E0234FF08052C3F8042DBFF34F8FBFF3A4
:103AE0006F8FEEE7C418002070B504460D46174BE3
:103AF0001E68174B18680430FFF7CCF8B4F1FF3F8D
:103B00000DD03444124B1B685C60A64210D9114B97
:103B100018680F4B19680431FFF7A3F870BD002D2A
:103B2000EFD00B4B196804310B48FFF78FF8F5E71E
:103B30000A4B1868064B19680431FFF792F8084BD6
:103B40001B68A342EAD9064B1C60E7E7B01D0020C2
:103B5000B8180020C0180020881D0020BC180020C4
:103B6000681D002030B587B00B9C7CB10C9DB5B1B1
:103B70005C250495049D5C2D1AD04FF0500383F30F
:103B80001188BFF36F8FBFF34F8FFEE74FF05003E5
:103B900083F31188BFF36F8FBFF34F8FFEE74FF0B2
:103BA000500383F31188BFF36F8FBFF34F8FFEE78E
:103BB0000C9D2C63022485F859400024039402953F
:103BC00005AC01940A9C0094FFF760FE0C98FFF787
:103BD000DFFE059807B030BD2DE9F04385B00746FC
:103BE000884614461E469000FFF736FA00B3814619
:103BF0005C20FFF731FA0546B0B1C0F83090E5B16E
:103C0000002385F85930039302950D9B01930C9B7B
:103C100000933346224641463846FFF737FE284692
:103C2000FFF7B6FE012005E04846FFF78DFAE6E70C
:103C30004FF0FF3005B0BDE8F0834FF0FF30F9E7FB
:103C400010B588B000240594069407AA06A905A813
:103C5000FEF7D6FF059B0293069B01930094234633
:103C6000079A18491848FFF77DFF184B186040B1B4
:103C700000F04CFB012806D0B0F1FF3F18D008B08F
:103C800010BD0020F6E74FF0500383F31188BFF317
:103C90006F8FBFF34F8F0E4B4FF0FF321A600D4BFB
:103CA00001221A600C4B00221A60FFF7E5F8E6E7E4
:103CB0004FF0500383F31188BFF36F8FBFF34F8F23
:103CC000FEE700BF586F0008C13A0008641D0020DD
:103CD000681D0020841D0020B01D0020024A1368CA
:103CE00001331360704700BF301D0020014B18687E
:103CF000704700BFB01D0020F8B53A4B1B68002B81
:103D000064D1394B1D6801351D60C5B9374B1B683F
:103D10001B6843B14FF0500383F31188BFF36F8FDB
:103D2000BFF34F8FFEE7314A1168314B18681060BE
:103D30001960304A136801331360FFF791FD2E4B71
:103D40001B68AB4238D900272C4B1B68DB6A03EB9E
:103D500083039A002A4B9B58012B3CD901273AE058
:103D60000127224B1B681B6843B3204B1B68DB6891
:103D7000DC6863689D4226D3261D3046FEF78AFF25
:103D8000A36A1BB104F11800FEF784FFE36A1D4A21
:103D90001268934201D91B4A136003EB83039A0014
:103DA000314617481044FEF751FFE26A134B1B6877
:103DB000DB6A9A42D4D2D4E70027D2E70E4B4FF009
:103DC000FF321A60C0E70C4A1360BDE70E4A136861
:103DD0000133136000270D4B1B6803B101273846E0
:103DE000F8BD00BF301D0020B01D0020BC18002011
:103DF000C01800206C1D0020681D0020B81800208D
:103E0000C4180020381D00202C1D0020B41D0020E7
:103E100038B5354B1B6843B94FF0500383F3118815
:103E2000BFF36F8FBFF34F8FFEE7FEF79BFF2E4B65
:103E30001A68013A1A601B68002B4FD12B4B1B6884
:103E40000BB900244BE00024294B1B681BB3284B03
:103E5000DB68DC6804F11800FEF71CFF251D28460E
:103E6000FEF718FFE06A234B1B68984201D9214BEB
:103E7000186000EB800029461F4B03EB8000FEF723
:103E8000E5FEE26A1D4B1B68DB6A9A42DCD31C4BE1
:103E900001221A60D8E70CB1FFF7E2FC194B1C684D
:103EA00084B9174B1C68D4B14FF0E0234FF0805217
:103EB000C3F8042DBFF34F8FBFF36F8F01240EE0C3
:103EC000013C07D0FFF718FF0028F9D00C4B012266
:103ED0001A60F5E70B4B00221A60E2E70024FEF7B8
:103EE00063FF204638BD00BF301D0020241D002088
:103EF000701D0020381D0020C4180020B8180020B4
:103F0000B41D00202C1D002010B5A8B10446104B94
:103F10001B6843B14FF0500383F31188BFF36F8FD9
:103F2000BFF34F8FFEE7FFF7D9FE00212046FFF7D2
:103F3000DBFDFFF76DFF48B94FF0E0234FF08052F3
:103F4000C3F8042DBFF34F8FBFF36F8F10BD00BFB9
:103F5000301D00201F4B1B681BB11F4B01221A6034
:103F600070471D4B00221A601C4B1B6803EB83013A
:103F70008A001B498A585AB90BB1013BF6E74FF04A
:103F8000500383F31188BFF36F8FBFF34F8FFEE7AA
:103F900003EB830082000A4450684068506003EBE2
:103FA000830C4FEA8C020832114488420BD003EB99
:103FB000830291000A4A0A445268D168094A116092
:103FC000064A13607047406862469100044A0A44FA
:103FD0005060ECE7301D0020B41D0020381D00208B
:103FE000C4180020B818002058B110B50C46094A72
:103FF00011681831FEF735FE01212046FFF774FDE8
:1040000010BD4FF0500383F31188BFF36F8FBFF3E0
:104010004F8FFEE7B818002038B570B10D46144632
:104020000A4A11681831FEF711FE0CB14FF0FF3546
:1040300021462846FFF758FD38BD4FF0500383F363
:104040001188BFF36F8FBFF34F8FFEE7B8180020C2
:1040500038B5C368DC6824B304F118052846FEF7B8
:1040600019FE184B1B682BBB251D2846FEF712FEB8
:10407000E06A154B1B68984201D9134B186000EB9E
:1040800080002946114B03EB8000FEF7DFFDE26A5A
:104090000F4B1B68DB6A9A4211D901200D4B186047
:1040A00038BD4FF0500383F31188BFF36F8FBFF318
:1040B0004F8FFEE729460848FEF7C8FDE7E70020D6
:1040C000EEE700BF301D0020381D0020C41800207E
:1040D000B8180020B41D0020701D0020034B1B6881
:1040E0000360034B1B684360704700BF6C1D0020DA
:1040F000B01D0020D8B170B50C46054601B3FEF7DF
:1041000031FE1B4B19686B68C81A2268B2F1FF3F79
:1041100027D0184E3668D5F800C0B44501D08B4280
:1041200024D9824215D80023236001241AE04FF0DD
:10413000500383F31188BFF36F8FBFF34F8FFEE7F8
:104140004FF0500383F31188BFF36F8FBFF34F8F8E
:10415000FEE75B1A134423602846FFF7BFFF0024E5
:1041600000E00024FEF720FE204670BD0124F9E7A0
:10417000B01D00206C1D0020014B01221A60704709
:10418000B41D0020054B1B6833B1054B1B680BB1F8
:10419000002070470220704701207047841D0020D6
:1041A000301D002000283BD038B504461E4B1B684C
:1041B000834208D04FF0500383F31188BFF36F8F11
:1041C000BFF34F8FFEE7036D43B94FF0500383F306
:1041D0001188BFF36F8FBFF34F8FFEE7013B03657D
:1041E000C16AC26C91421DD00BB1002038BD051DC3
:1041F0002846FEF74FFDE06CE062C0F13803A36192
:104200000A4B1B68984201D9084B186000EB8000EC
:104210002946074B03EB8000FEF718FD0120E5E778
:10422000002070470020E1E7B8180020381D00206A
:10423000C4180020064B1A681368B3FA83F35B09AD
:10424000036013B9D368186870470020704700BF37
:10425000B81D002008B54160006191420CD8D21A07
:1042600083699A4201D3012008BD011D094B1868DA
:10427000FEF7F7FC0020F7E79A4201D2994206D2F6
:10428000011D054B1868FEF7ECFC0020ECE701204F
:10429000EAE700BFBC1D0020B81D002030B583B088
:1042A000FEF760FD114B1B681BB1FEF77DFD03B0EF
:1042B00030BD0F4D2846FEF7BBFC0E4C2046FEF7E6
:1042C000B7FC0D4B1D600D4B1C60002300930C4B85
:1042D0000C4A10210A20FFF762F8044B18600028EE
:1042E000E3D00949FFF77EFADFE700BFDC1E0020BC
:1042F000601E0020741E0020B81D0020BC1D002080
:104300008C1E0020C01D0020606F000810B588B012
:10431000FFF7C4FF124B1B68CBB100240594069431
:1043200007AA06A905A8FEF777FC059B0293069B42
:104330000193022300932346079A0A490A48FFF78C
:1043400011FC0A4B186010B1012008B010BD4FF0ED
:10435000500383F31188BFF36F8FBFF34F8FFEE7D6
:10436000DC1E0020686F00084D460008E01E00209B
:10437000B8B19C4603461848006858B300B585B0EC
:1043800000910192029305291CDCFFF7FBFE022835
:1043900010D000231A4669460F480068FFF748F816
:1043A00015E04FF0500383F31188BFF36F8FBFF315
:1043B0004F8FFEE70023069A694607480068FFF71B
:1043C00037F804E0002362466946FFF7F5F805B0C8
:1043D0005DF804FB00207047DC1E002070B582B041
:1043E0001A4B1B681A6852B3DB681E68DC68251D0F
:1043F0002846FEF74FFC636A20469847E369012B85
:10440000EED1A36933449E4207D2636024612946FA
:104410000E4B1868FEF725FCE2E7002100910B46E1
:1044200032462046FFF7A4FF0028D9D14FF05003B1
:1044300083F31188BFF36F8FBFF34F8FFEE7044AFA
:10444000106802490860136002B070BDB81D0020FA
:10445000BC1D002038B50546FFF748FC0446074B55
:104460001B68834205D800232B60044B1C60204648
:1044700038BDFFF7B3FF01232B60F6E7881E00204D
:1044800070B582B006460D4614490968C968CC6803
:10449000201DFEF7FFFBE169012904D0636A204675
:1044A000984702B070BDA16933462A463144204680
:1044B000FFF7D0FE0028F1D0002100910B463246D4
:1044C0002046FFF755FF0028E8D14FF0500383F353
:1044D0001188BFF36F8FBFF34F8FFEE7B81D002029
:1044E00070B582B006460C46FFF7F8FB01A8FFF74F
:1044F000B1FF019B2BBB05460CB9B0421AD22CB1BF
:10450000124B1B681C68B4FA84F464092246711BC0
:104510000F4B1868FFF77AF9FFF77AFC98B94FF05C
:10452000E0234FF08052C3F8042DBFF34F8FBFF349
:104530006F8F08E0FFF76CFC29463046FFF7A0FFBD
:1045400001E0FFF765FC02B070BD00BFBC1D00209C
:10455000DC1E002010B588B002E0049B002B0FDAAF
:10456000002204A9384B1868FFF78CF8002869D09E
:10457000049B002BF1DA07990698059B9847ECE716
:10458000069C636913B1201DFEF784FB03A8FFF7A7
:1045900061FF049B092BE3D801A252F823F000BF6E
:1045A000C9450008C9450008C9450008614500081B
:1045B0000F46000835460008C9450008C9450008EF
:1045C000614500080F460008059BA1690246194491
:1045D0002046FFF73FFE0028C2D0636A2046984776
:1045E000E369012BBCD1A269002100910B4605981B
:1045F00002442046FFF7BCFE0028B1D14FF0500323
:1046000083F31188BFF36F8FBFF34F8FFEE70599D8
:10461000A16131B10346024601442046FFF71AFE6C
:104620009EE74FF0500383F31188BFF36F8FBFF302
:104630004F8FFEE794F82C30002B91D12046FEF7E7
:1046400083FD8DE708B010BDDC1E002000B583B0EF
:1046500001A8FFF7EFFD0199FFF742FFFFF77AFF8F
:10466000F6E70000014B1868704700BF1C000020EF
:1046700070B50D4E0D4D761BB61006D0002455F8C2
:10468000043B01349847A642F9D1094E094D02F086
:1046900001FC761BB61006D0002455F8043B01340B
:1046A0009847A642F9D170BD5071000850710008BA
:1046B0005871000850710008830730B548D0541E67
:1046C000002A3FD00346CAB201E0013C3AD303F8C6
:1046D000012B9D07F9D1032C2DD9CDB245EA052533
:1046E0000F2C45EA054536D9A4F1100222F00F0C33
:1046F00003F1200EE6444FEA121C03F1100242E9D6
:10470000045542E9025510327245F8D10CF101020C
:1047100014F00C0F03EB021204F00F0C13D0ACF1E9
:10472000040323F003030433134442F8045B93426D
:10473000FBD10CF003042CB1CAB21C4403F8012BCA
:104740009C42FBD130BD64461346002CF4D1F9E7FE
:1047500003461446BFE71A46A446E0E7024B13B1EE
:10476000024800F005B87047000000007D470008CF
:10477000002301461A46184600F01AB838B5084B0F
:10478000084D5B1B9C1007D0043B1D44013C55F8B1
:1047900004399847002CF9D1BDE8384002F080BBBD
:1047A0005C71000858710008704700BF704700BF77
:1047B0002DE9F047DFF87CA00646DAF800009846BD
:1047C0000F469146FFF7F0FF1B4B1B68D3F848419B
:1047D00024B365681F2D26DC5EB96B1C0235DAF840
:1047E0000000636044F82570FFF7E0FF0020BDE89B
:1047F000F087012304EB8501C1F88890D4F8882163
:10480000AB401A43022EC4F88821C1F80881E4D1D4
:10481000D4F88C211343C4F88C31DEE703F5A67479
:10482000C3F84841D5E7DAF80000FFF7BFFF4FF0C3
:10483000FF30DCE748040020706F000810B5294CF9
:1048400021F00043A34286B020DD274A934209DDD0
:1048500002460B46FBF780FC02460B461046194603
:1048600006B010BD02AA01F0D7F800F0030001283D
:1048700018D002282AD0F0B1DDE90423DDE90201D5
:1048800001F0BAFB024601F10043E7E700240022F1
:104890000023009402F000F902460B461046194628
:1048A00006B010BDDDE90423DDE9020101F0A4FB3F
:1048B00002460B46D2E70124DDE90423DDE90201CB
:1048C000009402F0E9F802460B46C7E70124DDE94F
:1048D0000423DDE90201009402F0DEF8024601F152
:1048E0000043BBE7FB21E93FFFFFEF7FF8B504463C
:1048F0000D4600F0B9F8224606460F462B462046E4
:104900002946FCF719F940B92046294602F0B6F9C4
:104910000022084BFCF768F810B930463946F8BD5C
:10492000FFF7A0FE2122034603481A60BDE8F840C5
:1049300002F02ABA0000F03F5C6F00082DE9F8434E
:1049400014461D468046894600F0E2FA2246064695
:104950000F462B4620462946FCF7EEF878B9002290
:10496000002340464946FCF717F8D8B1002200233F
:1049700020462946FCF710F828B10026254F30467E
:104980003946BDE8F8832046294602F07BF9002825
:10499000F5D02046294600220023FCF707F800281E
:1049A000EDD02CE03046394602F06CF9A0B100227F
:1049B000002330463946FBF7EFFF0028DFD04046A2
:1049C000494602F05FF90028D9D02046294602F076
:1049D00059F90028D3D012E04046494602F052F976
:1049E0000028E4D02046294602F04CF90028DED009
:1049F00032463B4630463946FCF79EF820B9FFF771
:104A000031FE22230360BAE7FFF72CFE2123036067
:104A1000B5E700BF0000F03FF8B504460D4601F0D1
:104A200025FA224606460F462B4620462946FCF725
:104A300083F830B92046294600220023FBF7B6FF51
:104A400010B930463946F8BDFFF70CFE00220023AE
:104A50002121016010461946FBF760FE06460F460D
:104A600030463946F8BD00BF2DE9F84FC44E21F05D
:104A70000043B34204460D460DDD03F1404303F508
:104A80008013034340F0B980002940F3C080002028
:104A90000021BDE8F88FBB4EB34208DCBA4A93420E
:104AA00000F3BA809CA1D1E90001BDE8F88F00298C
:104AB000C0F2708102462B460020B449FBF74CFB44
:104AC0000022B34BFBF700FD04460D4601F0CEF982
:104AD00093A3D3E900238946804629462046FBF765
:104AE000F3FC91A3D3E90023FBF738FB22462B46C6
:104AF000FBF7EAFC8EA3D3E90023FBF72DFB22464C
:104B00002B46FBF7E1FC8CA3D3E90023FBF726FB44
:104B100022462B46FBF7D8FC89A3D3E90023FBF7F9
:104B20001BFB22462B46FBF7CFFC87A3D3E90023D0
:104B3000FBF714FB22462B46FBF7C6FC84A3D3E904
:104B4000002382468B4620462946FBF7BDFC82A304
:104B5000D3E90023FBF700FB22462B46FBF7B4FC0E
:104B60007FA3D3E90023FBF7F9FA22462B46FBF794
:104B7000ABFC7DA3D3E90023FBF7EEFA22462B46DC
:104B8000FBF7A2FC0022814BFBF7E8FA02460B463A
:104B900050465946FBF7C2FD42464B46FBF794FC94
:104BA000002682468B4632464B4630464946FBF746
:104BB0008BFC02460B4620462946FBF7CDFA3246CF
:104BC00004460D464B4640464946FBF7C7FA0246A7
:104BD0000B4620462946FBF7A1FD02460B465046F0
:104BE0005946FBF7BBFA32464B46FBF7B7FA02468B
:104BF0000B46FBF7B3FABDE8F88F02460B46FBF70E
:104C0000ABFA02460B46FBF789FDBDE8F88F58A1C9
:104C1000D1E90001BDE8F88F02460B46FBF754FCD2
:104C20003FA3D3E9002306460F46FBF74DFC3EA306
:104C3000D3E90023FBF792FA32463B46FBF744FCEC
:104C40003BA3D3E90023FBF787FA32463B46FBF749
:104C50003BFC39A3D3E90023FBF780FA32463B46FD
:104C6000FBF732FC36A3D3E90023FBF775FA324693
:104C70003B46FBF729FC34A3D3E90023FBF76EFA8C
:104C800032463B46FBF720FC31A3D3E900238046A4
:104C9000894630463946FBF717FC2FA3D3E900239A
:104CA000FBF75AFA32463B46FBF70EFC2CA3D3E93E
:104CB0000023FBF753FA32463B46FBF705FC2AA3D9
:104CC000D3E90023FBF748FA32463B46FBF7FCFBEF
:104CD00000222E4BFBF742FA02460B46404649465D
:104CE000FBF71CFD22462B46FBF7EEFB02460B466C
:104CF00021A1D1E90001FBF72FFA02460B4620461D
:104D00002946FBF729FA02460B4603A1D1E9000127
:104D1000FBF722FABDE8F88F182D4454FB21F93F28
:104D200009F7FD0DE13D023F88B20175E0EF493F13
:104D30003B8F68B52882A43F5544880E55C1C93FB2
:104D40007D6FEB0312D6D43F555555555555C53F8C
:104D500082922EB1C5B8B33F59018D1B6C06E63F58
:104D6000C88A599CE52A00404B2D8A1C273A0340EB
:104D7000182D4454FB210940075C143326A6913CAE
:104D8000FFFFEF3FFFFFDF3F0000603C0000F03F10
:104D90000000E03F00225C4BFBF7E0F900225B4B98
:104DA000FBF792FB40A3D3E9002304460D46FBF733
:104DB0008BFB3FA3D3E90023FBF7D0F922462B4618
:104DC000FBF782FB3CA3D3E90023FBF7C5F922469E
:104DD0002B46FBF779FB3AA3D3E90023FBF7BEF997
:104DE00022462B46FBF770FB37A3D3E90023FBF7E2
:104DF000B3F922462B46FBF767FB35A3D3E9002323
:104E0000FBF7ACF922462B46FBF75EFB8046894652
:104E10002046294601F02AF82FA3D3E900230646AD
:104E20000F4620462946FBF74FFB2DA3D3E900236D
:104E3000FBF792F922462B46FBF746FB2AA3D3E960
:104E40000023FBF78BF922462B46FBF73DFB28A3FB
:104E5000D3E90023FBF780F922462B46FBF734FB0E
:104E60000022294BFBF77AF902460B464046494699
:104E7000FBF754FC32463B46FBF726FB1EA3D3E967
:104E80000023FBF769F932463B46FBF767F9024618
:104E90000B46FBF763F902460B4619A1D1E9000165
:104EA000FBF75AF9BDE8F88F09F7FD0DE13D023F28
:104EB00088B20175E0EF493F3B8F68B52882A43F77
:104EC0005544880E55C1C93F7D6FEB0312D6D43FC0
:104ED000555555555555C53F82922EB1C5B8B33F6E
:104EE00059018D1B6C06E63FC88A599CE52A004093
:104EF0004B2D8A1C273A0340075C143326A6913CAD
:104F0000182D4454FB2109400000F03F0000E03F11
:104F10002DE9F04F23F0004B80465BEA0200144677
:104F20001D460E4693B016D143467D49DB1886F4E4
:104F300000225241984271EB020324D2404622469D
:104F40002B463146FBF70AF9CDE90001DDE9000106
:104F500013B0BDE8F08F1146724A26F00049914522
:104F60009A463746434617DD07F1404707F5801755
:104F70001F43E3D122196A4985F400235B4197421C
:104F800071EB0303DAD30023674CCDE90034DDE98C
:104F9000000113B0BDE8F08F40D0624A9345E3DCD6
:104FA00000F09380002F73DB0022029279B95D4AF2
:104FB000934500F08E805C4A934500F0A280BAF1E0
:104FC000804F00F0A084594A924500F0C6834046C5
:104FD0003146049301F052FE049BCDE900015BB31E
:104FE000029AFB0F013B0A93134300F09380504B4E
:104FF0009B4540F3A38003F104739B454D4B40F365
:105000001B84994540F39184BAF1000F40F39184D9
:10501000002013B0BDE8F04F01F02ABE002B8DD167
:10502000BBE740463146029301F028FE029BCDE9E2
:105030000001002B6ED10293B9F1000F04D03A4B5E
:1050400027F040429A42CBD1BAF1000F07DADDE9EE
:10505000002300203449FBF761FBCDE90001002F5C
:10506000BFF674AF029B09F1404909F5801959EA6E
:10507000030340F06E84DDE9002310461946FBF778
:105080006BF802460B46FBF749FBCDE900015DE7F3
:10509000294A93452FDCA2F1547293450FDD4FEA64
:1050A0002B52A2F2FF32142A40F34584C2F134029B
:1050B00021FA02F000FA02F28A4200F0778400221C
:1050C000029200293FF477AF81E700293FF46AAFED
:1050D0004AE709F1404202F5801213433FF453AF0F
:1050E000144B994540F36D83BAF1000FC0F263830E
:1050F000CDE900452AE70222029200293FF457AF8A
:1051000065E7BAF1000FC0F2F48340463146CDE9BD
:1051100000011BE74246404633463146AFE700BF39
:105120000000F0FF0000F07F0000F03F0000E03FD3
:105130000000E041FFFFEF3FFFFF3F43D44B3B4008
:10514000002B40F04783DDE900010022D14BFBF743
:10515000BBF96FF034028946CDE900014FEA2953CB
:10516000A3F2FF339A18CC4BC9F3130949F07F56C9
:1051700099450B9246F4401607DDC84B994540F31C
:10518000F58301320B92A6F5801600220023002041
:105190000027C349CDE90823CDE90601CDE9102355
:1051A000DDE90001DDE9062331468246FAF7D4FF46
:1051B000DDE90623B3468046894650463146CDE9AF
:1051C0000CABFAF7CBFF02460B460020B449FBF7C5
:1051D000A5FA8C46834663465A4640464946CDE981
:1051E0000EBCFBF771F982468B46731043F00053F7
:1051F00003F50023D9190F465A46514600230020D3
:10520000CDE900120093064602463B46CDE904ABC9
:10521000DDE900AB50465946FBF756F902460B460E
:1052200040464946FAF798FFDDE90623804689465D
:1052300030463946FAF790FF02460B46DDE90C018D
:10524000FAF78AFF52465B46FBF73EF902460B46E9
:1052500040464946FAF780FFDDE90E23FBF734F9B3
:10526000DDE90467CDE9060132463B463046394662
:10527000FBF72AF974A3D3E9002306460F46FBF790
:1052800023F973A3D3E90023FAF768FF32463B46BC
:10529000FBF71AF970A3D3E90023FAF75FFF324650
:1052A0003B46FBF711F96EA3D3E90023FAF756FF4B
:1052B00032463B46FBF708F96BA3D3E90023FAF724
:1052C0004DFF32463B46FBF7FFF869A3D3E90023C5
:1052D000FAF744FF3246804689463B463046394617
:1052E000FBF7F2F802460B4640464946FBF7ECF85E
:1052F00006460F46DDE9040152465B46FAF72EFFEB
:10530000DDE90623FBF7E0F832463B46FAF726FFD5
:105310005246804689465B4650465946FBF7D4F8CC
:1053200002460B46CDE90C2300225E4BFAF716FF2E
:1053300042464B46FAF712FF00260F4632463B46DE
:1053400050465946FBF7C0F8002282468B4630464D
:105350003946544BFAF700FFDDE90C23FAF7FCFE5F
:1053600002460B4640464946FAF7F6FEDDE90423BD
:10537000FBF7AAF8324680468946DDE906013B463E
:10538000FBF7A2F802460B4640464946FAF7E6FE0E
:1053900080468946002642464B4650465946FAF713
:1053A000DDFE35A3D3E9002330460F46FBF78CF82A
:1053B00052465B4682468B4630463946FAF7CCFE6B
:1053C00002460B4640464946FAF7C6FE2CA3D3E9EF
:1053D0000023FBF779F802460B463046394616465D
:1053E0001F4629A3D3E90023FBF76EF802460B46BC
:1053F00030463946FAF7B2FEDDE91023FAF7AEFE81
:1054000006460B980F46FAF7F5FF80468946324666
:105410003B4650465946CDE904ABFAF79FFEDDE91D
:105420000823FAF79BFE4FF0000A42464B46FAF774
:1054300095FE42464B4650468B46FAF78DFEDDE917
:105440000823FAF789FE2FE0EF4E454A287ECA3F2F
:1054500065DBC9934A86CD3F01411DA96074D13FE8
:105460004D268F515555D53FFFAB6FDBB66DDB3FFA
:10547000033333333333E33F000000E009C7EE3F2B
:10548000FD033ADC09C7EE3FF5015B14E02F3EBE99
:105490000000F07F000040438E98030079B60B00B7
:1054A0000000F03F00000840DDE90423FAF754FE55
:1054B00002460B4630463946FAF74EFE029B0A9AE0
:1054C000013B13434FF000020CBFD54BD54BCDE948
:1054D0000045CDE9022300230093DDE90089CDE9F1
:1054E000040142464B4620462946FAF735FE52460D
:1054F0005B46FAF7E9FF224606460F46DDE904015E
:105500002B46FAF7E1FF02460B4630463946FAF7DA
:1055100025FE42464B4606460F4650465946FAF788
:10552000D3FF04460D4630462B4639462246FAF74D
:1055300015FEBD4B8046994289468A4640F3178145
:1055400001F13F4303F5E003034340F02482A2A3AB
:10555000D3E9002330463946FAF700FE02460B46EF
:10556000404649469046994622462B46FAF7F4FDB6
:1055700002460B4640464946FBF736FA002840F003
:105580000A82CAF30A534FF480120020A3F2FE33BA
:1055900042FA03F35344A549C3F30A52A2F2FF327D
:1055A00041FA02FCC3F3130B23EA0C01C2F114020B
:1055B0004BF4801BBAF1000F0B464BFA02FB294655
:1055C00002462046B8BFCBF1000BFAF7C5FD0446F2
:1055D0000D463046394622462B46FAF7BFFD89462E
:1055E0004FEA0B5A4FF000087DA3D3E90023404651
:1055F0004946FAF769FF22462B4604460D464046C7
:105600004946FAF7A9FD02460B4630463946FAF7F5
:10561000A3FD75A3D3E90023FAF756FF74A3D3E9DA
:10562000002306460F4640464946FAF74DFF02461C
:105630000B4630463946FAF791FD80468946424688
:105640004B4620462946FAF789FD22462B46064658
:105650000F46FAF781FD02460B4640464946FAF7E7
:105660007BFD3246804689463B4630463946FAF74E
:105670002BFF61A3D3E9002304460D46FAF724FF6C
:105680005FA3D3E90023FAF767FD22462B46FAF71A
:105690001BFF5DA3D3E90023FAF760FD22462B46EA
:1056A000FAF712FF5AA3D3E90023FAF755FD224671
:1056B0002B46FAF709FF58A3D3E90023FAF74EFD6A
:1056C00022462B46FAF700FF02460B463046394683
:1056D000FAF742FD04460D4622462B46304639462F
:1056E000FAF7F2FE02460B462046294614461D46AE
:1056F00000224FF08043FAF72FFD02460B4620466A
:105700002946FBF70BF8424604460D464B46304609
:105710003946FAF7D9FE42464B46FAF71FFD0246D4
:105720000B4620462946FAF717FD32463B46FAF764
:1057300013FD02460B4600203A49FAF70DFD8A4454
:10574000BAF5801FC0F223815146DDE90223FAF742
:10575000BBFECDE90001FFF7F9BB002FFFF637AC28
:105760004046314613B0BDE8F04F00F07FBBDFF894
:10577000C0C021F00043634540F3CF802D4B0B4464
:1057800003430AD122462B46FAF7E6FC32463B4653
:10579000FBF720F900283FF4F4AEDDE90201002216
:1057A0000023FBF703F9003818BF012013B0BDE850
:1057B000F04F01F057BA00230024CDE90034FFF781
:1057C000C5BBBAF1000FF6DA05F10043009401936E
:1057D000FFF7BCBB0022C1E4FE822B654715973C56
:1057E00000000000432EE63FEF39FAFE422EE63F6E
:1057F000396CA80C615C20BED0A4BE726937663ECD
:10580000F16BD2C541BDBB3E2CDE25AF6A56113FC0
:1058100093BDBE166CC1663F3E5555555555C53FA7
:105820000000F0BF0000F03FFFFF8F40FFFF0F00C0
:10583000FFCB904000346F3F994576DB724B994522
:105840003FF7E2ABDDE9000100226F4BFAF784FC81
:1058500061A3D3E9002306460F46FAF735FE60A39D
:10586000D3E9002382468B4630463946FAF72CFEB0
:105870000022CDE90001654B30463946FAF724FE97
:1058800002460B4658A1D1E90001FAF765FC324601
:105890003B46FAF719FE02460B4600205C49FAF730
:1058A0005BFC32463B468046894630463946FAF72D
:1058B0000BFE02460B4640464946FAF705FE4CA34E
:1058C000D3E90023FAF700FE02460B46DDE90001AA
:1058D000FAF742FC06460F465046594632463B46CA
:1058E000FAF73CFC52464FF0000A5B4650468B46A6
:1058F000DCE54246002033464349FAF70FFFCDE985
:105900000001FFF723BB4246404633463146FAF7D3
:10591000DBFDCDE90001FFF719BB3D4A934256DCA0
:10592000DDE90023924693465CE6BAF1000FFFF6EC
:105930006FAB00203AE700297FF473ABC2F1140289
:105940004BFA02F000FA02F25A4539D00291FFF701
:1059500032BB029B012B7FF4F9AADDE90045224608
:1059600005F10043CDE90023FFF7F0BA0022294BEF
:105970004FF48027CDE906231FA3D3E90023CDE907
:1059800008231FA3D3E90023CDE9102308E45A46D6
:1059900001F002FAD9E60022DDE902010023FBF75B
:1059A00005F8003818BF0120FFF733BB00F00100F5
:1059B000C0F10202029200293FF4FDAAFFF707BBE3
:1059C00000F00100C0F102020292FFF7F4BA1B15C9
:1059D000D9E500BFAFF30080000000604715F73F36
:1059E00044DF5DF80BAE543E555555555555D53FE2
:1059F000FE822B654715F73F0000004003B8E23FE9
:105A000006D0CF43EBFD4C3E0000F03F0000D03FFE
:105A10000000E03F0000F83F2DE9F04FDFF838C20A
:105A200021F000456545064614468FB040F3858059
:105A30008A4A0F46954226DC7DA3D3E9002300293C
:105A400040F3C081FAF788FB854B80469D4289462A
:105A500000F08A8078A3D3E90023FAF77DFB0246A1
:105A60000B464046C4E900234946FAF775FB72A38A
:105A7000D3E90023FAF770FB0126C4E9020130469E
:105A80000FB0BDE8F08F774A954240F38D80764A9B
:105A900095425FDC4FEA2558A8F21648A5EB08515D
:105AA0008B46FAF7ABFFFAF7A5FC02460B463046E9
:105AB0005946CDE90823FAF74FFB00226B4BFAF762
:105AC00003FD8B468246FAF799FF0546FAF792FCEA
:105AD00002460B4650465946CDE90A23FAF73CFBED
