:020000040800F2
:1000000000500020F1060008810400088304000865
:100010008504000887040008890400080000000027
:10002000000000000000000000000000A11B00080C
:100030008B04000800000000D11B0008151C0008FC
:100040003907000839070008390700083907000890
:100050003907000839070008390700083907000880
:100060003907000839070008390700083907000870
:100070003907000839070008390700083907000860
:100080003907000839070008390700083907000850
:100090003907000839070008390700088D040008EF
:1000A0003907000839070008390700083907000830
:1000B0003907000839070008A904000839070008B3
:1000C0003907000839070008390700083907000810
:1000D00039070008B9040008C9040008D904000859
:1000E0003907000839070008390700080000000038
:1000F0000000000000000000000000000000000000
:0C01000000000000000000005FF808F1A3
:1001100010B5054C237833B9044B13B10448AFF341
:1001200000800123237010BD3C040020000000006B
:10013000E41F000808B5034B1BB103490348AFF3A4
:10014000008008BD0000000040040020E41F0008FB
:1001500070B588B000240494059406940794204B4D
:100160009A6942F020029A619A6902F02002019293
:10017000019A9A6942F004029A619A6902F00402B3
:100180000292029A9A6942F008029A619B6903F00E
:1001900008030393039B134D22464021284600F099
:1001A000DFFC402304930126059602230693079360
:1001B00004A9284600F0C2FB4FF4607304930A4B75
:1001C0000593069604A9284600F0B8FB22460521AF
:1001D000172000F0FDFA172000F032FB08B070BDC8
:1001E00000100240000C014000003110B0F5007F0B
:1001F00000D0704710B5074C01224021204600F086
:10020000AFFC0A2000F0BEFA00224021204600F098
:10021000A7FC10BD000C014008B50268034B9A42D0
:1002200000D008BD00F09CFAFBE700BF00080040CA
:1002300072B6FEE700B591B02822002106A801F0B1
:100240000FFE00230193029303930493059301226D
:1002500006924FF4803307930A9202220D920E9376
:100260004FF4E0130F9306A800F0A4FC80B90F230D
:10027000019302210291002303934FF480620492C0
:10028000059301A800F0C8FE20B911B05DF804FB89
:10029000FFF7CEFFFFF7CCFF08B500F04FFAFFF7EE
:1002A000C9FFFFF755FF00F021F900F039F900F020
:1002B00051F90C4C01224021204600F051FC6420F1
:1002C00000F060FA00224021204600F049FC4FF483
:1002D00096724FF4FA71022000F014F800F050F812
:1002E000F5E700BF000C0140002305E012F800C054
:1002F00063449BB20130C0B28842F7D9D843C0B240
:100300007047000030B585B005468E46144601287A
:1003100025D0194BEC460FCBACE807008CF8003029
:100320008DF802504FEA1E238DF806308DF807E055
:10033000230A8DF80A308DF80B406A460B21022003
:10034000FFF7D2FF8DF80C000A230D2269460B48F7
:1003500001F0D8F9012000F015FA05B030BDB1F573
:10036000967F05D3B1F52F7FD3D94FF42F7ED0E7F9
:100370004FF4967ECDE700BFFC1F0008300500203B
:1003800000B583B0084B93E803000090ADF804106B
:100390000A2306226946054801F0B4F9012000F05D
:1003A000F1F903B05DF804FB0C20000830050020D3
:1003B00000B583B0114B9A6942F001029A619A69C3
:1003C00002F001020092009ADA6942F08052DA618A
:1003D000DB6903F080530193019B00220F216FF032
:1003E000010000F0F5F9064A536823F0E06343F09A
:1003F0000073536003B05DF804FB00BF00100240BF
:100400000000014000B589B0014600221E2000F026
:10041000DFF91E2000F014FA154BDA6942F00402ED
:10042000DA61DB6903F004030193019B02A903A8CD
:1004300000F0CEFE00F0ACFE43000E48A0FB03230C
:100440009B0C013B0C480D4A026040F2E732C2604F
:10045000436000230361836001F00AF818B10120B2
:1004600009B05DF804FB044800F0D2FEF8E700BFD5
:100470000010024083DE1B435804002000080040A7
:10048000FEE7FEE7FEE7FEE7FEE7704708B58020DF
:1004900000F06CFB4FF4807000F068FB4FF40070CC
:1004A00000F064FB08BD000008B5024800F0E8FE5B
:1004B00008BD00BF5804002008B5024801F00EFA3C
:1004C00008BD00BFA004002008B5024801F006FAEC
:1004D00008BD00BFE804002008B5024801F0FEF99D
:1004E00008BD00BF300500207047000008B50A486D
:1004F0000A4B03604FF4E133436000238360C36021
:1005000003610C2242618361C36101F0CBF800B941
:1005100008BDFFF78DFEFBE7A00400200038014076
:1005200008B50A480A4B03604FF4E13343600023E7
:100530008360C36003610C2242618361C36101F087
:10054000B1F800B908BDFFF773FEFBE7E80400202F
:100550000044004008B50A480A4B03604FF4E133F9
:10056000436000238360C36003610C2242618361A6
:10057000C36101F097F800B908BDFFF759FEFBE72A
:10058000300500200048004030B58BB000230693B2
:1005900007930893099303684F4A934207D04F4A41
:1005A000934236D04E4A934263D00BB030BD4D4B90
:1005B0009A6942F480429A619A6902F480420092F8
:1005C000009A9A6942F004029A619B6903F004035D
:1005D0000193019B4FF400730693022307930323B7
:1005E0000993414D06A9284600F0A8F94FF480630D
:1005F000069300240794089406A9284600F09EF963
:1006000022460521252000F0E3F8252000F018F906
:10061000CBE7344BDA6942F40032DA61DA6902F48A
:1006200000320292029A9A6942F004029A619B692E
:1006300003F004030393039B04230693022307930D
:1006400003230993284D06A9284600F077F90823CB
:10065000069300240794089406A9284600F06EF932
:1006600022460521262000F0B3F8262000F0E8F805
:100670009BE71C4BDA6942F48022DA61DA6902F402
:1006800080220492049A9A6942F008029A619B6956
:1006900003F008030593059B4FF480630693022340
:1006A000079303230993114D06A9284600F046F944
:1006B0004FF40063069300240794089406A9284683
:1006C00000F03CF922460521272000F081F8272080
:1006D00000F0B6F869E700BF003801400044004070
:1006E000004800400010024000080140000C01409A
:1006F000FFF7FAFE0B480C490C4A002302E0D458DD
:10070000C4500433C4188C42F9D3094A094C00235D
:1007100001E013600432A242FBD301F07DFBFFF73E
:10072000BBFD7047000000203C0400205020000862
:100730003C040020080A0020FEE7000008B5074A34
:10074000136843F010031360032000F02FF80F200C
:10075000FFF758FEFFF72CFE002008BD00200240E6
:10076000034A1168034B1B780B441360704700BFAA
:100770007805002004000020014B1868704700BF76
:100780007805002038B50446FFF7F6FF0546B4F1BA
:10079000FF3F02D0044B1B781C44FFF7EDFF401BCA
:1007A000A042FAD338BD00BF04000020074AD36836
:1007B00023F4E0631B041B0C000200F4E06003431D
:1007C00043F0BF6343F40033D360704700ED00E0B3
:1007D00000B5194BDB68C3F30223C3F1070CBCF16E
:1007E000040F28BF4FF0040C03F1040EBEF1060FF6
:1007F00018D9033B4FF0FF3E0EFA0CFC21EA0C0126
:1008000099400EFA03F322EA0303194300280BDB95
:100810000901C9B200F1604000F5614080F80013A1
:100820005DF804FB0023E5E700F00F000901C9B201
:10083000024B1954F4E700BF00ED00E014ED00E0B6
:10084000002807DB00F01F02400901239340024A01
:1008500042F82030704700BF00E100E090F82130FE
:10086000DBB2022B06D004238363002380F8203000
:10087000012070470268136823F00E0313600268BA
:10088000136823F001031360036CC16B012202FAA9
:1008900003F34B6080F82120002380F820301846B5
:1008A0007047000008B590F82130DBB2022B03D06E
:1008B00004238363012008BD0268136823F00E033C
:1008C00013600268136823F0010313600368194A78
:1008D000934214D0143293421FD0143293421ED04C
:1008E000143293421ED0143293421ED014329342DB
:1008F00002D04FF0807203E04FF4801200E001223A
:100900000D4B5A60012380F82130002380F82030FD
:10091000436B6BB198470020CDE71022F0E74FF40E
:100920008072EDE74FF48052EAE74FF48032E7E758
:100930000020C0E7080002400000024070B582B00D
:100940000024A446A6E0804DAA4210D007D97F4DCE
:10095000AA420CD005F58035AA4208D013E0A5F5CF
:100960008015AA4203D005F57025AA4207D18A68EE
:10097000002A58D0012A51D04361082403E0A5F58C
:100980008015AA42F3D0BEF1FF0F4ED80646BEF145
:10099000FF0F4CD84FEA8C0233680F25954023EAAD
:1009A000050304FA02F2134333604B6813F0805FCF
:1009B0006ED0674B9A6942F001029A619B6903F01D
:1009C00001030193019B4FEA9C02951C614B53F874
:1009D00025600CF003039D000F23AB4026EA0306BD
:1009E0005D4B984229D003F58063984200F08E80D9
:1009F00003F58063984200F08B8003F58063984292
:100A000019D004231AE0CC68BDE7CC680434BAE7F7
:100A1000CC680834B7E7CC680C34B4E70361082429
:100A2000B1E70024AFE70424ADE7061DAFE7ACF162
:100A300008029200B0E7032300E00023AB403343F9
:100A40000232444D45F822304B6813F4801F61D0C8
:100A5000424A936843EA0E0393604B6813F4001F05
:100A60005ED03E4AD36843EA0E03D3604B6813F46A
:100A7000003F5BD0394A536843EA0E0353604B682A
:100A800013F4803F58D0354A136843EA0E031360CD
:100A90000CF1010C0A6832FA0CF353D0012303FA6B
:100AA0000CF302EA030E33EA0202F1D14A68122A79
:100AB0003FF649AF122A3FF666AF01A555F822F07E
:100AC0006F090008070A0008110A0008230A000835
:100AD00087090008870900088709000887090008B6
:100AE00087090008870900088709000887090008A6
:100AF0008709000887090008870900088709000896
:100B0000870900080B0A0008170A0008012395E767
:100B1000022393E7114A936823EA0E0393609CE74C
:100B20000E4AD36823EA0E03D3609FE70B4A53684B
:100B300023EA0E035360A2E7084A136823EA0E0370
:100B40001360A5E702B070BD000022100000311054
:100B50000010024000000140000801400004014074
:100B60000AB10161704709040161704708B5054B7E
:100B70005B69034200D108BD024B5861FFF736FBA9
:100B8000F9E700BF0004014082B0084B1B68084A27
:100B9000A2FB03235B0A00FB03F3019300BF019B4D
:100BA0005A1E0192002BF9D102B0704700000020BC
:100BB000D34D6210002800F0F18170B582B0044678
:100BC000036813F0010F2CD0994B5B6803F00C0302
:100BD000042B1DD0964B5B6803F00C03082B12D03E
:100BE0006368B3F5803F41D0002B55D103F18043BA
:100BF00003F504331A6822F480321A601A6822F46A
:100C000080221A6037E08A4B5B6813F4803FE7D09C
:100C1000874B1B6813F4003F03D06368002B00F080
:100C2000BF81236813F0020F75D0814B5B6813F00E
:100C30000C0F5FD07E4B5B6803F00C03082B54D085
:100C40002369002B00F08A807A4B01221A60FFF79B
:100C500093FD0546764B1B6813F0020F75D1FFF725
:100C60008BFD401B0228F5D903209EE1704A1368D2
:100C700043F480331360636843B3FFF77DFD05469B
:100C80006B4B1B6813F4003FCBD1FFF775FD401B86
:100C90006428F5D9032088E1B3F5A02F09D0644B6F
:100CA0001A6822F480321A601A6822F480221A60CC
:100CB000E1E703F18043A3F53C331A6842F4802254
:100CC0001A601A6842F480321A60D4E7FFF754FDC4
:100CD0000546574B1B6813F4003FA2D0FFF74CFDAD
:100CE000401B6428F5D903205FE1514B5B6813F486
:100CF000803FA5D14E4B1B6813F0020F03D0236930
:100D0000012B40F04F814A4A136823F0F8036169D0
:100D100043EAC1031360236813F0080F33D0A369BB
:100D2000002B5CD0434B0122C3F88024FFF724FD45
:100D300005463F4B5B6A13F0020F21D1FFF71CFD04
:100D4000401B0228F5D903202FE1394A136823F00C
:100D5000F803616943EAC1031360DCE7354B002205
:100D60001A60FFF709FD0546314B1B6813F0020FAF
:100D7000D1D0FFF701FD401B0228F5D9032014E173
:100D80000120FFF701FF236813F0040F00F09680A5
:100D9000274BDB6913F0805F34D1254BDA6942F0D1
:100DA0008052DA61DB6903F080530193019B0125D6
:100DB000214B1B6813F4807F26D0E368012B3DD0C4
:100DC000002B53D103F1804303F504331A6A22F058
:100DD00001021A621A6A22F004021A6233E0154B09
:100DE0000022C3F88024FFF7C7FC0546104B5B6A5E
:100DF00013F0020FC7D0FFF7BFFC401B0228F5D944
:100E00000320D2E00025D3E70B4A136843F4807334
:100E10001360FFF7B1FC0646074B1B6813F4807F95
:100E2000CBD1FFF7A9FC801B6428F5D90320BCE0D7
:100E30000010024000004242007000405F4A136A06
:100E400043F001031362E36833B3FFF795FC0646F2
:100E50005A4B1B6A13F0020F2FD1FFF78DFC801B3A
:100E600041F288339842F3D903209EE0052B09D044
:100E7000524B1A6A22F001021A621A6A22F0040224
:100E80001A62E0E74D4B1A6A42F004021A621A6ACB
:100E900042F001021A62D6E7FFF76EFC0646474BA6
:100EA0001B6A13F0020F08D0FFF766FC801B41F2AB
:100EB00088339842F3D9032077E0E5B9E369002B42
:100EC00072D03E4A526802F00C02082A56D0022B19
:100ED00017D03B4B00221A66FFF74EFC0446374BF7
:100EE0001B6813F0007F47D0FFF746FC001B022869
:100EF000F5D9032059E0314AD36923F08053D361F7
:100F0000DCE72F4B00221A66FFF736FC05462B4B19
:100F10001B6813F0007F06D0FFF72EFC401B022851
:100F2000F5D9032041E0236AB3F5803F1AD0234965
:100F30004B6823F47413226A606A024313434B60C4
:100F40001F4B01221A66FFF717FC04461B4B1B6858
:100F500013F0007F0ED1FFF70FFC001B0228F5D91C
:100F6000032022E0154A536823F40033A1680B43A1
:100F70005360DCE7002018E0002016E0012B16D0BB
:100F80000E4B5B6803F48031226A914211D103F465
:100F90007013626A93420ED1002006E00120704770
:100FA000012002E0012000E0002002B070BD01201D
:100FB000FBE70120F9E70120F7E700BF001002403E
:100FC000000042420F4B5B6803F00C02082A01D07C
:100FD0000D487047C3F383420C49885C13F4803F8B
:100FE0000BD0084B5B68C3F34043094AD35C064A05
:100FF00002FB00F0B0FBF3F07047064B03FB00F080
:10100000704700BF0010024000127A002C20000838
:101010003C20000800093D00002800F0A08070B5C9
:101020000D460446524B1B6803F007038B420BD25C
:101030004F4A136823F007030B431360136803F050
:1010400007038B4240F08D80236813F0020F17D006
:1010500013F0040F04D0474A536843F4E06353602D
:10106000236813F0080F04D0424A536843F46053D6
:101070005360404A536823F0F003A1680B43536068
:10108000236813F0010F31D06368012B20D0022BAD
:1010900025D0384A126812F0020F64D035494A68E8
:1010A00022F0030213434B60FFF766FB0646314B09
:1010B0005B6803F00C036268B3EB820F16D0FFF796
:1010C0005BFB801B41F288339842F0D9032045E056
:1010D000284A126812F4003FE0D101203EE0254A80
:1010E000126812F0007FD9D1012037E0204B1B6835
:1010F00003F00703AB420AD91D4A136823F0070324
:101100002B431360136803F00703AB422DD1236810
:1011100013F0040F06D0174A536823F4E063E16824
:101120000B435360236813F0080F07D0114A53682C
:1011300023F46053216943EAC1035360FFF742FF80
:101140000C4B5B68C3F303130B4AD35CD8400B4BC7
:1011500018600B4B1868FFF755F9002070BD01208F
:1011600070470120FAE70120F8E70120F6E700BF09
:10117000002002400010024014200008000000205F
:1011800008000020014B1868704700BF00000020D5
:1011900008B5FFF7F7FF044B5B68C3F30223034A6C
:1011A000D35CD84008BD00BF0010024024200008D6
:1011B00008B5FFF7E7FF044B5B68C3F3C223034A9C
:1011C000D35CD84008BD00BF0010024024200008B6
:1011D0000F2303600B4B5A6802F0030242605A6807
:1011E00002F0F00282605A6802F4E062C2605B685A
:1011F000DB0803F4E0630361034B1B6803F00703A0
:101200000B60704700100240002002407047000051
:1012100090F83D30DBB2012B27D1022380F83D301E
:101220000268D36843F00103D3600368114A934214
:1012300010D0B3F1804F0DD0A2F59432934209D073
:1012400002F58062934205D01A6842F001021A60EA
:10125000002070479A6802F00702062A07D01A6831
:1012600042F001021A600020704701207047002000
:10127000704700BF002C01407047704770477047AF
:1012800010B5044603681A6912F0020F11D0DA682B
:1012900012F0020F0DD06FF002021A6101230377E2
:1012A00003689B6913F0030F70D0FFF7E6FF00237C
:1012B000237723681A6912F0040F12D0DA6812F04B
:1012C000040F0ED06FF004021A6102232377236803
:1012D0009B6913F4407F5FD02046FFF7CEFF0023C9
:1012E000237723681A6912F0080F12D0DA6812F017
:1012F000080F0ED06FF008021A61042323772368C9
:10130000DB6913F0030F4ED02046FFF7B6FF002332
:10131000237723681A6912F0100F12D0DA6812F0DE
:10132000100F0ED06FF010021A6108232377236884
:10133000DB6913F4407F3DD02046FFF79EFF00237A
:10134000237723681A6912F0010F03D0DA6812F0CC
:10135000010F36D123681A6912F0800F03D0DA68C2
:1013600012F0800F34D123681A6912F0400F03D0B5
:10137000DA6812F0400F32D123681A6912F0200F98
:1013800003D0DA6812F0200F30D110BDFFF774FFE0
:101390002046FFF773FF8AE72046FFF76DFF2046E0
:1013A000FFF76CFF9BE72046FFF766FF2046FFF73D
:1013B00065FFACE72046FFF75FFF2046FFF75EFFC3
:1013C000BDE76FF001021A612046FEF725FFC1E775
:1013D0006FF080021A61204600F077F8C3E76FF0E3
:1013E00040021A612046FFF74AFFC5E76FF020026E
:1013F0001A61204600F068F8C7E7000003681B4A3E
:1014000090420AD0B0F1804F07D0A2F594329042BA
:1014100003D002F58062904203D123F070034A6842
:101420001343124A90420AD0B0F1804F07D0A2F580
:101430009432904203D002F58062904203D123F4AB
:101440004073CA68134323F080034A69134303605F
:101450008B68C3620B688362044B984202D00123FD
:10146000436170470B690363F9E700BF002C01403B
:1014700040B310B5044690F83D30F3B1022384F830
:101480003D30214651F8040BFFF7B8FF012384F8E3
:10149000463084F83E3084F83F3084F8403084F899
:1014A000413084F8423084F8433084F8443084F882
:1014B000453084F83D30002010BD80F83C30FFF707
:1014C000A5FEDBE70120704770477047026802F114
:1014D0000C0353E8003F23F490730C3242E80031D0
:1014E0000029F3D1026802F1140353E8003F23F00E
:1014F0000103143242E800310029F3D1036B012BC0
:1015000005D0202380F8423000230363704702682F
:1015100002F10C0353E8003F23F010030C3242E8C1
:1015200000310029F3D1ECE790F84130DBB2212BF8
:1015300001D0022070478368B3F5805F17D0036A3B
:101540005A1C02621A7803685A60C38C9BB2013B32
:101550009BB2C3844BB90268D36823F08003D36085
:101560000268D36843F04003D360002070470369EA
:10157000002BE4D1036A1B880268C3F3080353609D
:10158000036A02330362E0E710B504460268136998
:1015900023F44053C1680B4313618368026913430A
:1015A00042691A430168CB6823F4B05323F00C035B
:1015B0001343CB600268536923F4407381690B4382
:1015C00053610268134B9A4220D0FFF7E1FD0246B7
:1015D00002EB820202EB820263689B00B2FBF3F231
:1015E0000D48A0FB02314909642303FB11231B01B1
:1015F0003233A0FB03235B0903F0F00202EB01127C
:1016000003F00F03216813448B6010BDFFF7D0FD7A
:101610000246DDE7003801401F85EB512DE9F84314
:1016200005460F4616469946DDF820802C6824684A
:1016300037EA04030CBF4FF0010C4FF0000CB44527
:101640002DD1B8F1FF3FF1D0B8F1000F05D0FFF771
:1016500093F8A0EB09004045E8D92A6802F10C0391
:1016600053E8003F23F4D0730C3242E800310029E4
:10167000F3D12A6802F1140353E8003F23F0010379
:10168000143242E800310029F3D1202385F841309B
:1016900085F84230002385F84030032000E0002028
:1016A000BDE8F88360B310B5044690F8413013B339
:1016B000242384F841302268D36823F40053D36094
:1016C0002046FFF761FF2268136923F490431361FA
:1016D0002268536923F02A0353612268D36843F4D4
:1016E0000053D36000206064202384F8413084F8E4
:1016F0004230606310BD80F84030FEF745FFD7E709
:10170000012070472DE9F04182B01E4690F841302B
:10171000DBB2202B4BD104460D46904600294AD01F
:101720000AB9012044E000234364212380F84130BA
:10173000FFF722F80746A4F82480A4F82680A368BF
:10174000B3F5805F02D04FF000080FE02369FBB1D2
:101750004FF000080AE038F8023B2268C3F30803A0
:101760005360E28C92B2013A92B2E284E38C9BB273
:101770008BB100963B46002280212046FFF74EFFAA
:10178000D8B9002DE7D015F8012B23685A60E8E797
:10179000A8460025EAE700963B4600224021204665
:1017A000FFF73CFF58B9202384F8413000E00220C5
:1017B00002B0BDE8F0810120FAE70320F8E703203A
:1017C000F6E7704708B50168CA6822F04002CA60AF
:1017D000202280F84120FFF7F4FF002008BD704769
:1017E000704708B5406A0023C385C384FFF7F8FF3C
:1017F00008BD704790F84230DBB2222B69D1836874
:10180000B3F5805F4FD0826AB3F5805F04D0002BC0
:1018100056D10369002B53D103685B681370836A48
:1018200001338362C38D9BB2013B9BB2C385002B06
:1018300051D100B583B00268D36823F02003D36090
:101840000268D36823F48073D3600268536923F07D
:1018500001035361202380F8423000234363036B6C
:10186000012B33D100230363026802F10C0353E818
:10187000003F23F010030C3242E800310029F3D17D
:1018800003681A6812F0100F06D0002201921A683D
:1018900001925B680193019B818DFFF7AAFF0020F5
:1018A00003B05DF804FB0269002AACD1826A0368C8
:1018B0005B68C3F308031380836A02338362B1E772
:1018C00003685B6803F07F031370A8E7FFF787FFE7
:1018D000E5E70220704700207047000030B583B074
:1018E000044602681368D068516913F00F0505D1EA
:1018F00013F0200F02D010F0200F19D12DB111F0EC
:10190000010119D110F4907F16D1216B01297DD0EE
:1019100013F0800F03D010F0800F40F0188113F007
:10192000400F03D010F0400F40F0158103B030BDE0
:101930002046FFF75FFFF9E713F0010F06D010F420
:10194000807F03D0626C42F00102626413F0040FE6
:1019500004D019B1626C42F00202626413F0020F0B
:1019600004D019B1626C42F00402626413F0080FF3
:1019700007D010F0200F00D119B1626C42F00802BC
:101980006264626C002AD1D013F0200F02D010F0F4
:10199000200F29D123685B6903F04003626C12F0C9
:1019A000080F00D163B32046FFF790FD23685B6901
:1019B00013F0400F20D0226802F1140353E8003FD7
:1019C00023F04003143242E800310029F3D1E36BE5
:1019D00073B1634A5A63E06BFEF764FF0028A5D039
:1019E000E06B436B9847A1E72046FFF703FFD1E781
:1019F0002046FFF7F5FE99E72046FFF7F1FE95E751
:101A00002046FFF7EDFE002363648FE713F0100F0D
:101A10003FF47EAF10F0100F3FF47AAF0023019334
:101A20001368019353680193019B536913F0400FAE
:101A300051D0E26B13685B689BB2002B3FF476AF2A
:101A4000A18D99427FF672AFE3859369202B37D041
:101A5000226802F10C0353E8003F23F480730C3238
:101A600042E800310029F3D1226802F1140353E85F
:101A7000003F23F00103143242E800310029F3D182
:101A8000226802F1140353E8003F23F040031432AC
:101A900042E800310029F3D1202384F842300023AA
:101AA0002363226802F10C0353E8003F23F0100384
:101AB0000C3242E800310029F3D1E06BFEF7CEFE94
:101AC00002236363A18DE38D9BB2C91A89B22046BC
:101AD000FFF78FFE2AE7A18DE38D9BB2C91A89B269
:101AE000E38D9BB2002B3FF421AF00293FF41EAFE2
:101AF000226802F10C0353E8003F23F490730C3288
:101B000042E800300028F3D1226802F1140353E8C0
:101B1000003F23F00103143242E800300028F3D1E3
:101B2000202384F8423000232363226802F10C034F
:101B300053E8003F23F010030C3242E80030002845
:101B4000F3D1022363632046FFF753FEEEE62046FF
:101B5000FFF7EAFCEAE62046FFF734FEE6E600BFC0
:101B6000E317000843684B609A688A605160996087
:101B70000861036801330360704703694168826844
:101B80008A60416851605A68824206D00022026130
:101B90001A68013A1A601868704782685A60F5E757
:101BA000074B19680868B0E8F00F80F30988BFF3A5
:101BB0006F8F4FF0000080F311884EF00D0E7047CC
:101BC0007C05002000000000000000000000000074
:101BD000EFF30980BFF36F8F0D4B1A6820E9F00F08
:101BE00010602DE908404FF0500080F3118800F09C
:101BF000C9F84FF0000080F31188BDE8084019686B
:101C00000868B0E8F00F80F30988BFF36F8F704762
:101C10007C05002008B54FF0500383F31188BFF313
:101C20006F8FBFF34F8F00F021F828B14FF0E02302
:101C30004FF08052C3F8042D002383F3118808BDB0
:101C4000084B1B681B6823B9074B4FF0FF321A6023
:101C50007047044B1B68DB68DB685A68024B1A60EC
:101C6000704700BF80050020F4090020F8B53A4B0A
:101C70001B68002B64D1394B1D6801351D60C5B947
:101C8000374B1B681B6843B14FF0500383F3118837
:101C9000BFF36F8FBFF34F8FFEE7314A1168314BAF
:101CA000186810601960304A136801331360FFF739
:101CB000C7FF2E4B1B68AB4238D900272C4B1B6843
:101CC000DB6A03EB83039A002A4B9B58012B3CD918
:101CD00001273AE00127224B1B681B6843B3204BC6
:101CE0001B68DB68DC6863689D4226D3261D30468E
:101CF000FFF743FFA36A1BB104F11800FFF73DFF94
:101D0000E36A1D4A1268934201D91B4A136003EB30
:101D100083039A00314617481044FFF723FFE26A15
:101D2000134B1B68DB6A9A42D4D2D4E70027D2E770
:101D30000E4B4FF0FF321A60C0E70C4A1360BDE74C
:101D40000E4A13680133136000270D4B1B6803B163
:101D500001273846F8BD00BFEC090020FC0900202F
:101D60008005002084050020F8090020F4090020E7
:101D70007C05002088050020F0090020E8090020EB
:101D8000000A00201F4B1B681BB11F4B01221A6069
:101D900070471D4B00221A601C4B1B6803EB83012C
:101DA0008A001B498A585AB90BB1013BF6E74FF03C
:101DB000500383F31188BFF36F8FBFF34F8FFEE79C
:101DC00003EB830082000A4450684068506003EBD4
:101DD000830C4FEA8C020832114488420BD003EB8B
:101DE000830291000A4A0A445268D168094A116084
:101DF000064A13607047406862469100044A0A44EC
:101E00005060ECE7EC090020000A0020F0090020F7
:101E1000880500207C05002070B50D4E0D4D761B09
:101E2000B61006D0002455F8043B01349847A6426A
:101E3000F9D1094E094D00F0D5F8761BB61006D041
:101E4000002455F8043B01349847A642F9D170BDEF
:101E500044200008442000084C20000844200008CA
:101E6000830730B548D0541E002A3FD00346CAB27B
:101E700001E0013C3AD303F8012B9D07F9D1032C73
:101E80002DD9CDB245EA05250F2C45EA054536D9B1
:101E9000A4F1100222F00F0C03F1200EE6444FEAE9
:101EA000121C03F1100242E9045542E902551032B6
:101EB0007245F8D10CF1010214F00C0F03EB021281
:101EC00004F00F0C13D0ACF1040323F0030304332C
:101ED000134442F8045B9342FBD10CF003042CB191
:101EE000CAB21C4403F8012B9C42FBD130BD6446AE
:101EF0001346002CF4D1F9E703461446BFE71A460F
:101F0000A446E0E7024B13B1024800F005B8704761
:101F100000000000251F0008002301461A4618464D
:101F200000F01AB838B5084B084D5B1B9C1007D061
:101F3000043B1D44013C55F804399847002CF9D165
:101F4000BDE8384000F054B8502000084C2000088C
:101F5000704700BF704700BF2DE9F047DFF87CA055
:101F60000646DAF8000098460F469146FFF7F0FF64
:101F70001B4B1B68D3F8484124B365681F2D26DC32
:101F80005EB96B1C0235DAF80000636044F8257016
:101F9000FFF7E0FF0020BDE8F087012304EB850197
:101FA000C1F88890D4F88821AB401A43022EC4F8B7
:101FB0008821C1F80881E4D1D4F88C211343C4F8F6
:101FC0008C31DEE703F5A674C3F84841D5E7DAF8AB
:101FD0000000FFF7BFFF4FF0FF30DCE738040020C0
:101FE00040200008F8B500BFF8BC08BC9E4670470A
:0C1FF000F8B500BFF8BC08BC9E46704766
:101FFC00FFFF0009042A00000000000000000000A0
:10200C00FFFFFE0205FA00000000000000000000C7
:10201C000102030406070809000000000102030482
:10202C0002030405060708090A0B0C0D0E0F10100D
:08203C00010200001000002069
:08204400051F0008350100082A
:04204C001101000876
:102050000024F40001000000100000000000000057
:1020600000000000FC02002064030020CC030020DC
:102070000000000000000000000000000000000060
:102080000000000000000000000000000000000050
:102090000000000000000000000000000000000040
:1020A0000000000000000000000000000000000030
:1020B0000000000000000000000000000000000020
:1020C0000000000000000000000000000000000010
:1020D0000000000000000000000000000000000000
:1020E00000000000000000000000000000000000F0
:1020F00000000000000000000000000000000000E0
:1021000000000000000000000100000000000000CE
:102110000E33CDAB34126DE6ECDE05000B00000093
:1021200000000000000000000000000000000000AF
:10213000000000000000000000000000000000009F
:10214000000000000000000000000000000000008F
:10215000000000000000000000000000000000007F
:0C2480000000000000000000040A002022
:04000005080006F1F8
:00000001FF
