:020000040800F2
:1000000000500020B90B0008490900084B090008FE
:100010004D0900084F0900085109000800000000C0
:100020000000000000000000000000004123000864
:100030005309000800000000E123000825240008FF
:10004000010C0008010C0008010C0008010C00085C
:10005000010C0008010C0008010C0008010C00084C
:10006000010C0008010C0008010C0008010C00083C
:10007000010C0008010C0008010C0008010C00082C
:10008000010C0008010C0008010C0008010C00081C
:10009000010C0008010C0008010C000855090008BB
:1000A000010C0008010C0008010C0008010C0008FC
:1000B000010C0008010C000871090008010C00087F
:1000C000010C0008010C0008010C0008010C0008DC
:1000D000010C00088109000891090008A109000825
:1000E000010C0008010C0008010C000800000000D1
:1000F0000000000000000000000000000000000000
:0C01000000000000000000005FF808F1A3
:1001100010B5054C237833B9044B13B10448AFF341
:1001200000800123237010BD5C040020000000004B
:10013000303E000808B5034B1BB103490348AFF339
:10014000008008BD0000000060040020303E000870
:10015000844641EA000313F0030349D1403A23D314
:100160000B6803604B6843608B688360CB68C36037
:100170000B6903614B6943618B698361CB69C3611F
:100180000B6A03624B6A43628B6A8362CB6AC36207
:100190000B6B03634B6B43638B6B8363CB6BC363EF
:1001A00040304031403ADBD230320BD30B68036031
:1001B0004B6843608B688360CB68C360103010313C
:1001C000103AF3D20C3205D351F8043B40F8043B0B
:1001D000043AF9D2043208D0D2071CBF11F8013B0F
:1001E00000F8013B01D30B8803806046704700BFD5
:1001F000082A13D38B07B1D010F00303AED0C3F19C
:100200000403D21ADB071CBF11F8013B00F8013BC5
:10021000A4D331F8023B20F8023B9FE7043AD9D33C
:10022000013A11F8013B00F8013BF9D20B78037059
:100230004B7843708B7883706046704708B5012017
:1002400001F0BAFFFBE7000010B5074C0122402186
:10025000204600F0F0FE642001F0AEFF00224021B5
:10026000204600F0E8FE10BD000C014008B5074A2A
:100270000021074801F02AFF064B1860064A0021BA
:10028000064801F023FF064B186008BD743E0008C5
:100290003D02000878040020983E00085903000839
:1002A0007C0400202DE9F04188B027490A68274BDB
:1002B0001B68D61A06964F68DD19079502EB0308EE
:1002C000CDF810800595CDF80880FF1A03970096A9
:1002D00001971F4B1E601F4B1D60344607E01C4BEF
:1002E0001C6000F015FA012001F066FF0134A04502
:1002F000F5DA184B1C6807E0164B1C6000F008FA92
:10030000012001F059FF013CA742F5DD104B1C68AC
:1003100007E00F4B1C6000F0FBF9012001F04CFFDF
:10032000013CA642F5DD0B4B1C6807E0094B1C6045
:1003300000F0EEF9012001F03FFF0134A542F5DAAB
:1003400008B0BDE8F08100BF0C000020940400203C
:10035000140000201800002008B500F017FAB0E0E3
:1003600000F05AF9002800F0A980FFF76DFF644BF8
:1003700093F900303BB9634A92F900201AB9624BF5
:1003800001221A609AE0012B0CD0002B40F09680DD
:100390005C4B93F90030012B40F090805A4B0622C1
:1003A0001A608BE0574A92F90020002AEDD1564B93
:1003B00005221A6082E0524A92F9002072B1514A35
:1003C00092F900200AB14FF0FF3350490A681344F4
:1003D0000B60142001F0F0FEFFF736FF00F01CF96F
:1003E00000286BD0FFF730FF474B02221A6065E010
:1003F000434B93F9003073B1424B93F90030A3B1F2
:100400004FF0FF31424A13680B441360142001F08F
:10041000D3FEFFF719FF00F0FFF800284ED0FFF7DA
:1004200013FF394B03221A6048E00121EAE7344BFD
:1004300093F9003073B1334B93F90030A3B14FF00F
:10044000FF31324A13680B441360142001F0B4FEEC
:10045000FFF7FAFE00F0E0F800282FD0FFF7F4FED7
:10046000294B04221A6029E00121EAE7244B93F981
:10047000003073B1234B93F900309BB14FF0FF3143
:10048000234A13680B441360142001F095FEFFF714
:10049000DBFE00F0C1F888B1FFF7D6FE1A4B002250
:1004A0001A600BE00121EBE71A4B1968174A11603B
:1004B0005A68174B1A60144B00221A60012001F091
:1004C0007BFE00F077F800F023F90F4B1B68062B3A
:1004D000F4D801A252F823F061030008B703000822
:1004E000F10300082F0400086D040008A9040008A7
:1004F000F5040008FFF7D6FE034B00221A60DDE783
:1005000084040020850400208004002014000020C2
:10051000180000200C00002070B588B0002404945E
:10052000059406940794204B9A6942F020029A6140
:100530009A6902F020020192019A9A6942F004023B
:100540009A619A6902F004020292029A9A6942F050
:1005500008029A619B6903F008030393039B134D00
:1005600022464021284600F066FD402304930126E0
:10057000059602230693079304A9284600F042FC3F
:100580004FF4607304930A4B0593069604A928461A
:1005900000F038FC22460521172000F07DFB1720D3
:1005A00000F0B2FB08B070BD00100240000C01402A
:1005B0000000311010B5134C8021204600F034FDAE
:1005C000114B18704FF40071204600F02DFDB0FA69
:1005D00080F040090D4B18704FF48071204600F0F8
:1005E00023FDB0FA80F04009094B1870094B93F9CC
:1005F0000030B3F1FF3F00D010BD034B1A78054B1C
:100600001A70F9E7000C01408604002084040020E1
:10061000850400200000002008B5084B93F9002055
:10062000074B93F900309A4201D1002008BD034ADC
:100630001370C82001F0C0FD0120F7E70000002082
:10064000860400207047000008B50268034B9A42F8
:1006500000D008BD00F0E8FAFBE700BF000800404A
:1006600072B6FEE700B591B02822002106A803F07B
:100670001DFB00230193029303930493059301222E
:1006800006924FF4803307930A9202220D920E9342
:100690004FF4E0130F9306A800F0F8FC80B90F2385
:1006A000019302210291002303934FF4806204928C
:1006B000059301A800F01CFF20B911B05DF804FB00
:1006C000FFF7CEFFFFF7CCFF08B500F09BFAFFF76E
:1006D000C9FFFFF721FF00F06DF900F085F900F088
:1006E0009DF90A4C01224021204600F0A4FC642020
:1006F00000F0ACFA00224021204600F09CFC01F002
:100700009DFCFFF7B3FD01F0BBFCFEE7000C0140D0
:1007100008B51C4B1B68B3F5967F03DA194B4FF4F1
:1007200096721A60174B1B68B3F52F7F03DD154BCC
:100730004FF42F721A60144B1B68B3F5967F03DADF
:10074000114B4FF496721A600F4B1B68B3F52F7F55
:1007500003DD0D4B4FF42F721A604FF4FA62094B10
:100760001988012000F040F8074B1968C1F5806135
:100770004FF4FA6289B2022000F036F800F064F813
:1007800008BD00BF140000201800002009490A68B5
:10079000094B1868121A094802605B6849685B1ABD
:1007A00007490B60520007490A605B00064A136064
:1007B000704700BF0C0000200400002094040020BB
:1007C0008C0400209004002088040020002305E011
:1007D00012F800C063449BB20130C0B28842F7D91E
:1007E000D843C0B27047000030B585B005460C460E
:1007F0009646134BEC460FCBACE807008CF8003064
:100800008DF80250230A8DF806308DF807404FEA24
:100810001E238DF80A308DF80BE06A460B2102206A
:10082000FFF7D4FF8DF80C000A230D226946054816
:1008300001F0D4F9012000F009FA05B030BD00BF85
:10084000483E00087005002000B583B0084B93E8CF
:1008500003000090ADF804100A23062269460548FB
:1008600001F0BCF9012000F0F1F903B05DF804FBE0
:10087000BC3E00087005002000B583B0114B9A699A
:1008800042F001029A619A6902F001020092009A14
:10089000DA6942F08052DA61DB6903F08053019338
:1008A000019B00220F216FF0010000F0F5F9064ACC
:1008B000536823F0E06343F00073536003B05DF8C6
:1008C00004FB00BF001002400000014000B589B0E9
:1008D000014600221E2000F0DFF91E2000F014FA6D
:1008E000154BDA6942F00402DA61DB6903F00403B4
:1008F0000193019B02A903A800F0D6FE00F0B4FE0C
:1009000043000E48A0FB03239B0C013B0C480D4AFF
:10091000026040F2E732C2604360002303618360FB
:1009200001F012F818B1012009B05DF804FB044889
:1009300000F0DAFEF8E700BF0010024083DE1B4340
:100940009804002000080040FEE7FEE7FEE7FEE70F
:10095000FEE7704708B5802000F074FB4FF480700C
:1009600000F070FB4FF4007000F06CFB08BD00005D
:1009700008B5024800F0F0FE08BD00BF9804002052
:1009800008B5024801F016FA08BD00BFE0040020D7
:1009900008B5024801F00EFA08BD00BF2805002086
:1009A00008B5024801F006FA08BD00BF7005002036
:1009B0007047000008B50A480A4B03604FF4E13362
:1009C000436000238360C36003610C224261836142
:1009D000C36101F0D3F800B908BDFFF741FEFBE7A2
:1009E000E00400200038014008B50A480A4B0360C3
:1009F0004FF4E133436000238360C36003610C2242
:100A000042618361C36101F0B9F800B908BDFFF725
:100A100027FEFBE7280500200044004008B50A48EF
:100A20000A4B03604FF4E133436000238360C360EB
:100A300003610C2242618361C36101F09FF800B938
:100A400008BDFFF70DFEFBE77005002000480040E1
:100A500030B58BB00023069307930893099303687E
:100A60004F4A934207D04F4A934236D04E4A934260
:100A700063D00BB030BD4D4B9A6942F480429A610D
:100A80009A6902F480420092009A9A6942F0040244
:100A90009A619B6903F004030193019B4FF4007377
:100AA00006930223079303230993414D06A9284681
:100AB00000F0A8F94FF4806306930024079408948B
:100AC00006A9284600F09EF922460521252000F0BF
:100AD000E3F8252000F018F9CBE7344BDA6942F44B
:100AE0000032DA61DA6902F400320292029A9A69FB
:100AF00042F004029A619B6903F004030393039B91
:100B0000042306930223079303230993284D06A980
:100B1000284600F077F908230693002407940894E8
:100B200006A9284600F06EF922460521262000F08D
:100B3000B3F8262000F0E8F89BE71C4BDA6942F492
:100B40008022DA61DA6902F480220492049A9A69B6
:100B500042F008029A619B6903F008030593059B24
:100B60004FF4806306930223079303230993114DE7
:100B700006A9284600F046F94FF4006306930024C6
:100B80000794089406A9284600F03CF9224605215E
:100B9000272000F081F8272000F0B6F869E700BFB1
:100BA000003801400044004000480040001002406E
:100BB00000080140000C0140FFF7FAFE0B480C4909
:100BC0000C4A002302E0D458C4500433C4188C42A9
:100BD000F9D3094A094C002301E013600432A24210
:100BE000FBD303F03FF8FFF76FFD704700000020D4
:100BF0005C040020183F00085C040020081F00204F
:100C0000FEE7000008B5074A136843F010031360BD
:100C1000032000F02FF80F20FFF758FEFFF72CFEFF
:100C2000002008BD00200240034A1168034B1B78D6
:100C30000B441360704700BFB8050020200000205F
:100C4000014B1868704700BFB805002038B504464E
:100C5000FFF7F6FF0546B4F1FF3F02D0044B1B78C7
:100C60001C44FFF7EDFF401BA042FAD338BD00BF84
:100C700020000020074AD36823F4E0631B041B0C08
:100C8000000200F4E060034343F0BF6343F4003329
:100C9000D360704700ED00E000B5194BDB68C3F38B
:100CA0000223C3F1070CBCF1040F28BF4FF0040C62
:100CB00003F1040EBEF1060F18D9033B4FF0FF3EBF
:100CC0000EFA0CFC21EA0C0199400EFA03F322EA19
:100CD0000303194300280BDB0901C9B200F160408E
:100CE00000F5614080F800135DF804FB0023E5E7A0
:100CF00000F00F000901C9B2024B1954F4E700BF1C
:100D000000ED00E014ED00E0002807DB00F01F021A
:100D1000400901239340024A42F82030704700BF47
:100D200000E100E090F82130DBB2022B06D0042372
:100D30008363002380F82030012070470268136825
:100D400023F00E0313600268136823F0010313609D
:100D5000036CC16B012202FA03F34B6080F821207F
:100D6000002380F8203018467047000008B590F83E
:100D70002130DBB2022B03D004238363012008BDA2
:100D80000268136823F00E0313600268136823F0EF
:100D9000010313600368194A934214D0143293423A
:100DA0001FD0143293421ED0143293421ED01432FC
:100DB00093421ED01432934202D04FF0807203E06F
:100DC0004FF4801200E001220D4B5A60012380F89D
:100DD0002130002380F82030436B6BB1984700200E
:100DE000CDE71022F0E74FF48072EDE74FF4805228
:100DF000EAE74FF48032E7E70020C0E7080002404E
:100E00000000024070B582B00024A446A6E0804DE8
:100E1000AA4210D007D97F4DAA420CD005F58035E3
:100E2000AA4208D013E0A5F58015AA4203D005F523
:100E30007025AA4207D18A68002A58D0012A51D0C9
:100E40004361082403E0A5F58015AA42F3D0BEF162
:100E5000FF0F4ED80646BEF1FF0F4CD84FEA8C026A
:100E600033680F25954023EA050304FA02F2134381
:100E700033604B6813F0805F6ED0674B9A6942F025
:100E800001029A619B6903F001030193019B4FEA00
:100E90009C02951C614B53F825600CF003039D00E8
:100EA0000F23AB4026EA03065D4B984229D003F599
:100EB0008063984200F08E8003F58063984200F0D2
:100EC0008B8003F58063984219D004231AE0CC6824
:100ED000BDE7CC680434BAE7CC680834B7E7CC681F
:100EE0000C34B4E703610824B1E70024AFE704241D
:100EF000ADE7061DAFE7ACF108029200B0E70323AF
:100F000000E00023AB4033430232444D45F8223029
:100F10004B6813F4801F61D0424A936843EA0E0382
:100F200093604B6813F4001F5ED03E4AD36843EAD7
:100F30000E03D3604B6813F4003F5BD0394A53680B
:100F400043EA0E0353604B6813F4803F58D0354A90
:100F5000136843EA0E0313600CF1010C0A6832FABD
:100F60000CF353D0012303FA0CF302EA030E33EA25
:100F70000202F1D14A68122A3FF649AF122A3FF61F
:100F800066AF01A555F822F0370E0008CF0E000815
:100F9000D90E0008EB0E00084F0E00084F0E000897
:100FA0004F0E00084F0E00084F0E00084F0E0008AD
:100FB0004F0E00084F0E00084F0E00084F0E00089D
:100FC0004F0E00084F0E00084F0E0008D30E000809
:100FD000DF0E0008012395E7022393E7114A936887
:100FE00023EA0E0393609CE70E4AD36823EA0E03BC
:100FF000D3609FE70B4A536823EA0E035360A2E7CE
:10100000084A136823EA0E031360A5E702B070BD17
:1010100000002210000031100010024000000140CA
:1010200000080140000401408368194201D00120FA
:101030007047002070470AB10161704709040161DF
:101040007047000008B5054B5B69034200D108BD3D
:10105000024B5861FFF7F6FAF9E700BF00040140C0
:1010600082B0084B1B68084AA2FB03235B0A00FB03
:1010700003F3019300BF019B5A1E0192002BF9D18B
:1010800002B070471C000020D34D6210002800F011
:10109000F18170B582B00446036813F0010F2CD0C3
:1010A000994B5B6803F00C03042B1DD0964B5B68D7
:1010B00003F00C03082B12D06368B3F5803F41D0D6
:1010C000002B55D103F1804303F504331A6822F451
:1010D00080321A601A6822F480221A6037E08A4B44
:1010E0005B6813F4803FE7D0874B1B6813F4003F25
:1010F00003D06368002B00F0BF81236813F0020F58
:1011000075D0814B5B6813F00C0F5FD07E4B5B6832
:1011100003F00C03082B54D02369002B00F08A80C5
:101120007A4B01221A60FFF78BFD0546764B1B6850
:1011300013F0020F75D1FFF783FD401B0228F5D98C
:1011400003209EE1704A136843F4803313606368A0
:1011500043B3FFF775FD05466B4B1B6813F4003F67
:10116000CBD1FFF76DFD401B6428F5D9032088E142
:10117000B3F5A02F09D0644B1A6822F480321A60AC
:101180001A6822F480221A60E1E703F18043A3F594
:101190003C331A6842F480221A601A6842F48032A2
:1011A0001A60D4E7FFF74CFD0546574B1B6813F454
:1011B000003FA2D0FFF744FD401B6428F5D903206F
:1011C0005FE1514B5B6813F4803FA5D14E4B1B6828
:1011D00013F0020F03D02369012B40F04F814A4ADC
:1011E000136823F0F803616943EAC10313602368BD
:1011F00013F0080F33D0A369002B5CD0434B0122BE
:10120000C3F88024FFF71CFD05463F4B5B6A13F0D3
:10121000020F21D1FFF714FD401B0228F5D903204E
:101220002FE1394A136823F0F803616943EAC103E7
:101230001360DCE7354B00221A60FFF701FD05461D
:10124000314B1B6813F0020FD1D0FFF7F9FC401BA4
:101250000228F5D9032014E10120FFF701FF2368DC
:1012600013F0040F00F09680274BDB6913F0805FCA
:1012700034D1254BDA6942F08052DA61DB6903F040
:1012800080530193019B0125214B1B6813F4807F40
:1012900026D0E368012B3DD0002B53D103F18043CE
:1012A00003F504331A6A22F001021A621A6A22F064
:1012B00004021A6233E0154B0022C3F88024FFF7C2
:1012C000BFFC0546104B5B6A13F0020FC7D0FFF757
:1012D000B7FC401B0228F5D90320D2E00025D3E754
:1012E0000B4A136843F480731360FFF7A9FC0646AA
:1012F000074B1B6813F4807FCBD1FFF7A1FC801B49
:101300006428F5D90320BCE00010024000004242EE
:10131000007000405F4A136A43F001031362E36800
:1013200033B3FFF78DFC06465A4B1B6A13F0020FCE
:101330002FD1FFF785FC801B41F288339842F3D907
:1013400003209EE0052B09D0524B1A6A22F00102BD
:101350001A621A6A22F004021A62E0E74D4B1A6A16
:1013600042F004021A621A6A42F001021A62D6E7D7
:10137000FFF766FC0646474B1B6A13F0020F08D0C6
:10138000FFF75EFC801B41F288339842F3D90320BB
:1013900077E0E5B9E369002B72D03E4A526802F06B
:1013A0000C02082A56D0022B17D03B4B00221A669B
:1013B000FFF746FC0446374B1B6813F0007F47D00D
:1013C000FFF73EFC001B0228F5D9032059E0314A03
:1013D000D36923F08053D361DCE72F4B00221A66D8
:1013E000FFF72EFC05462B4B1B6813F0007F06D041
:1013F000FFF726FC401B0228F5D9032041E0236AB1
:10140000B3F5803F1AD023494B6823F47413226A42
:10141000606A024313434B601F4B01221A66FFF7B9
:101420000FFC04461B4B1B6813F0007F0ED1FFF727
:1014300007FC001B0228F5D9032022E0154A536857
:1014400023F40033A1680B435360DCE7002018E06D
:10145000002016E0012B16D00E4B5B6803F48031A0
:10146000226A914211D103F47013626A93420ED141
:10147000002006E001207047012002E0012000E08A
:10148000002002B070BD0120FBE70120F9E7012038
:10149000F7E700BF00100240000042420F4B5B68BC
:1014A00003F00C02082A01D00D487047C3F38342B1
:1014B0000C49885C13F4803F0BD0084B5B68C3F386
:1014C0004043094AD35C064A02FB00F0B0FBF3F04C
:1014D0007047064B03FB00F0704700BF001002404E
:1014E00000127A00DC3E0008EC3E000800093D00D6
:1014F000002800F0A08070B50D460446524B1B68D2
:1015000003F007038B420BD24F4A136823F0070303
:101510000B431360136803F007038B4240F08D8088
:10152000236813F0020F17D013F0040F04D0474ABA
:10153000536843F4E0635360236813F0080F04D04A
:10154000424A536843F460535360404A536823F05F
:10155000F003A1680B435360236813F0010F31D0EF
:101560006368012B20D0022B25D0384A126812F074
:10157000020F64D035494A6822F0030213434B60DE
:10158000FFF75EFB0646314B5B6803F00C036268B5
:10159000B3EB820F16D0FFF753FB801B41F2883369
:1015A0009842F0D9032045E0284A126812F4003F1F
:1015B000E0D101203EE0254A126812F0007FD9D127
:1015C000012037E0204B1B6803F00703AB420AD928
:1015D0001D4A136823F007032B431360136803F0BD
:1015E0000703AB422DD1236813F0040F06D0174A2E
:1015F000536823F4E063E1680B435360236813F0FE
:10160000080F07D0114A536823F46053216943EA55
:10161000C1035360FFF742FF0C4B5B68C3F3031336
:101620000B4AD35CD8400B4B18600B4B1868FFF784
:101630004DF9002070BD012070470120FAE701201C
:10164000F8E70120F6E700BF00200240001002404A
:10165000C43E00081C00002024000020014B186834
:10166000704700BF1C00002008B5FFF7F7FF044BD0
:101670005B68C3F30223034AD35CD84008BD00BFB4
:1016800000100240D43E000808B5FFF7E7FF044B06
:101690005B68C3F3C223034AD35CD84008BD00BFD4
:1016A00000100240D43E00080F2303600B4B5A6821
:1016B00002F0030242605A6802F0F00282605A6847
:1016C00002F4E062C2605B68DB0803F4E06303617C
:1016D000034B1B6803F007030B60704700100240C8
:1016E000002002407047000090F83D30DBB2012B33
:1016F00027D1022380F83D300268D36843F001030C
:10170000D3600368114A934210D0B3F1804F0DD0DB
:10171000A2F59432934209D002F58062934205D03B
:101720001A6842F001021A60002070479A6802F0BD
:101730000702062A07D01A6842F001021A60002048
:101740007047012070470020704700BF002C014007
:10175000704770477047704710B5044603681A69B0
:1017600012F0020F11D0DA6812F0020F0DD06FF0F4
:1017700002021A610123037703689B6913F0030FC8
:1017800070D0FFF7E6FF0023237723681A6912F071
:10179000040F12D0DA6812F0040F0ED06FF00402BA
:1017A0001A610223237723689B6913F4407F5FD07B
:1017B0002046FFF7CEFF0023237723681A6912F033
:1017C000080F12D0DA6812F0080F0ED06FF008027E
:1017D0001A61042323772368DB6913F0030F4ED0CB
:1017E0002046FFF7B6FF0023237723681A6912F01B
:1017F000100F12D0DA6812F0100F0ED06FF0100236
:101800001A61082323772368DB6913F4407F3DD0F6
:101810002046FFF79EFF0023237723681A6912F002
:10182000010F03D0DA6812F0010F36D123681A696C
:1018300012F0800F03D0DA6812F0800F34D12368E1
:101840001A6912F0400F03D0DA6812F0400F32D15B
:1018500023681A6912F0200F03D0DA6812F0200F03
:1018600030D110BDFFF774FF2046FFF773FF8AE702
:101870002046FFF76DFF2046FFF76CFF9BE72046F1
:10188000FFF766FF2046FFF765FFACE72046FFF74E
:101890005FFF2046FFF75EFFBDE76FF001021A61B0
:1018A0002046FEF7D1FEC1E76FF080021A612046A4
:1018B00000F077F8C3E76FF040021A612046FFF7A7
:1018C0004AFFC5E76FF020021A61204600F068F871
:1018D000C7E7000003681B4A90420AD0B0F1804F6E
:1018E00007D0A2F59432904203D002F58062904274
:1018F00003D123F070034A681343124A90420AD07E
:10190000B0F1804F07D0A2F59432904203D002F597
:101910008062904203D123F44073CA68134323F0DA
:1019200080034A69134303608B68C3620B68836258
:10193000044B984202D00123436170470B69036353
:10194000F9E700BF002C014040B310B5044690F801
:101950003D30F3B1022384F83D30214651F8040BA9
:10196000FFF7B8FF012384F8463084F83E3084F84E
:101970003F3084F8403084F8413084F8423084F8B5
:10198000433084F8443084F8453084F83D300020FA
:1019900010BD80F83C30FFF7A5FEDBE70120704763
:1019A00070477047026802F10C0353E8003F23F4CC
:1019B00090730C3242E800310029F3D1026802F141
:1019C000140353E8003F23F00103143242E80031CE
:1019D0000029F3D1036B012B05D0202380F842307E
:1019E000002303637047026802F10C0353E8003FD1
:1019F00023F010030C3242E800310029F3D1ECE768
:101A000090F84130DBB2212B01D00220704783686F
:101A1000B3F5805F17D0036A5A1C02621A78036814
:101A20005A60C38C9BB2013B9BB2C3844BB9026822
:101A3000D36823F08003D3600268D36843F0400387
:101A4000D360002070470369002BE4D1036A1B8830
:101A50000268C3F308035360036A02330362E0E7DA
:101A600010B504460268136923F44053C1680B4360
:101A7000136183680269134342691A430168CB68A2
:101A800023F4B05323F00C031343CB600268536973
:101A900023F4407381690B4353610268134B9A42EC
:101AA00020D0FFF7E1FD024602EB820202EB820248
:101AB00063689B00B2FBF3F20D48A0FB02314909B9
:101AC000642303FB11231B013233A0FB03235B09B7
:101AD00003F0F00202EB011203F00F03216813443C
:101AE0008B6010BDFFF7D0FD0246DDE700380140F6
:101AF0001F85EB512DE9F84305460F4616469946DA
:101B0000DDF820802C68246837EA04030CBF4FF00E
:101B1000010C4FF0000CB4452DD1B8F1FF3FF1D0CE
:101B2000B8F1000F05D0FFF78BF8A0EB0900404596
:101B3000E8D92A6802F10C0353E8003F23F4D0737C
:101B40000C3242E800310029F3D12A6802F1140373
:101B500053E8003F23F00103143242E8003100292A
:101B6000F3D1202385F8413085F84230002385F8F1
:101B70004030032000E00020BDE8F88360B310B5DA
:101B8000044690F8413013B3242384F8413022688E
:101B9000D36823F40053D3602046FFF761FF226827
:101BA000136923F4904313612268536923F02A03D5
:101BB00053612268D36843F40053D360002060640B
:101BC000202384F8413084F84230606310BD80F8EF
:101BD0004030FEF73DFFD7E7012070472DE9F04187
:101BE00082B01E4690F84130DBB2202B4BD1044628
:101BF0000D46904600294AD00AB9012044E000234E
:101C00004364212380F84130FFF71AF80746A4F80F
:101C10002480A4F82680A368B3F5805F02D04FF03B
:101C200000080FE02369FBB14FF000080AE038F824
:101C3000023B2268C3F308035360E28C92B2013A7C
:101C400092B2E284E38C9BB28BB100963B460022B9
:101C500080212046FFF74EFFD8B9002DE7D015F8B8
:101C6000012B23685A60E8E7A8460025EAE70096BA
:101C70003B46002240212046FFF73CFF58B9202375
:101C800084F8413000E0022002B0BDE8F08101207C
:101C9000FAE70320F8E70320F6E7704708B5016884
:101CA000CA6822F04002CA60202280F84120FFF773
:101CB000F4FF002008BD7047704708B5406A002354
:101CC000C385C384FFF7F8FF08BD704790F8423022
:101CD000DBB2222B69D18368B3F5805F4FD0826A73
:101CE000B3F5805F04D0002B56D10369002B53D18C
:101CF00003685B681370836A01338362C38D9BB290
:101D0000013B9BB2C385002B51D100B583B0026863
:101D1000D36823F02003D3600268D36823F4807370
:101D2000D3600268536923F001035361202380F8D4
:101D3000423000234363036B012B33D10023036341
:101D4000026802F10C0353E8003F23F010030C3249
:101D500042E800310029F3D103681A6812F0100F2D
:101D600006D0002201921A6801925B680193019BE0
:101D7000818DFFF7AAFF002003B05DF804FB026924
:101D8000002AACD1826A03685B68C3F3080313803E
:101D9000836A02338362B1E703685B6803F07F0301
:101DA0001370A8E7FFF787FFE5E7022070470020E0
:101DB0007047000030B583B0044602681368D068ED
:101DC000516913F00F0505D113F0200F02D010F068
:101DD000200F19D12DB111F0010119D110F4907F0C
:101DE00016D1216B01297DD013F0800F03D010F0A4
:101DF000800F40F0188113F0400F03D010F0400F17
:101E000040F0158103B030BD2046FFF75FFFF9E7D2
:101E100013F0010F06D010F4807F03D0626C42F003
:101E20000102626413F0040F04D019B1626C42F035
:101E30000202626413F0020F04D019B1626C42F026
:101E40000402626413F0080F07D010F0200F00D1D5
:101E500019B1626C42F008026264626C002AD1D04F
:101E600013F0200F02D010F0200F29D123685B69F6
:101E700003F04003626C12F0080F00D163B32046F8
:101E8000FFF790FD23685B6913F0400F20D02268B4
:101E900002F1140353E8003F23F04003143242E8F8
:101EA00000310029F3D1E36B73B1634A5A63E06BED
:101EB000FEF75CFF0028A5D0E06B436B9847A1E7D5
:101EC0002046FFF703FFD1E72046FFF7F5FE99E72D
:101ED0002046FFF7F1FE95E72046FFF7EDFE0023D1
:101EE00063648FE713F0100F3FF47EAF10F0100F14
:101EF0003FF47AAF00230193136801935368019371
:101F0000019B536913F0400F51D0E26B13685B687B
:101F10009BB2002B3FF476AFA18D99427FF672AF52
:101F2000E3859369202B37D0226802F10C0353E834
:101F3000003F23F480730C3242E800310029F3D1D2
:101F4000226802F1140353E8003F23F00103143226
:101F500042E800310029F3D1226802F1140353E86A
:101F6000003F23F04003143242E800310029F3D14E
:101F7000202384F8423000232363226802F10C03FB
:101F800053E8003F23F010030C3242E800310029EF
:101F9000F3D1E06BFEF7C6FE02236363A18DE38DF0
:101FA0009BB2C91A89B22046FFF78FFE2AE7A18D9E
:101FB000E38D9BB2C91A89B2E38D9BB2002B3FF42B
:101FC00021AF00293FF41EAF226802F10C0353E851
:101FD000003F23F490730C3242E800300028F3D124
:101FE000226802F1140353E8003F23F00103143286
:101FF00042E800300028F3D1202384F84230002347
:102000002363226802F10C0353E8003F23F010031E
:102010000C3242E800300028F3D1022363632046EB
:10202000FFF753FEEEE62046FFF7EAFCEAE620461D
:10203000FFF734FEE6E600BFBB1C0008EFF30583A4
:1020400093B9EFF3108393B90C4B1868022804D0AE
:1020500080B90A4B01221A607047EFF31183002BFD
:10206000F6D06FF0050070476FF0050070476FF015
:10207000050070474FF0FF30704700BF1808002080
:1020800008B5EFF30583B3B9EFF31083B3B90E4B83
:102090001B68022B08D0012B13D10B4B02221A60B4
:1020A00001F0CEF8002008BDEFF31182002AF2D033
:1020B0006FF00500F7E76FF00500F4E76FF005003B
:1020C000F1E74FF0FF30EEE718080020F0B587B0D9
:1020D00000240494EFF30584002C43D1EFF3108324
:1020E000002B3FD1334B1B68022B16D0002839D070
:1020F00000238DF8173062B3156895B1936903B961
:1021000018235C1E372C51D8546814F0010F4FD19E
:1021100056694EB14FEA960C08E0EFF311830BBB02
:10212000E4E70DF11705E9E74FF0800C94682CB156
:10213000D7685B2F02D9176907B1B6B914B14FF050
:10214000FF340CE0D46894B914699CB14FF0FF34AB
:1021500005E0002418234FF0800C0DF11705012C29
:102160000AD0ACB1049807B0F0BD0124F7E74FF0F6
:10217000FF34F4E70024F2E71469926802920194B4
:1021800000930B466246294600F0ECFF0490E9E715
:1021900004AA019200930B461FFA8CF2294601F023
:1021A0001BF80128DED000230493DBE70020DAE7E8
:1021B0000020D8E71808002008B5EFF30583A3B97D
:1021C000EFF31083A3B90C4B1B68022B02D040B96C
:1021D000002008BDEFF31183002BF8D06FF005004D
:1021E000F7E701F091F90020F3E76FF00500F0E761
:1021F0006FF00500EDE700BF18080020034B0360F7
:10220000034B0B6080231360704700BFBC070020A6
:10221000BC050020034B0360034B0B604FF480733D
:10222000136070471C0C00201C08002000F10803FC
:1022300043604FF0FF328260C3600361002303609C
:10224000704700230361704743684B609A688A6057
:10225000516099600861036801330360704730B4CE
:102260000D68B5F1FF3F11D000F108031C465B6813
:102270001A68AA42FAD963684B6099608C60616001
:10228000086103680133036030BC70470469F2E7FA
:102290000369416882688A60416851605A68824275
:1022A00006D0002202611A68013A1A601868704765
:1022B00082685A60F5E7000082B0002301930D4B5D
:1022C0001B68B3F1FF3F08D04FF0500383F3118830
:1022D000BFF36F8FBFF34F8FFEE74FF0500383F3D1
:1022E0001188BFF36F8FBFF34F8F019B002BFCD082
:1022F00002B070472800002006480068006880F39C
:10230000088862B661B6BFF34F8FBFF36F8F00DFEF
:1023100000BF000008ED00E04FF0807340F8043C7F
:1023200021F0010140F8081C034B40F80C3C40F838
:10233000202C4038704700BFB92200080000000080
:10234000074B19680868B0E8F00F80F30988BFF3FD
:102350006F8F4FF0000080F311884EF00D0E704724
:10236000D81800204FF0500383F31188BFF36F8F0C
:10237000BFF34F8F0B4A136801331360012B00D05A
:1023800070474FF0E023D3F8043D13F0FF0FF7D070
:102390004FF0500383F31188BFF36F8FBFF34F8F5C
:1023A000FEE700BF28000020094B1B6843B94FF02F
:1023B000500383F31188BFF36F8FBFF34F8FFEE796
:1023C000013B034A13600BB983F31188704700BFC8
:1023D00028000020000000000000000000000000B5
:1023E000EFF30980BFF36F8F0D4B1A6820E9F00FF0
:1023F00010602DE908404FF0500080F3118801F083
:10240000A9F84FF0000080F31188BDE80840196872
:102410000868B0E8F00F80F30988BFF36F8F70474A
:10242000D818002008B54FF0500383F31188BFF38C
:102430006F8FBFF34F8F00F05FFF28B14FF0E023A5
:102440004FF08052C3F8042D002383F3118808BD98
:102450004FF0E022002313619361054B1B6805498F
:10246000A1FB03139B09013B5361072313617047D1
:102470001C000020D34D621010B582B02A4B1A7890
:10248000D2B20192FF221A701B78DBB28DF80330B2
:102490009DF8033003F05003244A1370244B0722A5
:1024A0001A6009E0224A1368013B13609DF803306B
:1024B0005B00DBB28DF803309DF8033013F0800F22
:1024C000F0D11B4B1B68032B08D04FF0500383F354
:1024D0001188BFF36F8FBFF34F8FFEE71B02144AC3
:1024E000136003F4E0631360019BDBB20E4A1370C8
:1024F0004FF0E023D3F8202D42F47002C3F8202DD2
:10250000D3F8202D42F07042C3F8202DFFF7A0FF32
:102510000024084B1C60FFF7EFFE01F01BF8FFF7EB
:10252000CBFE204602B010BD00E400E0780C002095
:102530007C0C002028000020EFF305830F2B0FD91F
:10254000114A9B5CDBB2114A12789A4208D94FF0CB
:10255000500383F31188BFF36F8FBFF34F8FFEE7F4
:102560004FF0E023D3F80C3D03F4E063084A12680F
:10257000934208D94FF0500383F31188BFF36F8F54
:10258000BFF34F8FFEE77047F0E300E0780C0020C8
:102590007C0C0020124A12F0070F1ED0D11D21F032
:1025A0000701C1F5406313440A460E48026000214A
:1025B00041601344083B23F007030B480360596054
:1025C0001960991A51601360084B1960084B196023
:1025D000084B4FF000421A6070474FF44063E4E745
:1025E000840C002090180020800C00208C18002003
:1025F0008818002084180020154B1A461B68834257
:10260000FBD3516802EB010C844509D0416800EB13
:10261000010C634509D00360904218D010607047E8
:102620004068014451601046F0E710B4094C24683A
:10263000A3420AD05B681944416013681B680360B9
:10264000904200D0106010BC70470460F8E77047FB
:1026500090180020800C002070B5054600F03EFE6A
:10266000344B1B68A3B1344B1B681D424AD135B1B2
:10267000083515F0070F02D025F007050835002DA5
:1026800042D02E4B1B68AB424DD32D4A146804E058
:10269000FFF780FFE7E722461C466368AB4202D2A1
:1026A0002368002BF7D1234B1B68A3423DD016684B
:1026B00008362368136063685B1B102B10D9601900
:1026C00010F0070F08D04FF0500383F31188BFF3C9
:1026D0006F8FBFF34F8FFEE743606560FFF78CFF9E
:1026E000626816490B689B1A0B60164909688B4291
:1026F00001D214490B60104B1B6813436360002325
:10270000236002E0002600E0002600F081FE16F0C3
:10271000070F0CD04FF0500383F31188BFF36F8F76
:10272000BFF34F8FFEE70026EFE70026EDE73046C8
:1027300070BD00BF800C0020841800208818002085
:10274000901800208C18002080B338B50446A0F102
:10275000080550F8043C164A1268134208D14FF09D
:10276000500383F31188BFF36F8FBFF34F8FFEE7E2
:1027700050F8081C41B14FF0500383F31188BFF3A8
:102780006F8FBFF34F8FFEE723EA020340F8043C4C
:1027900000F0A4FD54F8041C064A13680B441360AF
:1027A0002846FFF729FF00F033FE38BD704700BF11
:1027B000841800208818002010B50446FFF7D2FDC9
:1027C000A26BE36B9A4204D00024FFF7EDFD204694
:1027D00010BD0124F9E710B50446FFF7C3FDA36B54
:1027E00023B90124FFF7E0FD204610BD0024F9E7DE
:1027F00070B504461546866B026C5AB903681BB166
:1028000000200136A66370BD406800F0CBFF0023B6
:102810006360F6E76DB98068FDF79AFC226CA368E7
:102820001344A3606268934219D32368A3602846C7
:10283000E7E7C068FDF78CFC226C5142E3689B1A05
:10284000E3602268934202D263680B44E360022D86
:1028500001D00020D5E726B1013E0020D1E728466F
:10286000CFE70020CDE708B50346026C62B1084609
:10287000D9681144D960D3F804C0614501D31968FF
:10288000D960D968FDF764FC08BD38B50546FFF787
:1028900069FD95F8454064B201E0013C64B2002C4A
:1028A0000ADD6B6A43B105F1240000F0D1FE002877
:1028B000F3D000F061FFF0E7FF2385F84530FFF724
:1028C00073FDFFF74FFD95F8444064B201E0013C11
:1028D00064B2002C0ADD2B6943B105F1100000F051
:1028E000B7FE0028F3D000F047FFF0E7FF2385F89C
:1028F0004430FFF759FD38BD38B5E0B10D46044608
:10290000FFF730FD2368E26B216C01FB0230606051
:102910000020A063A360013A02FB0133E360FF23C0
:1029200084F8443084F84530FDB9236963B9FFF772
:102930003BFD012038BD4FF0500383F31188BFF3F6
:102940006F8FBFF34F8FFEE704F1100000F080FEA1
:102950000028ECD04FF0E0234FF08052C3F8042D54
:10296000BFF34F8FBFF36F8FE1E704F11000FFF764
:102970005DFC04F12400FFF759FCD8E738B51D468B
:10298000049C0B4649B92460E0632364012120467E
:10299000FFF7B2FF84F84C5038BD2260F4E740B92D
:1029A0004FF0500383F31188BFF36F8FBFF34F8F46
:1029B000FEE710B584B01C46844653B192B189B984
:1029C0004FF0500383F31188BFF36F8FBFF34F8F26
:1029D000FEE74FF0500383F31188BFF36F8FBFF30F
:1029E0004F8FFEE76AB150230393039B502B13D004
:1029F0004FF0500383F31188BFF36F8FBFF34F8FF6
:102A0000FEE70029EFD04FF0500383F31188BFF3A6
:102A10006F8FBFF34F8FFEE7012384F84630009499
:102A20009DF818306046FFF7A9FF204604B010BD9E
:102A3000F0B585B0019288B10F461D460446B1B18C
:102A4000022D20D1E36B012B1DD04FF0500383F3F7
:102A50001188BFF36F8FBFF34F8FFEE74FF0500326
:102A600083F31188BFF36F8FBFF34F8FFEE7036CC3
:102A7000002BE5D04FF0500383F31188BFF36F8F25
:102A8000BFF34F8FFEE700F07DFE064658B9019B6D
:102A9000002B48D04FF0500383F31188BFF36F8FA2
:102AA000BFF34F8FFEE700263DE02A463946204619
:102AB000FFF79EFE636A7BB948B14FF0E0234FF009
:102AC0008052C3F8042DBFF34F8FBFF36F8FFFF712
:102AD0006BFC012005B0F0BD04F1240000F0B8FD4E
:102AE0000028F4D04FF0E0234FF08052C3F8042DBB
:102AF000BFF34F8FBFF36F8FE9E7FFF755FC00205F
:102B0000E8E702A800F0EAFD012619E0002384F8B6
:102B1000443021E0002384F8453023E02046FFF7CD
:102B2000B4FE00F075FCFFF71DFCA26BE36B9A424C
:102B3000BBD3022DB9D0019B002BDED0002EE0D0FC
:102B4000FFF732FC00F0CAFBFFF70CFC94F84420BE
:102B500052B2B2F1FF3FD9D094F8452052B2B2F14F
:102B6000FF3FD7D0FFF720FC01A902A800F0C2FD6B
:102B7000D8B92046FFF720FE0028CFD0019904F1F4
:102B8000100000F031FD2046FFF77FFE00F040FC12
:102B90000028C8D14FF0E0234FF08052C3F8042D35
:102BA000BFF34F8FBFF36F8FBDE72046FFF76DFE7A
:102BB00000F02EFC00208DE72DE9F84390B10F4680
:102BC00016461C460546B1B1022C20D1EB6B012BF9
:102BD0001DD04FF0500383F31188BFF36F8FBFF305
:102BE0004F8FFEE74FF0500383F31188BFF36F8FD1
:102BF000BFF34F8FFEE7036C002BE5D04FF050037F
:102C000083F31188BFF36F8FBFF34F8FFEE7FFF79A
:102C100093FCEFF311894FF0500383F31188BFF356
:102C20006F8FBFF34F8FAA6BEB6B9A4206D3022CC8
:102C300004D0002089F31188BDE8F88395F8458019
:102C40004FFA88F8224639462846FFF7D1FDB8F1F9
:102C5000FF3F06D008F101035BB285F84530012043
:102C6000E8E76B6A0BB90120E4E705F1240000F006
:102C7000EFFC18B126B101203060DBE70120D9E775
:102C80000120D7E7F0B585B0019290B10F46044618
:102C9000C1B100F077FD064600BB019B002B5ED062
:102CA0004FF0500383F31188BFF36F8FBFF34F8F43
:102CB000FEE74FF0500383F31188BFF36F8FBFF32C
:102CC0004F8FFEE7036C002BE3D04FF0500383F3EC
:102CD0001188BFF36F8FBFF34F8FFEE700263EE0F2
:102CE00039462046FFF7BFFD013DA563236923B99F
:102CF000FFF75AFB012005B0F0BD04F1100000F011
:102D0000A7FC0028F4D04FF0E0234FF08052C3F826
:102D1000042DBFF34F8FBFF36F8FE9E7FFF744FB3D
:102D20000020E8E702A800F0D9FC012621E00023FA
:102D300084F8443029E0002384F845302BE0204615
:102D4000FFF7A3FD00F064FB09E02046FFF79DFDBF
:102D500000F05EFB2046FFF73EFD00283FD1FFF765
:102D600001FBA56B002DBBD1019B002BD6D0002E03
:102D7000D8D0FFF719FB00F0B1FAFFF7F3FA94F897
:102D800044305BB2B3F1FF3FD1D094F845305BB231
:102D9000B3F1FF3FCFD0FFF707FB01A902A800F076
:102DA000A9FC0028D1D12046FFF715FD0028C6D088
:102DB000019904F1240000F017FC2046FFF765FD9F
:102DC00000F026FB0028CAD14FF0E0234FF08052DC
:102DD000C3F8042DBFF34F8FBFF36F8FBFE7002001
:102DE00089E700000023072B0CD8074A52F833204C
:102DF0000AB10133F7E7044A42F8331002EBC30388
:102E000058607047704700BF9818002070B504469E
:102E10000D461646FFF7A6FA94F844305BB2B3F1BC
:102E2000FF3F0DD094F845305BB2B3F1FF3F0BD0BC
:102E3000FFF7BAFAA36B5BB12046FFF726FD70BD22
:102E4000002384F84430EDE7002384F84530EFE7B1
:102E50003246294604F1240000F0DEFBECE70000D6
:102E6000084B1B681B6823B9074B4FF0FF321A60F1
:102E70007047044B1B68DB68DB685A68024B1A60BA
:102E8000704700BFDC180020881D00202DE9F047A6
:102E900080460D4617469946089EDDF824A00A9CF8
:102EA0009200A521206B00F001FF236B07F1804207
:102EB000013A03EB820727F007074FF0000CBCF143
:102EC0000F0F0BD815F80C2004EB0C0383F83420FB
:102ED00015F80C3013B10CF1010CF0E7002384F865
:102EE0004330372E00D93726E662E6640025256593
:102EF000201DFFF7A6F904F11800FFF7A2F92461DD
:102F0000C6F13806A6616462656584F858504A4681
:102F100041463846FFF700FA2060BAF1000F01D0B1
:102F2000CAF80040BDE8F08738B5002407E004EB9C
:102F3000840293000E481844FFF778F90134372CC7
:102F4000F5D90C4D2846FFF771F90B4C2046FFF7D9
:102F50006DF90A48FFF76AF90948FFF767F9094868
:102F6000FFF764F9084B1D60084B1C6038BD00BFBB
:102F7000E41800205C1D0020701D0020901D002022
:102F8000BC1D0020A81D0020DC180020E018002037
:102F900010B50446FFF7E6F9224A136801331360BF
:102FA000214B1B685BB1214B1B686BB91E4B1B6827
:102FB000DA6AE36A9A4207D81B4B1C6004E01A4B9A
:102FC0001C601368012B29D0194A13680133136060
:102FD0006364E06A174B1B68984201D9154B18606F
:102FE00000EB8000211D144B03EB8000FFF72CF950
:102FF000FFF7DAF90D4B1B687BB10B4B1B68DA6AE4
:10300000E36A9A4209D24FF0E0234FF08052C3F8AE
:10301000042DBFF34F8FBFF36F8F10BDFFF784FFF9
:10302000D2E700BF441D0020D8180020A41D0020B6
:10303000541D0020581D0020E418002010B504463F
:1030400090F8593063B1012B11D0022B0ED04FF004
:10305000500383F31188BFF36F8FBFF34F8FFEE7E9
:10306000006BFFF771FB2046FFF76EFB10BDFFF70B
:103070006BFBFBE70F4B1B68D3B110B5FFF772F981
:103080000D4BDB68DC68201DFFF702F90B4A136863
:10309000013B1360074A1368013B1360FFF784F993
:1030A0002046FFF7CBFF034B1B68002BE6D110BD7A
:1030B000704700BF481D0020BC1D0020441D00209B
:1030C00008B5FFF7D7FF074B1B68012BF9D94FF065
:1030D000E0234FF08052C3F8042DBFF34F8FBFF3AE
:1030E0006F8FEEE7E418002070B504460D46174BCD
:1030F0001E68174B18680430FFF7CAF8B4F1FF3F99
:103100000DD03444124B1B685C60A64210D9114BA1
:1031100018680F4B19680431FFF7A1F870BD002D36
:10312000EFD00B4B196804310B48FFF78DF8F5E72A
:103130000A4B1868064B19680431FFF790F8084BE2
:103140001B68A342EAD9064B1C60E7E7D01D0020AC
:10315000D8180020E0180020A81D0020DC1800204E
:10316000881D002030B587B00B9C7CB10C9DB5B19B
:103170005C250495049D5C2D1AD04FF0500383F319
:103180001188BFF36F8FBFF34F8FFEE74FF05003EF
:1031900083F31188BFF36F8FBFF34F8FFEE74FF0BC
:1031A000500383F31188BFF36F8FBFF34F8FFEE798
:1031B0000C9D2C63022485F8594000240394029549
:1031C00005AC01940A9C0094FFF760FE0C98FFF791
:1031D000DFFE059807B030BD2DE9F04385B0074606
:1031E000884614461E469000FFF736FA00B3814623
:1031F0005C20FFF731FA0546B0B1C0F83090E5B178
:10320000002385F85930039302950D9B01930C9B85
:1032100000933346224641463846FFF737FE28469C
:10322000FFF7B6FE012005E04846FFF78DFAE6E716
:103230004FF0FF3005B0BDE8F0834FF0FF30F9E705
:1032400010B588B000240594069407AA06A905A81D
:10325000FEF7D4FF059B0293069B0193009423463F
:10326000079A18491848FFF77DFF184B186040B1BE
:1032700000F04CFB012806D0B0F1FF3F18D008B099
:1032800010BD0020F6E74FF0500383F31188BFF321
:103290006F8FBFF34F8F0E4B4FF0FF321A600D4B05
:1032A00001221A600C4B00221A60FFF7E5F8E6E7EE
:1032B0004FF0500383F31188BFF36F8FBFF34F8F2D
:1032C000FEE700BFF03E0008C1300008841D00206A
:1032D000881D0020A41D0020D01D0020024A136874
:1032E00001331360704700BF501D0020014B186868
:1032F000704700BFD01D0020F8B53A4B1B68002B6B
:1033000064D1394B1D6801351D60C5B9374B1B6849
:103310001B6843B14FF0500383F31188BFF36F8FE5
:10332000BFF34F8FFEE7314A1168314B18681060C8
:103330001960304A136801331360FFF791FD2E4B7B
:103340001B68AB4238D900272C4B1B68DB6A03EBA8
:1033500083039A002A4B9B58012B3CD901273AE062
:103360000127224B1B681B6843B3204B1B68DB689B
:10337000DC6863689D4226D3261D3046FEF788FF31
:10338000A36A1BB104F11800FEF782FFE36A1D4A2D
:103390001268934201D91B4A136003EB83039A001E
:1033A000314617481044FEF74FFFE26A134B1B6883
:1033B000DB6A9A42D4D2D4E70027D2E70E4B4FF013
:1033C000FF321A60C0E70C4A1360BDE70E4A13686B
:1033D0000133136000270D4B1B6803B101273846EA
:1033E000F8BD00BF501D0020D01D0020DC180020BB
:1033F000E01800208C1D0020881D0020D818002017
:10340000E4180020581D00204C1D0020D41D002071
:1034100038B5354B1B6843B94FF0500383F311881F
:10342000BFF36F8FBFF34F8FFEE7FEF79BFF2E4B6F
:103430001A68013A1A601B68002B4FD12B4B1B688E
:103440000BB900244BE00024294B1B681BB3284B0D
:10345000DB68DC6804F11800FEF71AFF251D28461A
:10346000FEF716FFE06A234B1B68984201D9214BF7
:10347000186000EB800029461F4B03EB8000FEF72D
:10348000E3FEE26A1D4B1B68DB6A9A42DCD31C4BED
:1034900001221A60D8E70CB1FFF7E2FC194B1C6857
:1034A00084B9174B1C68D4B14FF0E0234FF0805221
:1034B000C3F8042DBFF34F8FBFF36F8F01240EE0CD
:1034C000013C07D0FFF718FF0028F9D00C4B012270
:1034D0001A60F5E70B4B00221A60E2E70024FEF7C2
:1034E00063FF204638BD00BF501D0020441D002052
:1034F000901D0020581D0020E4180020D81800203E
:10350000D41D00204C1D002010B5A8B10446104B5E
:103510001B6843B14FF0500383F31188BFF36F8FE3
:10352000BFF34F8FFEE7FFF7D9FE00212046FFF7DC
:10353000DBFDFFF76DFF48B94FF0E0234FF08052FD
:10354000C3F8042DBFF34F8FBFF36F8F10BD00BFC3
:10355000501D00201F4B1B681BB11F4B01221A601E
:1035600070471D4B00221A601C4B1B6803EB830144
:103570008A001B498A585AB90BB1013BF6E74FF054
:10358000500383F31188BFF36F8FBFF34F8FFEE7B4
:1035900003EB830082000A4450684068506003EBEC
:1035A000830C4FEA8C020832114488420BD003EBA3
:1035B000830291000A4A0A445268D168094A11609C
:1035C000064A13607047406862469100044A0A4404
:1035D0005060ECE7501D0020D41D0020581D002035
:1035E000E4180020D818002058B110B50C46094A3C
:1035F00011681831FEF733FE01212046FFF774FDF4
:1036000010BD4FF0500383F31188BFF36F8FBFF3EA
:103610004F8FFEE7D818002038B570B10D4614461C
:103620000A4A11681831FEF70FFE0CB14FF0FF3552
:1036300021462846FFF758FD38BD4FF0500383F36D
:103640001188BFF36F8FBFF34F8FFEE7D8180020AC
:1036500038B5C368DC6824B304F118052846FEF7C2
:1036600017FE184B1B682BBB251D2846FEF710FEC6
:10367000E06A154B1B68984201D9134B186000EBA8
:1036800080002946114B03EB8000FEF7DDFDE26A66
:103690000F4B1B68DB6A9A4211D901200D4B186051
:1036A00038BD4FF0500383F31188BFF36F8FBFF322
:1036B0004F8FFEE729460848FEF7C6FDE7E70020E2
:1036C000EEE700BF501D0020581D0020E418002028
:1036D000D8180020D41D0020901D0020034B1B682B
:1036E0000360034B1B684360704700BF8C1D0020C4
:1036F000D01D0020D8B170B50C46054601B3FEF7C9
:1037000031FE1B4B19686B68C81A2268B2F1FF3F83
:1037100027D0184E3668D5F800C0B44501D08B428A
:1037200024D9824215D80023236001241AE04FF0E7
:10373000500383F31188BFF36F8FBFF34F8FFEE702
:103740004FF0500383F31188BFF36F8FBFF34F8F98
:10375000FEE75B1A134423602846FFF7BFFF0024EF
:1037600000E00024FEF720FE204670BD0124F9E7AA
:10377000D01D00208C1D0020014B01221A607047D3
:10378000D41D0020054B1B6833B1054B1B680BB1E2
:10379000002070470220704701207047A41D0020C0
:1037A000501D002000283BD038B504461E4B1B6836
:1037B000834208D04FF0500383F31188BFF36F8F1B
:1037C000BFF34F8FFEE7036D43B94FF0500383F310
:1037D0001188BFF36F8FBFF34F8FFEE7013B036587
:1037E000C16AC26C91421DD00BB1002038BD051DCD
:1037F0002846FEF74DFDE06CE062C0F13803A3619E
:103800000A4B1B68984201D9084B186000EB8000F6
:103810002946074B03EB8000FEF716FD0120E5E784
:10382000002070470020E1E7D8180020581D002034
:10383000E4180020064B1A681368B3FA83F35B0997
:10384000036013B9D368186870470020704700BF41
:10385000D81D002008B54160006191420CD8D21AF1
:1038600083699A4201D3012008BD011D094B1868E4
:10387000FEF7F5FC0020F7E79A4201D2994206D202
:10388000011D054B1868FEF7EAFC0020ECE701205B
:10389000EAE700BFDC1D0020D81D002030B583B052
:1038A000FEF760FD114B1B681BB1FEF77DFD03B0F9
:1038B00030BD0F4D2846FEF7B9FC0E4C2046FEF7F2
:1038C000B5FC0D4B1D600D4B1C60002300930C4B91
:1038D0000C4A10210A20FFF762F8044B18600028F8
:1038E000E3D00949FFF77EFADFE700BFFC1E0020A6
:1038F000801E0020941E0020D81D0020DC1D00200A
:10390000AC1E0020E01D0020F83E000810B588B075
:10391000FFF7C4FF124B1B68CBB10024059406943B
:1039200007AA06A905A8FEF775FC059B0293069B4E
:103930000193022300932346079A0A490A48FFF796
:1039400011FC0A4B186010B1012008B010BD4FF0F7
:10395000500383F31188BFF36F8FBFF34F8FFEE7E0
:10396000FC1E0020003F00084D3C0008001F002006
:10397000B8B19C4603461848006858B300B585B0F6
:1039800000910192029305291CDCFFF7FBFE02283F
:1039900010D000231A4669460F480068FFF748F820
:1039A00015E04FF0500383F31188BFF36F8FBFF31F
:1039B0004F8FFEE70023069A694607480068FFF725
:1039C00037F804E0002362466946FFF7F5F805B0D2
:1039D0005DF804FB00207047FC1E002070B582B02B
:1039E0001A4B1B681A6852B3DB681E68DC68251D19
:1039F0002846FEF74DFC636A20469847E369012B91
:103A0000EED1A36933449E4207D263602461294604
:103A10000E4B1868FEF723FCE2E7002100910B46ED
:103A200032462046FFF7A4FF0028D9D14FF05003BB
:103A300083F31188BFF36F8FBFF34F8FFEE7044A04
:103A4000106802490860136002B070BDD81D0020E4
:103A5000DC1D002038B50546FFF748FC0446074B3F
:103A60001B68834205D800232B60044B1C60204652
:103A700038BDFFF7B3FF01232B60F6E7A81E002037
:103A800070B582B006460D4614490968C968CC680D
:103A9000201DFEF7FDFBE169012904D0636A204681
:103AA000984702B070BDA16933462A46314420468A
:103AB000FFF7D0FE0028F1D0002100910B463246DE
:103AC0002046FFF755FF0028E8D14FF0500383F35D
:103AD0001188BFF36F8FBFF34F8FFEE7D81D002013
:103AE00070B582B006460C46FFF7F8FB01A8FFF759
:103AF000B1FF019B2BBB05460CB9B0421AD22CB1C9
:103B0000124B1B681C68B4FA84F464092246711BCA
:103B10000F4B1868FFF77AF9FFF77AFC98B94FF066
:103B2000E0234FF08052C3F8042DBFF34F8FBFF353
:103B30006F8F08E0FFF76CFC29463046FFF7A0FFC7
:103B400001E0FFF765FC02B070BD00BFDC1D002086
:103B5000FC1E002010B588B002E0049B002B0FDA99
:103B6000002204A9384B1868FFF78CF8002869D0A8
:103B7000049B002BF1DA07990698059B9847ECE720
:103B8000069C636913B1201DFEF782FB03A8FFF7B3
:103B900061FF049B092BE3D801A252F823F000BF78
:103BA000C93B0008C93B0008C93B0008613B00084D
:103BB0000F3C0008353C0008C93B0008C93B000821
:103BC000613B00080F3C0008059BA16902461944AF
:103BD0002046FFF73FFE0028C2D0636A2046984780
:103BE000E369012BBCD1A269002100910B46059825
:103BF00002442046FFF7BCFE0028B1D14FF050032D
:103C000083F31188BFF36F8FBFF34F8FFEE70599E2
:103C1000A16131B10346024601442046FFF71AFE76
:103C20009EE74FF0500383F31188BFF36F8FBFF30C
:103C30004F8FFEE794F82C30002B91D12046FEF7F1
:103C400083FD8DE708B010BDFC1E002000B583B0D9
:103C500001A8FFF7EFFD0199FFF742FFFFF77AFF99
:103C6000F6E7000070B50D4E0D4D761BB61006D070
:103C7000002455F8043B01349847A642F9D1094E77
:103C8000094D00F0D5F8761BB61006D0002455F883
:103C9000043B01349847A642F9D170BD0C3F00089F
:103CA0000C3F0008143F00080C3F0008830730B5A4
:103CB00048D0541E002A3FD00346CAB201E0013C5E
:103CC0003AD303F8012B9D07F9D1032C2DD9CDB29E
:103CD00045EA05250F2C45EA054536D9A4F1100221
:103CE00022F00F0C03F1200EE6444FEA121C03F100
:103CF000100242E9045542E9025510327245F8D1EA
:103D00000CF1010214F00C0F03EB021204F00F0C83
:103D100013D0ACF1040323F003030433134442F83B
:103D2000045B9342FBD10CF003042CB1CAB21C44D7
:103D300003F8012B9C42FBD130BD64461346002C96
:103D4000F4D1F9E703461446BFE71A46A446E0E774
:103D5000024B13B1024800F005B8704700000000A4
:103D6000713D0008002301461A46184600F01AB8B3
:103D700038B5084B084D5B1B9C1007D0043B1D4415
:103D8000013C55F804399847002CF9D1BDE838407A
:103D900000F054B8183F0008143F0008704700BFF7
:103DA000704700BF2DE9F047DFF87CA00646DAF83F
:103DB000000098460F469146FFF7F0FF1B4B1B682B
:103DC000D3F8484124B365681F2D26DC5EB96B1C0F
:103DD0000235DAF80000636044F82570FFF7E0FF71
:103DE0000020BDE8F087012304EB8501C1F888902D
:103DF000D4F88821AB401A43022EC4F88821C1F8B8
:103E00000881E4D1D4F88C211343C4F88C31DEE767
:103E100003F5A674C3F84841D5E7DAF80000FFF7C8
:103E2000BFFF4FF0FF30DCE758040020083F0008D8
:103E3000F8B500BFF8BC08BC9E467047F8B500BF97
:083E4000F8BC08BC9E46704767
:103E4800FFFF0009042A0000000000000000000035
:103E58006D6F646553656C656374696F6E0000000F
:103E680064656661756C745461736B00683E000824
:103E7800000000000000000000000000000000003A
:103E88000002000018000000000000000000000010
:103E9800583E00080000000000000000000000007C
:103EA80000000000000800001800000000000000EA
:103EB80000000000FFFFFE0205FA000000000000FD
:103EC80000000000010203040607080900000000C2
:103ED8000102030402030405060708090A0B0C0D76
:103EE8000E0F10100102000049444C45000000006C
:103EF800546D725100000000546D722053766300B7
:043F08003000002065
:083F0C00513D000835010008D9
:043F1400110100088F
:103F1800FF000000900100005802000000020000AD
:103F28000002000000020000000200000024F4006B
:103F38000100000010000000AAAAAAAA00000000C0
:103F4800000000001C03002084030020EC03002074
:103F58000000000000000000000000000000000059
:103F68000000000000000000000000000000000049
:103F78000000000000000000000000000000000039
:103F88000000000000000000000000000000000029
:103F98000000000000000000000000000000000019
:103FA8000000000000000000000000000000000009
:103FB80000000000000000000000000000000000F9
:103FC80000000000000000000000000000000000E9
:103FD80000000000000000000000000000000000D9
:103FE80000000000000000000100000000000000C8
:103FF8000E33CDAB34126DE6ECDE05000B0000008D
:1040080000000000000000000000000000000000A8
:104018000000000000000000000000000000000098
:104028000000000000000000000000000000000088
:104038000000000000000000000000000000000078
:0C4368000000000000000000041F002006
:0400000508000BB92B
:00000001FF
