:020000040800F2
:1000000000500020611400080112000803120008CB
:10001000051200080712000809120008000000007D
:10002000000000000000000000000000112C00088B
:100030000B12000800000000B12C0008F52C00088D
:10004000A9140008A9140008A9140008A91400089C
:10005000A9140008A9140008A9140008A91400088C
:10006000A9140008A9140008A9140008A91400087C
:10007000A9140008A9140008A9140008A91400086C
:10008000A9140008A9140008A9140008A91400085C
:10009000A9140008A9140008A91400080D120008EA
:1000A000A9140008A9140008A9140008A91400083C
:1000B000A9140008A914000819120008A9140008BE
:1000C000A9140008A9140008A9140008A91400081C
:1000D000A914000829120008391200084912000862
:1000E000A9140008A9140008A914000800000000C1
:1000F0000000000000000000000000000000000000
:0C01000000000000000000005FF808F1A3
:1001100010B5054C237833B9044B13B10448AFF341
:1001200000800123237010BD440400200000000063
:100130000047000808B5034B1BB103490348AFF360
:10014000008008BD000000004804002000470008AF
:1001500081F0004102E000BF83F0004330B54FEA78
:1001600041044FEA430594EA050F08BF90EA020FE5
:100170001FBF54EA000C55EA020C7FEA645C7FEA78
:10018000655C00F0E2804FEA5454D4EB5555B8BF9B
:100190006D420CDD2C4480EA020281EA030382EA0C
:1001A000000083EA010180EA020281EA0303362D9E
:1001B00088BF30BD11F0004F4FEA01314FF4801C71
:1001C0004CEA113102D0404261EB410113F0004F83
:1001D0004FEA03334CEA133302D0524263EB43033A
:1001E00094EA050F00F0A780A4F10104D5F1200ED8
:1001F0000DDB02FA0EFC22FA05F2801841F1000133
:1002000003FA0EF2801843FA05F359410EE0A5F106
:1002100020050EF1200E012A03FA0EFC28BF4CF037
:10022000020C43FA05F3C01851EBE37101F00045ED
:1002300007D54FF0000EDCF1000C7EEB00006EEBFA
:100240000101B1F5801F1BD3B1F5001F0CD3490884
:100250005FEA30004FEA3C0C04F101044FEA4452DB
:1002600012F5800F80F09A80BCF1004F08BF5FEA62
:10027000500C50F1000041EB045141EA050130BD42
:100280005FEA4C0C404141EB0101013C28BFB1F554
:10029000801FE9D291F0000F04BF01460020B1FA9F
:1002A00081F308BF2033A3F10B03B3F120020CDA72
:1002B0000C3208DD02F1140CC2F10C0201FA0CF050
:1002C00021FA02F10CE002F11402D8BFC2F1200CB5
:1002D00001FA02F120FA0CFCDCBF41EA0C0190406B
:1002E000E41AA2BF01EB0451294330BD6FEA0404B4
:1002F0001F3C1CDA0C340EDC04F11404C4F120029F
:1003000020FA04F001FA02F340EA030021FA04F3B0
:1003100045EA030130BDC4F10C04C4F1200220FA07
:1003200002F001FA04F340EA0300294630BD21FA45
:1003300004F0294630BD94F0000F83F4801306BF0B
:1003400081F480110134013D4EE77FEA645C18BFFF
:100350007FEA655C29D094EA050F08BF90EA020F96
:1003600005D054EA000C04BF1946104630BD91EA8E
:10037000030F1EBF0021002030BD5FEA545C05D191
:100380004000494128BF41F0004130BD14F58004D0
:100390003CBF01F5801130BD01F0004545F0FE4144
:1003A00041F470014FF0000030BD7FEA645C1ABF79
:1003B000194610467FEA655C1CBF0B46024650EAB0
:1003C000013406BF52EA033591EA030F41F40021DC
:1003D00030BD00BF90F0000F04BF0021704730B562
:1003E0004FF4806404F132044FF000054FF0000137
:1003F00050E700BF90F0000F04BF0021704730B5F8
:100400004FF4806404F1320410F0004548BF4042CC
:100410004FF000013EE700BF42004FEAE2014FEA21
:1004200031014FEA02701FBF12F07F4393F07F4FFC
:1004300081F06051704732F07F4208BF704793F0FF
:100440007F4F04BF41F40021704730B54FF4607412
:1004500001F0004521F000411CE700BF50EA010215
:1004600008BF704730B54FF000050AE050EA0102BE
:1004700008BF704730B511F0004502D5404261EB2E
:1004800041014FF4806404F132045FEA915C3FF46F
:10049000D8AE4FF003025FEADC0C18BF03325FEA0C
:1004A000DC0C18BF033202EBDC02C2F1200300FABD
:1004B00003FC20FA02F001FA03FE40EA0E0021FAE2
:1004C00002F11444BDE600BF70B54FF0FF0C4CF4D0
:1004D000E06C1CEA11541DBF1CEA135594EA0C0F82
:1004E00095EA0C0F00F0DEF82C4481EA030621EABD
:1004F0004C5123EA4C5350EA013518BF52EA0335F8
:1005000041F4801143F4801338D0A0FB02CE4FF0A9
:100510000005E1FB02E506F00042E0FB03E54FF0D9
:100520000006E1FB03569CF0000F18BF4EF0010ED1
:10053000A4F1FF04B6F5007F64F5407404D25FEACD
:100540004E0E6D4146EB060642EAC62141EA555180
:100550004FEAC52040EA5E504FEACE2EB4F1FD0CC2
:1005600088BFBCF5E06F1ED8BEF1004F08BF5FEA40
:10057000500E50F1000041EB045170BD06F00046F2
:1005800046EA010140EA020081EA0301B4EB5C049F
:10059000C2BFD4EB0C0541EA045170BD41F4801197
:1005A0004FF0000E013C00F3AB8014F1360FDEBFBC
:1005B000002001F0004170BDC4F10004203C35DA98
:1005C0000C341BDC04F11404C4F1200500FA05F31B
:1005D00020FA04F001FA05F240EA020001F00042BC
:1005E00021F0004110EBD37021FA04F642EB060132
:1005F0005EEA430E08BF20EAD37070BDC4F10C045C
:10060000C4F1200500FA04F320FA05F001FA04F21F
:1006100040EA020001F0004110EBD37041F100010B
:100620005EEA430E08BF20EAD37070BDC4F1200516
:1006300000FA05F24EEA020E20FA04F301FA05F27E
:1006400043EA020321FA04F001F0004121FA04F226
:1006500020EA020000EBD3705EEA430E08BF20EAF6
:10066000D37070BD94F0000F0FD101F00046400030
:1006700041EB010111F4801F08BF013CF7D041EAB2
:10068000060195F0000F18BF704703F000465200B6
:1006900043EB030313F4801F08BF013DF7D043EA87
:1006A0000603704794EA0C0F0CEA135518BF95EA3D
:1006B0000C0F0CD050EA410618BF52EA4306D1D1C4
:1006C00081EA030101F000414FF0000070BD50EAE3
:1006D000410606BF1046194652EA430619D094EA6D
:1006E0000C0F02D150EA013613D195EA0C0F05D157
:1006F00052EA03361CBF104619460AD181EA0301AB
:1007000001F0004141F0FE4141F470014FF0000062
:1007100070BD41F0FE4141F4780170BD70B54FF0FD
:10072000FF0C4CF4E06C1CEA11541DBF1CEA13557D
:1007300094EA0C0F95EA0C0F00F0A7F8A4EB05045F
:1007400081EA030E52EA03354FEA013100F0888056
:100750004FEA03334FF0805545EA131343EA12631F
:100760004FEA022245EA111545EA10654FEA0026D4
:100770000EF000419D4208BF964244F1FD0404F58D
:10078000407402D25B084FEA3202B61A65EB0305E9
:100790005B084FEA32024FF480104FF4002CB6EBA6
:1007A000020E75EB030E22BFB61A754640EA0C0026
:1007B0005B084FEA3202B6EB020E75EB030E22BF66
:1007C000B61A754640EA5C005B084FEA3202B6EBA7
:1007D000020E75EB030E22BFB61A754640EA9C0066
:1007E0005B084FEA3202B6EB020E75EB030E22BF36
:1007F000B61A754640EADC0055EA060E18D04FEAF4
:10080000051545EA16754FEA06164FEAC30343EA93
:1008100052734FEAC2025FEA1C1CC0D111F4801F60
:100820000BD141EA00014FF000004FF0004CB6E759
:1008300011F4801F04BF01430020B4F1FD0C88BFF8
:10084000BCF5E06F3FF6AFAEB5EB030C04BFB6EB03
:10085000020C5FEA500C50F1000041EB045170BDF6
:100860000EF0004E4EEA113114EB5C04C2BFD4EB23
:100870000C0541EA045170BD41F480114FF0000EA7
:10088000013C90E645EA060E8DE60CEA135594EA23
:100890000C0F08BF95EA0C0F3FF43BAF94EA0C0F26
:1008A0000AD150EA01347FF434AF95EA0C0F7FF49B
:1008B00025AF104619462CE795EA0C0F06D152EAEF
:1008C00003353FF4FDAE1046194622E750EA4106D3
:1008D00018BF52EA43067FF4C5AE50EA41047FF4E4
:1008E0000DAF52EA43057FF4EBAE12E74FEA410247
:1008F00012F5001215D211D56FF47873B3EB625272
:1009000012D94FEAC12343F0004343EA505311F098
:10091000004F23FA02F018BF404270474FF000002A
:10092000704750EA013005D111F0004008BF6FF068
:10093000004070474FF00000704700BF844641EA16
:10094000000313F0030349D1403A23D30B6803603B
:100950004B6843608B688360CB68C3600B6903613D
:100960004B6943618B698361CB69C3610B6A036225
:100970004B6A43628B6A8362CB6AC3620B6B03630D
:100980004B6B43638B6B8363CB6BC36340304031F2
:10099000403ADBD230320BD30B6803604B684360C4
:1009A0008B688360CB68C36010301031103AF3D28B
:1009B0000C3205D351F8043B40F8043B043AF9D219
:1009C000043208D0D2071CBF11F8013B00F8013BEC
:1009D00001D30B8803806046704700BF082A13D3F9
:1009E0008B07B1D010F00303AED0C3F10403D21AC9
:1009F000DB071CBF11F8013B00F8013BA4D331F821
:100A0000023B20F8023B9FE7043AD9D3013A11F8A0
:100A1000013B00F8013BF9D20B7803704B7843702F
:100A20008B7883706046704708B5012002F02AF881
:100A3000FBE70000022816D003284DD0012800D083
:100A40007047354A1368013313600A784B7843EADC
:100A500002231BB2314A13608878CB7843EA002323
:100A60001BB2536070472C4A1368013313600A7835
:100A70004B7843EA02231BB2294A13608878CB786B
:100A800043EA00231BB253600A794B7943EA0223FD
:100A90001BB2244A13608879CB7943EA00231BB246
:100AA00053600A7A4B7A43EA02231BB21E4A136050
:100AB000887ACB7A43EA00231BB253600A7B4B7BD4
:100AC00043EA02231BB2194A1360887BCB7B43EABB
:100AD00000231BB2536070470F4A13680133136041
:100AE0000A784B7843EA02231BB20D4A13608878D8
:100AF000CB7843EA00231BB253600A794B7943EA6F
:100B000002231BB2074A13608879CB7943EA00239A
:100B10001BB2536094E700BF8C04002084040020C3
:100B2000640400206C040020740400207C04002075
:100B300010B50C46096803291DDD0378122B1BD163
:100B40004378342B1AD1827890F803E0043002F114
:100B5000030C61450FDD01467046FFF76BFF002374
:100B6000236008E0C2185278C25401332268013A67
:100B70009A42F7DC226010BD0023F7E70023F5E777
:100B800038B502680A4B9A4200D038BD044609497C
:100B90000B685A1C0A60084D2A780848C254FFF7AF
:100BA000C7FF01222946204601F09BFEEDE700BF6A
:100BB0000044004014050020180500209404002083
:100BC00008B5074A0021074801F0E6FE064B186009
:100BD000064A0021064801F0DFFE064B186008BDFA
:100BE00044470008290A00086004002068470008FC
:100BF000D90C00089004002000B583B08DF80700E0
:100C0000642301220DF10701024801F021FC03B029
:100C10005DF804FBAC0500202DE9F04784B0824666
:100C2000D0E90E89C0E91089D0E90C45C0E90E452C
:100C3000D0E9062300F12001D1E90001FFF78CFA89
:100C400002460B46CDE90023CAE90C23DAE9006726
:100C500022462B46FFF780FA02460B4630463946BD
:100C6000FFF732FC06460F46DAE90223DDE9000110
:100C7000FFF72AFC02460B4630463946FFF76EFA6C
:100C800006460F46DAE90412CDE9021222462B4647
:100C900020462946FFF762FA02460B46DDE90001CD
:100CA000FFF75AFA02460B4640464946FFF756FA06
:100CB00002460B46DDE90201FFF706FC02460B4641
:100CC00030463946FFF74AFA02460B46CAE90A237C
:100CD00004B0BDE8F08700002DE9F043A7B04FF461
:100CE0007A7001F0CFFE01220DF197016A4801F000
:100CF000F8FD0320FFF780FF00F0A8F9674C012200
:100D00004021204600F0D0FD4FF47A7001F0BAFE89
:100D100000224021204600F0C7FD0122402120464C
:100D200000F0C2FD322001F0ADFE0022402120463D
:100D300000F0BAFD322001F0A5FE0122402120463C
:100D400000F0B2FD322001F09DFE0022402120463D
:100D500000F0AAFD322001F095FE0122402120463C
:100D600000F0A2FD322001F08DFE0022402120463D
:100D700000F09AFD4FF4FA7001F084FE484B1B68B6
:100D80002493642001F07EFE4824224600210DEBCE
:100D9000040003F0F3FB22460021684603F0EEFB5B
:100DA00039A3D3E90023CDE9122339A1D1E9000108
:100DB000CDE91401CDE91623CDE90023CDE90201E7
:100DC000CDE904234FF4FA7840F20D2947E0354B82
:100DD0001C685D6814B90DB945464C462046FFF7BE
:100DE00009FBCDE918013046FFF704FBCDE91A01F4
:100DF0002846FFF7FFFACDE906013846FFF7FAFA71
:100E0000CDE9080112A8FFF707FF06460F46DFF8F5
:100E10009880D8F80000FFF7EDFA32463B46FFF71E
:100E20009DF9FFF763FDC8F800006846FFF7F4FE80
:100E300006460F46DFF87480D8F80000FFF7DAFAAC
:100E400032463B46FFF78AF9FFF750FDC8F800002D
:100E500000F0FCF8A846A146012001F013FE249AF8
:100E60000F4B1B689A42F7D00D4B1B682493104B15
:100E70001E685F68002EAAD1002FA8D1012001F0C2
:100E800001FEECE7AFF300809A9999999999B93FDF
:100E90000AD7A3703D0AB73FAC050020000C014003
:100EA0008C0400206C0400200000002004000020BE
:100EB0006404002070B588B000240494059406945E
:100EC0000794204B9A6942F020029A619A6902F0D5
:100ED00020020192019A9A6942F004029A619A6989
:100EE00002F004020292029A9A6942F008029A61A0
:100EF0009B6903F008030393039B134D2246402193
:100F0000284600F0D1FC40230493012605960223D5
:100F10000693079304A9284600F0B4FB80230493AA
:100F20000A4B0593069604A9284600F0ABFB22461F
:100F30000521172000F0F0FA172000F025FB08B07B
:100F400070BD00BF00100240000C014000003110D5
:100F500008B50268034B9A4200D008BD00F0B8FA09
:100F6000FBE700BF0008004072B6FEE700B591B095
:100F70002822002106A803F001FB0023019302931D
:100F8000039304930593012206924FF48033079351
:100F90000A9202220D920E934FF4E0130F9306A8CB
:100FA00000F0AEFC80B90F230193022102910023CF
:100FB00003934FF480620492059301A800F0D2FEDF
:100FC00020B911B05DF804FBFFF7CEFFFFF7CCFFAF
:100FD00008B500F06BFAFFF7C9FFFFF76BFF00F0F1
:100FE0003DF900F055F900F06DF901F08DFCFFF7C7
:100FF000E7FD01F0ABFCFEE7124B1B68B3F5967FF3
:1010000003DA104B4FF496721A600E4B1B68B3F55F
:101010002F7F03DD0B4B4FF42F721A600A4B1B68B6
:10102000B3F5967F03DA084B4FF496721A60064BBD
:101030001B68B3F52F7F03DD034B4FF42F721A604B
:10104000704700BF000000200400002008B5FFF733
:10105000D3FF4FF4FA72094B1988012000F020F8F1
:10106000074B1968C1F57A714FF4FA7289B2022000
:1010700000F016F800F044F808BD00BF00000020A2
:1010800004000020002305E012F800C063449BB276
:101090000130C0B28842F7D9D843C0B270470000CF
:1010A00030B585B005460C469646134BEC460FCB43
:1010B000ACE807008CF800308DF80250230A8DF858
:1010C00006308DF807404FEA1E238DF80A308DF860
:1010D0000BE06A460B210220FFF7D4FF8DF80C00CD
:1010E00064230D226946054801F0B2F9012001F0A0
:1010F000C9FC05B030BD00BF18470008F40500204A
:1011000000B583B0084B93E803000090ADF80410DD
:10111000642306226946054801F09AF9012001F08E
:10112000B1FC03B05DF804FB8C470008F405002017
:1011300000B583B0114B9A6942F001029A619A6935
:1011400002F001020092009ADA6942F08052DA61FC
:10115000DB6903F080530193019B00220F216FF0A4
:10116000010000F0D9F9064A536823F0E06343F028
:101170000073536003B05DF804FB00BF0010024031
:101180000000014000B589B0014600221E2000F099
:10119000C3F91E2000F0F8F9154BDA6942F0040299
:1011A000DA61DB6903F004030193019B02A903A840
:1011B00000F0B4FE00F092FE43000E48A0FB0323B3
:1011C0009B0C013B0C480D4A026040F2E732C260C2
:1011D000436000230361836000F0F0FF18B1012039
:1011E00009B05DF804FB044800F0B8FEF8E700BF62
:1011F0000010024083DE1B431C0500200008004055
:10120000FEE7FEE7FEE7FEE7FEE7704708B5802051
:1012100000F052FB08BD000008B5024800F0D6FE01
:1012200008BD00BF1C05002008B5024801F0FAF90E
:1012300008BD00BF6405002008B5024801F0F2F9BE
:1012400008BD00BFAC05002008B5024801F0EAF96E
:1012500008BD00BFF40500207047000008B50A482B
:101260000A4B03604FF4E133436000238360C360A3
:1012700003610C2242618361C36101F0B9F800B9D6
:1012800008BDFFF771FEFBE7640500200038014050
:1012900008B50A480A4B03604FF4E133436000236A
:1012A0008360C36003610C2242618361C36101F00A
:1012B0009FF800B908BDFFF757FEFBE7AC0500201B
:1012C0000044004008B50A480A4B03604FF4E1337C
:1012D000436000238360C36003610C224261836129
:1012E000C36101F085F800B908BDFFF73DFEFBE7DB
:1012F000F40500200048004030B58BB00023069371
:1013000007930893099303684F4A934207D04F4AC3
:10131000934236D04E4A934263D00BB030BD4D4B12
:101320009A6942F480429A619A6902F4804200927A
:10133000009A9A6942F004029A619B6903F00403DF
:101340000193019B4FF40073069302230793032339
:101350000993414D06A9284600F094F94FF48063A3
:10136000069300240794089406A9284600F08AF9F9
:1013700022460521252000F0CFF8252000F004F9B1
:10138000CBE7344BDA6942F40032DA61DA6902F40D
:1013900000320292029A9A6942F004029A619B69B1
:1013A00003F004030393039B042306930223079390
:1013B00003230993284D06A9284600F063F9082362
:1013C000069300240794089406A9284600F05AF9C9
:1013D00022462146262000F09FF8262000F0D4F86F
:1013E0009BE71C4BDA6942F48022DA61DA6902F485
:1013F00080220492049A9A6942F008029A619B69D9
:1014000003F008030593059B4FF4806306930223C2
:10141000079303230993114D06A9284600F032F9DA
:101420004FF40063069300240794089406A9284605
:1014300000F028F922462146272000F06DF82720E9
:1014400000F0A2F869E700BF003801400044004006
:10145000004800400010024000080140000C01401C
:10146000FFF7FAFE0B480C490C4A002302E0D4585F
:10147000C4500433C4188C42F9D3094A094C0023E0
:1014800001E013600432A242FBD303F053F8FFF7EC
:101490009FFD70470000002044040020E84700083A
:1014A000440400208C1F0020FEE7000008B5074A16
:1014B000136843F010031360032000F01BF80F20A3
:1014C000FFF760FEFFF734FE002008BD0020024059
:1014D000034A1168034B1B780B441360704700BF2D
:1014E0003C0600200C000020014B1868704700BF2C
:1014F0003C060020074AD36823F4E0631B041B0C5E
:10150000000200F4E060034343F0BF6343F40033A0
:10151000D360704700ED00E000B5194BDB68C3F302
:101520000223C3F1070CBCF1040F28BF4FF0040CD9
:1015300003F1040EBEF1060F18D9033B4FF0FF3E36
:101540000EFA0CFC21EA0C0199400EFA03F322EA90
:101550000303194300280BDB0901C9B200F1604005
:1015600000F5614080F800135DF804FB0023E5E717
:1015700000F00F000901C9B2024B1954F4E700BF93
:1015800000ED00E014ED00E0002807DB00F01F0292
:10159000400901239340024A42F82030704700BFBF
:1015A00000E100E090F82130DBB2022B06D00423EA
:1015B0008363002380F8203001207047026813689D
:1015C00023F00E0313600268136823F00103136015
:1015D000036CC16B012202FA03F34B6080F82120F7
:1015E000002380F8203018467047000008B590F8B6
:1015F0002130DBB2022B03D004238363012008BD1A
:101600000268136823F00E0313600268136823F066
:10161000010313600368194A934214D014329342B1
:101620001FD0143293421ED0143293421ED0143273
:1016300093421ED01432934202D04FF0807203E0E6
:101640004FF4801200E001220D4B5A60012380F814
:101650002130002380F82030436B6BB19847002085
:10166000CDE71022F0E74FF48072EDE74FF480529F
:10167000EAE74FF48032E7E70020C0E708000240C5
:101680000000024070B582B00024A446A6E0804D60
:10169000AA4210D007D97F4DAA420CD005F580355B
:1016A000AA4208D013E0A5F58015AA4203D005F59B
:1016B0007025AA4207D18A68002A58D0012A51D041
:1016C0004361082403E0A5F58015AA42F3D0BEF1DA
:1016D000FF0F4ED80646BEF1FF0F4CD84FEA8C02E2
:1016E00033680F25954023EA050304FA02F21343F9
:1016F00033604B6813F0805F6ED0674B9A6942F09D
:1017000001029A619B6903F001030193019B4FEA77
:101710009C02951C614B53F825600CF003039D005F
:101720000F23AB4026EA03065D4B984229D003F510
:101730008063984200F08E8003F58063984200F049
:101740008B8003F58063984219D004231AE0CC689B
:10175000BDE7CC680434BAE7CC680834B7E7CC6896
:101760000C34B4E703610824B1E70024AFE7042494
:10177000ADE7061DAFE7ACF108029200B0E7032326
:1017800000E00023AB4033430232444D45F82230A1
:101790004B6813F4801F61D0424A936843EA0E03FA
:1017A00093604B6813F4001F5ED03E4AD36843EA4F
:1017B0000E03D3604B6813F4003F5BD0394A536883
:1017C00043EA0E0353604B6813F4803F58D0354A08
:1017D000136843EA0E0313600CF1010C0A6832FA35
:1017E0000CF353D0012303FA0CF302EA030E33EA9D
:1017F0000202F1D14A68122A3FF649AF122A3FF697
:1018000066AF01A555F822F0B71600084F1700087B
:10181000591700086B170008CF160008CF160008EC
:10182000CF160008CF160008CF160008CF16000804
:10183000CF160008CF160008CF160008CF160008F4
:10184000CF160008CF160008CF160008531700085F
:101850005F170008012395E7022393E7114A936875
:1018600023EA0E0393609CE70E4AD36823EA0E0333
:10187000D3609FE70B4A536823EA0E035360A2E745
:10188000084A136823EA0E031360A5E702B070BD8F
:101890000000221000003110001002400000014042
:1018A00000080140000401400AB1016170470904C9
:1018B000016170477047000008B5054B5B69034242
:1018C00000D108BD024B5861FFF7F4FFF9E700BFF4
:1018D0000004014082B0084B1B68084AA2FB0323A6
:1018E0005B0A00FB03F3019300BF019B5A1E0192A8
:1018F000002BF9D102B0704708000020D34D6210D0
:10190000002800F0F18170B582B00446036813F03E
:10191000010F2CD0994B5B6803F00C03042B1DD0F6
:10192000964B5B6803F00C03082B12D06368B3F589
:10193000803F41D0002B55D103F1804303F50433A0
:101940001A6822F480321A601A6822F480221A601F
:1019500037E08A4B5B6813F4803FE7D0874B1B6806
:1019600013F4003F03D06368002B00F0BF812368AD
:1019700013F0020F75D0814B5B6813F00C0F5FD032
:101980007E4B5B6803F00C03082B54D02369002BBB
:1019900000F08A807A4B01221A60FFF7A5FD054608
:1019A000764B1B6813F0020F75D1FFF79DFD401BAE
:1019B0000228F5D903209EE1704A136843F480336E
:1019C0001360636843B3FFF78FFD05466B4B1B68DD
:1019D00013F4003FCBD1FFF787FD401B6428F5D9F6
:1019E000032088E1B3F5A02F09D0644B1A6822F4D4
:1019F00080321A601A6822F480221A60E1E703F14B
:101A00008043A3F53C331A6842F480221A601A68B6
:101A100042F480321A60D4E7FFF766FD0546574B63
:101A20001B6813F4003FA2D0FFF75EFD401B642843
:101A3000F5D903205FE1514B5B6813F4803FA5D1DA
:101A40004E4B1B6813F0020F03D02369012B40F0AB
:101A50004F814A4A136823F0F803616943EAC103DE
:101A60001360236813F0080F33D0A369002B5CD0F8
:101A7000434B0122C3F88024FFF736FD05463F4B58
:101A80005B6A13F0020F21D1FFF72EFD401B0228E5
:101A9000F5D903202FE1394A136823F0F80361696F
:101AA00043EAC1031360DCE7354B00221A60FFF7FD
:101AB0001BFD0546314B1B6813F0020FD1D0FFF719
:101AC00013FD401B0228F5D9032014E10120FFF784
:101AD00001FF236813F0040F00F09680274BDB69A9
:101AE00013F0805F34D1254BDA6942F08052DA611D
:101AF000DB6903F080530193019B0125214B1B6897
:101B000013F4807F26D0E368012B3DD0002B53D106
:101B100003F1804303F504331A6A22F001021A62CA
:101B20001A6A22F004021A6233E0154B0022C3F84D
:101B30008024FFF7D9FC0546104B5B6A13F0020FB7
:101B4000C7D0FFF7D1FC401B0228F5D90320D2E013
:101B50000025D3E70B4A136843F480731360FFF743
:101B6000C3FC0646074B1B6813F4807FCBD1FFF7FD
:101B7000BBFC801B6428F5D90320BCE000100240A8
:101B800000004242007000405F4A136A43F00103C4
:101B90001362E36833B3FFF7A7FC06465A4B1B6A90
:101BA00013F0020F2FD1FFF79FFC801B41F2883307
:101BB0009842F3D903209EE0052B09D0524B1A6AB4
:101BC00022F001021A621A6A22F004021A62E0E7A5
:101BD0004D4B1A6A42F004021A621A6A42F001027C
:101BE0001A62D6E7FFF780FC0646474B1B6A13F0E4
:101BF000020F08D0FFF778FC801B41F2883398422F
:101C0000F3D9032077E0E5B9E369002B72D03E4AAF
:101C1000526802F00C02082A56D0022B17D03B4B18
:101C200000221A66FFF760FC0446374B1B6813F06E
:101C3000007F47D0FFF758FC001B0228F5D903208E
:101C400059E0314AD36923F08053D361DCE72F4B4D
:101C500000221A66FFF748FC05462B4B1B6813F061
:101C6000007F06D0FFF740FC401B0228F5D9032077
:101C700041E0236AB3F5803F1AD023494B6823F42F
:101C80007413226A606A024313434B601F4B0122A4
:101C90001A66FFF729FC04461B4B1B6813F0007FF4
:101CA0000ED1FFF721FC001B0228F5D9032022E00A
:101CB000154A536823F40033A1680B435360DCE7F3
:101CC000002018E0002016E0012B16D00E4B5B68B8
:101CD00003F48031226A914211D103F47013626AD5
:101CE00093420ED1002006E001207047012002E05F
:101CF000012000E0002002B070BD0120FBE70120C0
:101D0000F9E70120F7E700BF00100240000042425F
:101D10000F4B5B6803F00C02082A01D00D48704796
:101D2000C3F383420C49885C13F4803F0BD0084B0B
:101D30005B68C3F34043094AD35C064A02FB00F0E8
:101D4000B0FBF3F07047064B03FB00F0704700BF99
:101D50000010024000127A00AC470008BC4700089F
:101D600000093D00002800F0A08070B50D46044633
:101D7000524B1B6803F007038B420BD24F4A136888
:101D800023F007030B431360136803F007038B4230
:101D900040F08D80236813F0020F17D013F0040F6A
:101DA00004D0474A536843F4E0635360236813F058
:101DB000080F04D0424A536843F460535360404ACA
:101DC000536823F0F003A1680B435360236813F0BA
:101DD000010F31D06368012B20D0022B25D0384A67
:101DE000126812F0020F64D035494A6822F00302EB
:101DF00013434B60FFF778FB0646314B5B6803F0FB
:101E00000C036268B3EB820F16D0FFF76DFB801BEB
:101E100041F288339842F0D9032045E0284A1268FD
:101E200012F4003FE0D101203EE0254A126812F092
:101E3000007FD9D1012037E0204B1B6803F0070356
:101E4000AB420AD91D4A136823F007032B431360E2
:101E5000136803F00703AB422DD1236813F0040F7E
:101E600006D0174A536823F4E063E1680B435360DC
:101E7000236813F0080F07D0114A536823F4605306
:101E8000216943EAC1035360FFF742FF0C4B5B68D3
:101E9000C3F303130B4AD35CD8400B4B18600B4BB6
:101EA0001868FFF76FF9002070BD0120704701200E
:101EB000FAE70120F8E70120F6E700BF0020024022
:101EC0000010024094470008080000201000002085
:101ED000014B1868704700BF0800002008B5FFF7E5
:101EE000F7FF044B5B68C3F30223034AD35CD8407B
:101EF00008BD00BF00100240A447000808B5FFF766
:101F0000E7FF044B5B68C3F3C223034AD35CD840AA
:101F100008BD00BF00100240A44700080F23036063
:101F20000B4B5A6802F0030242605A6802F0F0025A
:101F300082605A6802F4E062C2605B68DB0803F406
:101F4000E0630361034B1B6803F007030B607047FA
:101F500000100240002002407047000090F83D3021
:101F6000DBB2012B27D1022380F83D300268D36811
:101F700043F00103D3600368114A934210D0B3F1D8
:101F8000804F0DD0A2F59432934209D002F58062C1
:101F9000934205D01A6842F001021A60002070478F
:101FA0009A6802F00702062A07D01A6842F0010276
:101FB0001A6000207047012070470020704700BF62
:101FC000002C0140704770477047704710B50446B9
:101FD00003681A6912F0020F11D0DA6812F0020FCA
:101FE0000DD06FF002021A610123037703689B6929
:101FF00013F0030F70D0FFF7E6FF00232377236869
:102000001A6912F0040F12D0DA6812F0040F0ED021
:102010006FF004021A610223237723689B6913F48B
:10202000407F5FD02046FFF7CEFF00232377236851
:102030001A6912F0080F12D0DA6812F0080F0ED0E9
:102040006FF008021A61042323772368DB6913F019
:10205000030F4ED02046FFF7B6FF002323772368F7
:102060001A6912F0100F12D0DA6812F0100F0ED0A9
:102070006FF010021A61082323772368DB6913F4D9
:10208000407F3DD02046FFF79EFF00232377236843
:102090001A6912F0010F03D0DA6812F0010F36D17D
:1020A00023681A6912F0800F03D0DA6812F0800FEB
:1020B00034D123681A6912F0400F03D0DA6812F0A5
:1020C000400F32D123681A6912F0200F03D0DA686A
:1020D00012F0200F30D110BDFFF774FF2046FFF73C
:1020E00073FF8AE72046FFF76DFF2046FFF76CFF7E
:1020F0009BE72046FFF766FF2046FFF765FFACE74A
:102100002046FFF75FFF2046FFF75EFFBDE76FF059
:1021100001021A612046FEF71BFFC1E76FF0800243
:102120001A61204600F077F8C3E76FF040021A61A9
:102130002046FFF74AFFC5E76FF020021A612046EC
:1021400000F068F8C7E7000003681B4A90420AD015
:10215000B0F1804F07D0A2F59432904203D002F53F
:102160008062904203D123F070034A681343124AFD
:1021700090420AD0B0F1804F07D0A2F5943290423D
:1021800003D002F58062904203D123F44073CA6801
:10219000134323F080034A69134303608B68C362CF
:1021A0000B688362044B984202D00123436170475D
:1021B0000B690363F9E700BF002C014040B310B581
:1021C000044690F83D30F3B1022384F83D302146B7
:1021D00051F8040BFFF7B8FF012384F8463084F868
:1021E0003E3084F83F3084F8403084F8413084F841
:1021F000423084F8433084F8443084F8453084F821
:102200003D30002010BD80F83C30FFF7A5FEDBE735
:102210000120704770477047026802F10C0353E8D1
:10222000003F23F490730C3242E800310029F3D1CF
:10223000026802F1140353E8003F23F00103143253
:1022400042E800310029F3D1036B012B05D0202394
:1022500080F84230002303637047026802F10C03E8
:1022600053E8003F23F010030C3242E8003100290C
:10227000F3D1ECE790F84130DBB2212B01D0022002
:1022800070478368B3F5805F17D0036A5A1C0262F7
:102290001A7803685A60C38C9BB2013B9BB2C3841B
:1022A0004BB90268D36823F08003D3600268D36817
:1022B00043F04003D360002070470369002BE4D152
:1022C000036A1B880268C3F308035360036A02337E
:1022D0000362E0E710B504460268136923F4405333
:1022E000C1680B43136183680269134342691A434F
:1022F0000168CB6823F4B05323F00C031343CB6085
:102300000268536923F4407381690B435361026887
:10231000134B9A4220D0FFF7E1FD024602EB820206
:1023200002EB820263689B00B2FBF3F20D48A0FB54
:1023300002314909642303FB11231B013233A0FB43
:1023400003235B0903F0F00202EB011203F00F0319
:10235000216813448B6010BDFFF7D0FD0246DDE716
:10236000003801401F85EB512DE9F84305460F4623
:1023700016469946DDF820802C68246837EA040365
:102380000CBF4FF0010C4FF0000CB4452DD1B8F14B
:10239000FF3FF1D0B8F1000F05D0FFF7A5F8A0EB93
:1023A00009004045E8D92A6802F10C0353E8003FD0
:1023B00023F4D0730C3242E800310029F3D12A68AB
:1023C00002F1140353E8003F23F00103143242E802
:1023D00000310029F3D1202385F8413085F84230BF
:1023E000002385F84030032000E00020BDE8F8839A
:1023F00060B310B5044690F8413013B3242384F839
:1024000041302268D36823F40053D3602046FFF79D
:1024100061FF2268136923F49043136122685369B2
:1024200023F02A0353612268D36843F40053D36036
:1024300000206064202384F8413084F842306063D7
:1024400010BD80F84030FEF757FFD7E701207047F6
:102450002DE9F04182B01E4690F84130DBB2202BCE
:102460004BD104460D46904600294AD00AB90120B6
:1024700044E000234364212380F84130FFF734F81F
:102480000746A4F82480A4F82680A368B3F5805FEB
:1024900002D04FF000080FE02369FBB14FF00008B5
:1024A0000AE038F8023B2268C3F308035360E28C69
:1024B00092B2013A92B2E284E38C9BB28BB1009665
:1024C0003B46002280212046FFF74EFFD8B9002D61
:1024D000E7D015F8012B23685A60E8E7A8460025E5
:1024E000EAE700963B46002240212046FFF73CFFEA
:1024F00058B9202384F8413000E0022002B0BDE842
:10250000F0810120FAE70320F8E70320F6E770479F
:1025100008B50168CA6822F04002CA60202280F82B
:102520004120FFF7F4FF002008BD704708B5406A5E
:102530000023C385C384FFF7F8FF08BD704790F8F8
:102540004230DBB2222B69D18368B3F5805F4FD074
:10255000826AB3F5805F04D0002B56D10369002B4B
:1025600053D103685B681370836A01338362C38D40
:102570009BB2013B9BB2C385002B51D100B583B008
:102580000268D36823F02003D3600268D36823F481
:102590008073D3600268536923F0010353612023E1
:1025A00080F8423000234363036B012B33D10023B7
:1025B0000363026802F10C0353E8003F23F01003A9
:1025C0000C3242E800310029F3D103681A6812F096
:1025D000100F06D0002201921A6801925B680193E5
:1025E000019B818DFFF7AAFF002003B05DF804FB7B
:1025F0000269002AACD1826A03685B68C3F30803EE
:102600001380836A02338362B1E703685B6803F077
:102610007F031370A8E7FEF7B3FAE5E702207047DF
:102620000020704730B583B0044602681368D06854
:10263000516913F00F0505D113F0200F02D010F0EF
:10264000200F19D12DB111F0010119D110F4907F93
:1026500016D1216B01297DD013F0800F03D010F02B
:10266000800F40F0188113F0400F03D010F0400F9E
:1026700040F0158103B030BD2046FFF760FFF9E759
:1026800013F0010F06D010F4807F03D0626C42F08B
:102690000102626413F0040F04D019B1626C42F0BD
:1026A0000202626413F0020F04D019B1626C42F0AE
:1026B0000402626413F0080F07D010F0200F00D15D
:1026C00019B1626C42F008026264626C002AD1D0D7
:1026D00013F0200F02D010F0200F29D123685B697E
:1026E00003F04003626C12F0080F00D163B3204680
:1026F000FFF792FD23685B6913F0400F20D022683A
:1027000002F1140353E8003F23F04003143242E87F
:1027100000310029F3D1E36B73B1634A5A63E06B74
:10272000FEF764FF0028A5D0E06B436B9847A1E754
:102730002046FFF704FFD1E72046FFF7F6FE99E7B2
:102740002046FFF7F2FE95E72046FFF7EEFE002356
:1027500063648FE713F0100F3FF47EAF10F0100F9B
:102760003FF47AAF002301931368019353680193F8
:10277000019B536913F0400F51D0E26B13685B6803
:102780009BB2002B3FF476AFA18D99427FF672AFDA
:10279000E3859369202B37D0226802F10C0353E8BC
:1027A000003F23F480730C3242E800310029F3D15A
:1027B000226802F1140353E8003F23F001031432AE
:1027C00042E800310029F3D1226802F1140353E8F2
:1027D000003F23F04003143242E800310029F3D1D6
:1027E000202384F8423000232363226802F10C0383
:1027F00053E8003F23F010030C3242E80031002977
:10280000F3D1E06BFEF7CEFE02236363A18DE38D6F
:102810009BB2C91A89B22046FFF790FE2AE7A18D24
:10282000E38D9BB2C91A89B2E38D9BB2002B3FF4B2
:1028300021AF00293FF41EAF226802F10C0353E8D8
:10284000003F23F490730C3242E800300028F3D1AB
:10285000226802F1140353E8003F23F0010314320D
:1028600042E800300028F3D1202384F842300023CE
:102870002363226802F10C0353E8003F23F01003A6
:102880000C3242E800300028F3D102236363204673
:10289000FFF754FEEEE62046FFF7ECFCEAE62046A2
:1028A000FFF736FEE6E600BF2D250008816282852F
:1028B000C28500234364222380F84230036923B198
:1028C0000268D36843F48073D3600268536943F0AD
:1028D000010353610268D36843F02003D3600020F2
:1028E000704708B590F84230DBB2202B08D149B1CF
:1028F0000AB9012008BD00230363FFF7D7FFF9E7FA
:102900000220F7E70120F5E7EFF3058393B9EFF332
:10291000108393B90C4B1868022804D080B90A4B75
:1029200001221A607047EFF31183002BF6D06FF08D
:10293000050070476FF0050070476FF005007047A5
:102940004FF0FF30704700BF9C08002008B5EFF340
:102950000583B3B9EFF31083B3B90E4B1B68022B99
:1029600008D0012B13D10B4B02221A6001F0D0F8D2
:10297000002008BDEFF31182002AF2D06FF00500AD
:10298000F7E76FF00500F4E76FF00500F1E74FF0AF
:10299000FF30EEE79C080020F0B587B000240494D7
:1029A000EFF30584002C43D1EFF31083002B3FD1CC
:1029B000334B1B68022B16D0002839D000238DF82A
:1029C000173062B3156895B1936903B918235C1E7B
:1029D000372C51D8546814F0010F4FD156694EB1BD
:1029E0004FEA960C08E0EFF311830BBBE4E70DF11F
:1029F0001705E9E74FF0800C94682CB1D7685B2F7E
:102A000002D9176907B1B6B914B14FF0FF340CE021
:102A1000D46894B914699CB14FF0FF3405E00024E8
:102A200018234FF0800C0DF11705012C0AD0ACB122
:102A3000049807B0F0BD0124F7E74FF0FF34F4E746
:102A40000024F2E7146992680292019400930B4605
:102A50006246294600F0EEFF0490E9E704AA0192DD
:102A600000930B461FFA8CF2294601F01DF801284D
:102A7000DED000230493DBE70020DAE70020D8E76C
:102A80009C08002008B5EFF30583A3B9EFF310838A
:102A9000A3B90C4B1B68022B02D040B9002008BD23
:102AA000EFF31183002BF8D06FF00500F7E701F08A
:102AB00093F90020F3E76FF00500F0E76FF00500F1
:102AC000EDE700BF9C080020034B0360034B0B6045
:102AD00080231360704700BF40080020400600209C
:102AE000034B0360034B0B604FF48073136070471C
:102AF000A00C0020A008002000F1080343604FF064
:102B0000FF328260C36003610023036070470023CB
:102B10000361704743684B609A688A6051609960AE
:102B20000861036801330360704730B40D68B5F184
:102B3000FF3F11D000F108031C465B681A68AA42E7
:102B4000FAD963684B6099608C60616008610368C2
:102B50000133036030BC70470469F2E703694168E0
:102B600082688A60416851605A68824206D00022B9
:102B700002611A68013A1A601868704782685A60E0
:102B8000F5E7000082B0002301930D4B1B68B3F101
:102B9000FF3F08D04FF0500383F31188BFF36F8FCE
:102BA000BFF34F8FFEE74FF0500383F31188BFF35D
:102BB0006F8FBFF34F8F019B002BFCD002B070478B
:102BC0001400002006480068006880F3088862B698
:102BD00061B6BFF34F8FBFF36F8F00DF00BF000000
:102BE00008ED00E04FF0807340F8043C21F0010153
:102BF00040F8081C034B40F80C3C40F8202C4038AF
:102C0000704700BF852B0008000000000000000096
:102C1000074B19680868B0E8F00F80F30988BFF324
:102C20006F8F4FF0000080F311884EF00D0E70474B
:102C30005C1900204FF0500383F31188BFF36F8FAE
:102C4000BFF34F8F0B4A136801331360012B00D081
:102C500070474FF0E023D3F8043D13F0FF0FF7D097
:102C60004FF0500383F31188BFF36F8FBFF34F8F83
:102C7000FEE700BF14000020094B1B6843B94FF06A
:102C8000500383F31188BFF36F8FBFF34F8FFEE7BD
:102C9000013B034A13600BB983F31188704700BFEF
:102CA00014000020000000000000000000000000F0
:102CB000EFF30980BFF36F8F0D4B1A6820E9F00F17
:102CC00010602DE908404FF0500080F3118801F0AA
:102CD000A9F84FF0000080F31188BDE8084019689A
:102CE0000868B0E8F00F80F30988BFF36F8F704772
:102CF0005C19002008B54FF0500383F31188BFF32F
:102D00006F8FBFF34F8F00F05FFF28B14FF0E023CC
:102D10004FF08052C3F8042D002383F3118808BDBF
:102D20004FF0E022002313619361054B1B680549B6
:102D3000A1FB03139B09013B5361072313617047F8
:102D400008000020D34D621010B582B02A4B1A78CB
:102D5000D2B20192FF221A701B78DBB28DF80330D9
:102D60009DF8033003F05003244A1370244B0722CC
:102D70001A6009E0224A1368013B13609DF8033092
:102D80005B00DBB28DF803309DF8033013F0800F49
:102D9000F0D11B4B1B68032B08D04FF0500383F37B
:102DA0001188BFF36F8FBFF34F8FFEE71B02144AEA
:102DB000136003F4E0631360019BDBB20E4A1370EF
:102DC0004FF0E023D3F8202D42F47002C3F8202DF9
:102DD000D3F8202D42F07042C3F8202DFFF7A0FF5A
:102DE0000024084B1C60FFF7EDFE01F01BF8FFF715
:102DF000C9FE204602B010BD00E400E0FC0C00203B
:102E0000000D002014000020EFF305830F2B0FD9D5
:102E1000114A9B5CDBB2114A12789A4208D94FF0F2
:102E2000500383F31188BFF36F8FBFF34F8FFEE71B
:102E30004FF0E023D3F80C3D03F4E063084A126836
:102E4000934208D94FF0500383F31188BFF36F8F7B
:102E5000BFF34F8FFEE77047F0E300E0FC0C00206B
:102E6000000D0020124A12F0070F1ED0D11D21F0D4
:102E70000701C1F5406313440A460E480260002171
:102E800041601344083B23F007030B48036059607B
:102E90001960991A51601360084B1960084B19604A
:102EA000084B4FF000421A6070474FF44063E4E76C
:102EB000080D002014190020040D00201019002016
:102EC0000C19002008190020154B1A461B68834274
:102ED000FBD3516802EB010C844509D0416800EB3B
:102EE000010C634509D00360904218D01060704710
:102EF0004068014451601046F0E710B4094C246862
:102F0000A3420AD05B681944416013681B680360E0
:102F1000904200D0106010BC70470460F8E7704722
:102F200014190020040D002070B5054600F03EFE87
:102F3000344B1B68A3B1344B1B681D424AD135B1D9
:102F4000083515F0070F02D025F007050835002DCC
:102F500042D02E4B1B68AB424DD32D4A146804E07F
:102F6000FFF780FFE7E722461C466368AB4202D2C8
:102F70002368002BF7D1234B1B68A3423DD0166872
:102F800008362368136063685B1B102B10D9601927
:102F900010F0070F08D04FF0500383F31188BFF3F0
:102FA0006F8FBFF34F8FFEE743606560FFF78CFFC5
:102FB000626816490B689B1A0B60164909688B42B8
:102FC00001D214490B60104B1B681343636000234C
:102FD000236002E0002600E0002600F081FE16F0EB
:102FE000070F0CD04FF0500383F31188BFF36F8F9E
:102FF000BFF34F8FFEE70026EFE70026EDE73046F0
:1030000070BD00BF040D0020081900200C1900201D
:10301000141900201019002080B338B50446A0F11F
:10302000080550F8043C164A1268134208D14FF0C4
:10303000500383F31188BFF36F8FBFF34F8FFEE709
:1030400050F8081C41B14FF0500383F31188BFF3CF
:103050006F8FBFF34F8FFEE723EA020340F8043C73
:1030600000F0A4FD54F8041C064A13680B441360D6
:103070002846FFF729FF00F033FE38BD704700BF38
:10308000081900200C19002010B50446FFF7D2FDE6
:10309000A26BE36B9A4204D00024FFF7EDFD2046BB
:1030A00010BD0124F9E710B50446FFF7C3FDA36B7B
:1030B00023B90124FFF7E0FD204610BD0024F9E705
:1030C00070B504461546866B026C5AB903681BB18D
:1030D00000200136A66370BD406800F0CBFF0023DE
:1030E0006360F6E76DB98068FDF728FC226CA36881
:1030F0001344A3606268934219D32368A3602846EF
:10310000E7E7C068FDF71AFC226C5142E3689B1A9E
:10311000E3602268934202D263680B44E360022DAD
:1031200001D00020D5E726B1013E0020D1E7284696
:10313000CFE70020CDE708B50346026C62B1084630
:10314000D9681144D960D3F804C0614501D3196826
:10315000D960D968FDF7F2FB08BD38B50546FFF721
:1031600069FD95F8454064B201E0013C64B2002C71
:103170000ADD6B6A43B105F1240000F0D1FE00289E
:10318000F3D000F061FFF0E7FF2385F84530FFF74B
:1031900073FDFFF74FFD95F8444064B201E0013C38
:1031A00064B2002C0ADD2B6943B105F1100000F078
:1031B000B7FE0028F3D000F047FFF0E7FF2385F8C3
:1031C0004430FFF759FD38BD38B5E0B10D4604462F
:1031D000FFF730FD2368E26B216C01FB0230606079
:1031E0000020A063A360013A02FB0133E360FF23E8
:1031F00084F8443084F84530FDB9236963B9FFF79A
:103200003BFD012038BD4FF0500383F31188BFF31D
:103210006F8FBFF34F8FFEE704F1100000F080FEC8
:103220000028ECD04FF0E0234FF08052C3F8042D7B
:10323000BFF34F8FBFF36F8FE1E704F11000FFF78B
:103240005BFC04F12400FFF757FCD8E738B51D46B6
:10325000049C0B4649B92460E063236401212046A5
:10326000FFF7B2FF84F84C5038BD2260F4E740B954
:103270004FF0500383F31188BFF36F8FBFF34F8F6D
:10328000FEE710B584B01C46844653B192B189B9AB
:103290004FF0500383F31188BFF36F8FBFF34F8F4D
:1032A000FEE74FF0500383F31188BFF36F8FBFF336
:1032B0004F8FFEE76AB150230393039B502B13D02B
:1032C0004FF0500383F31188BFF36F8FBFF34F8F1D
:1032D000FEE70029EFD04FF0500383F31188BFF3CE
:1032E0006F8FBFF34F8FFEE7012384F846300094C1
:1032F0009DF818306046FFF7A9FF204604B010BDC6
:10330000F0B585B0019288B10F461D460446B1B1B3
:10331000022D20D1E36B012B1DD04FF0500383F31E
:103320001188BFF36F8FBFF34F8FFEE74FF050034D
:1033300083F31188BFF36F8FBFF34F8FFEE7036CEA
:10334000002BE5D04FF0500383F31188BFF36F8F4C
:10335000BFF34F8FFEE700F07DFE064658B9019B94
:10336000002B48D04FF0500383F31188BFF36F8FC9
:10337000BFF34F8FFEE700263DE02A463946204640
:10338000FFF79EFE636A7BB948B14FF0E0234FF030
:103390008052C3F8042DBFF34F8FBFF36F8FFFF739
:1033A0006BFC012005B0F0BD04F1240000F0B8FD75
:1033B0000028F4D04FF0E0234FF08052C3F8042DE2
:1033C000BFF34F8FBFF36F8FE9E7FFF755FC002086
:1033D000E8E702A800F0EAFD012619E0002384F8DE
:1033E000443021E0002384F8453023E02046FFF7F5
:1033F000B4FE00F075FCFFF71DFCA26BE36B9A4274
:10340000BBD3022DB9D0019B002BDED0002EE0D023
:10341000FFF732FC00F0CAFBFFF70CFC94F84420E5
:1034200052B2B2F1FF3FD9D094F8452052B2B2F176
:10343000FF3FD7D0FFF720FC01A902A800F0C2FD92
:10344000D8B92046FFF720FE0028CFD0019904F11B
:10345000100000F031FD2046FFF77FFE00F040FC39
:103460000028C8D14FF0E0234FF08052C3F8042D5C
:10347000BFF34F8FBFF36F8FBDE72046FFF76DFEA1
:1034800000F02EFC00208DE72DE9F84390B10F46A7
:1034900016461C460546B1B1022C20D1EB6B012B20
:1034A0001DD04FF0500383F31188BFF36F8FBFF32C
:1034B0004F8FFEE74FF0500383F31188BFF36F8FF8
:1034C000BFF34F8FFEE7036C002BE5D04FF05003A6
:1034D00083F31188BFF36F8FBFF34F8FFEE7FFF7C2
:1034E00093FCEFF311894FF0500383F31188BFF37E
:1034F0006F8FBFF34F8FAA6BEB6B9A4206D3022CF0
:1035000004D0002089F31188BDE8F88395F8458040
:103510004FFA88F8224639462846FFF7D1FDB8F120
:10352000FF3F06D008F101035BB285F8453001206A
:10353000E8E76B6A0BB90120E4E705F1240000F02D
:10354000EFFC18B126B101203060DBE70120D9E79C
:103550000120D7E7F0B585B0019290B10F4604463F
:10356000C1B100F077FD064600BB019B002B5ED089
:103570004FF0500383F31188BFF36F8FBFF34F8F6A
:10358000FEE74FF0500383F31188BFF36F8FBFF353
:103590004F8FFEE7036C002BE3D04FF0500383F313
:1035A0001188BFF36F8FBFF34F8FFEE700263EE019
:1035B00039462046FFF7BFFD013DA563236923B9C6
:1035C000FFF75AFB012005B0F0BD04F1100000F038
:1035D000A7FC0028F4D04FF0E0234FF08052C3F84E
:1035E000042DBFF34F8FBFF36F8FE9E7FFF744FB65
:1035F0000020E8E702A800F0D9FC012621E0002322
:1036000084F8443029E0002384F845302BE020463C
:10361000FFF7A3FD00F064FB09E02046FFF79DFDE6
:1036200000F05EFB2046FFF73EFD00283FD1FFF78C
:1036300001FBA56B002DBBD1019B002BD6D0002E2A
:10364000D8D0FFF719FB00F0B1FAFFF7F3FA94F8BE
:1036500044305BB2B3F1FF3FD1D094F845305BB258
:10366000B3F1FF3FCFD0FFF707FB01A902A800F09D
:10367000A9FC0028D1D12046FFF715FD0028C6D0AF
:10368000019904F1240000F017FC2046FFF765FDC6
:1036900000F026FB0028CAD14FF0E0234FF0805203
:1036A000C3F8042DBFF34F8FBFF36F8FBFE7002028
:1036B00089E700000023072B0CD8074A52F8332073
:1036C0000AB10133F7E7044A42F8331002EBC303AF
:1036D00058607047704700BF1C19002070B5044641
:1036E0000D461646FFF7A6FA94F844305BB2B3F1E4
:1036F000FF3F0DD094F845305BB2B3F1FF3F0BD0E4
:10370000FFF7BAFAA36B5BB12046FFF726FD70BD49
:10371000002384F84430EDE7002384F84530EFE7D8
:103720003246294604F1240000F0DEFBECE70000FD
:10373000084B1B681B6823B9074B4FF0FF321A6018
:103740007047044B1B68DB68DB685A68024B1A60E1
:10375000704700BF601900200C1E00202DE9F047C3
:1037600080460D4617469946089EDDF824A00A9C1F
:103770009200A521206B00F001FF236B07F180422E
:10378000013A03EB820727F007074FF0000CBCF16A
:103790000F0F0BD815F80C2004EB0C0383F8342022
:1037A00015F80C3013B10CF1010CF0E7002384F88C
:1037B0004330372E00D93726E662E66400252565BA
:1037C000201DFFF7A4F904F11800FFF7A0F9246108
:1037D000C6F13806A6616462656584F858504A46A9
:1037E00041463846FFF7FEF92060BAF1000F01D0DC
:1037F000CAF80040BDE8F08738B5002407E004EBC4
:10380000840293000E481844FFF776F90134372CF0
:10381000F5D90C4D2846FFF76FF90B4C2046FFF702
:103820006BF90A48FFF768F90948FFF765F9094895
:10383000FFF762F9084B1D60084B1C6038BD00BFE4
:1038400068190020E01D0020F41D0020141E002037
:10385000401E00202C1E002060190020641900204A
:1038600010B50446FFF7E6F9224A136801331360E6
:10387000214B1B685BB1214B1B686BB91E4B1B684E
:10388000DA6AE36A9A4207D81B4B1C6004E01A4BC1
:103890001C601368012B29D0194A13680133136087
:1038A0006364E06A174B1B68984201D9154B186096
:1038B00000EB8000211D144B03EB8000FFF72AF979
:1038C000FFF7DAF90D4B1B687BB10B4B1B68DA6A0B
:1038D000E36A9A4209D24FF0E0234FF08052C3F8D6
:1038E000042DBFF34F8FBFF36F8F10BDFFF784FF21
:1038F000D2E700BFC81D00205C190020281E002050
:10390000D81D0020DC1D00206819002010B50446D9
:1039100090F8593063B1012B11D0022B0ED04FF02B
:10392000500383F31188BFF36F8FBFF34F8FFEE710
:10393000006BFFF771FB2046FFF76EFB10BDFFF732
:103940006BFBFBE70F4B1B68D3B110B5FFF772F9A8
:103950000D4BDB68DC68201DFFF700F90B4A13688C
:10396000013B1360074A1368013B1360FFF784F9BA
:103970002046FFF7CBFF034B1B68002BE6D110BDA1
:10398000704700BFCC1D0020401E0020C81D002035
:1039900008B5FFF7D7FF074B1B68012BF9D94FF08C
:1039A000E0234FF08052C3F8042DBFF34F8FBFF3D5
:1039B0006F8FEEE76819002070B504460D46174B6F
:1039C0001E68174B18680430FFF7C8F8B4F1FF3FC2
:1039D0000DD03444124B1B685C60A64210D9114BC9
:1039E00018680F4B19680431FFF79FF870BD002D60
:1039F000EFD00B4B196804310B48FFF78BF8F5E754
:103A00000A4B1868064B19680431FFF78EF8084B0B
:103A10001B68A342EAD9064B1C60E7E7541E00204E
:103A20005C190020641900202C1E00206019002061
:103A30000C1E002030B587B00B9C7CB10C9DB5B13D
:103A40005C250495049D5C2D1AD04FF0500383F340
:103A50001188BFF36F8FBFF34F8FFEE74FF0500316
:103A600083F31188BFF36F8FBFF34F8FFEE74FF0E3
:103A7000500383F31188BFF36F8FBFF34F8FFEE7BF
:103A80000C9D2C63022485F8594000240394029570
:103A900005AC01940A9C0094FFF760FE0C98FFF7B8
:103AA000DFFE059807B030BD2DE9F04385B007462D
:103AB000884614461E469000FFF736FA00B381464A
:103AC0005C20FFF731FA0546B0B1C0F83090E5B19F
:103AD000002385F85930039302950D9B01930C9BAD
:103AE00000933346224641463846FFF737FE2846C4
:103AF000FFF7B6FE012005E04846FFF78DFAE6E73E
:103B00004FF0FF3005B0BDE8F0834FF0FF30F9E72C
:103B100010B588B000240594069407AA06A905A844
:103B2000FEF7D2FF059B0293069B01930094234668
:103B3000079A18491848FFF77DFF184B186040B1E5
:103B400000F04CFB012806D0B0F1FF3F18D008B0C0
:103B500010BD0020F6E74FF0500383F31188BFF348
:103B60006F8FBFF34F8F0E4B4FF0FF321A600D4B2C
:103B700001221A600C4B00221A60FFF7E5F8E6E715
:103B80004FF0500383F31188BFF36F8FBFF34F8F54
:103B9000FEE700BFC047000891390008081E00205A
:103BA0000C1E0020281E0020541E0020024A13680C
:103BB00001331360704700BFD41D0020014B18680B
:103BC000704700BF541E0020F8B53A4B1B68002B0D
:103BD00064D1394B1D6801351D60C5B9374B1B6871
:103BE0001B6843B14FF0500383F31188BFF36F8F0D
:103BF000BFF34F8FFEE7314A1168314B18681060F0
:103C00001960304A136801331360FFF791FD2E4BA2
:103C10001B68AB4238D900272C4B1B68DB6A03EBCF
:103C200083039A002A4B9B58012B3CD901273AE089
:103C30000127224B1B681B6843B3204B1B68DB68C2
:103C4000DC6863689D4226D3261D3046FEF786FF5A
:103C5000A36A1BB104F11800FEF780FFE36A1D4A56
:103C60001268934201D91B4A136003EB83039A0045
:103C7000314617481044FEF74DFFE26A134B1B68AC
:103C8000DB6A9A42D4D2D4E70027D2E70E4B4FF03A
:103C9000FF321A60C0E70C4A1360BDE70E4A136892
:103CA0000133136000270D4B1B6803B10127384611
:103CB000F8BD00BFD41D0020541E00206019002054
:103CC00064190020101E00200C1E00205C1900202A
:103CD00068190020DC1D0020D01D0020581E002087
:103CE00038B5354B1B6843B94FF0500383F3118847
:103CF000BFF36F8FBFF34F8FFEE7FEF79BFF2E4B97
:103D00001A68013A1A601B68002B4FD12B4B1B68B5
:103D10000BB900244BE00024294B1B681BB3284B34
:103D2000DB68DC6804F11800FEF718FF251D284643
:103D3000FEF714FFE06A234B1B68984201D9214B20
:103D4000186000EB800029461F4B03EB8000FEF754
:103D5000E1FEE26A1D4B1B68DB6A9A42DCD31C4B16
:103D600001221A60D8E70CB1FFF7E2FC194B1C687E
:103D700084B9174B1C68D4B14FF0E0234FF0805248
:103D8000C3F8042DBFF34F8FBFF36F8F01240EE0F4
:103D9000013C07D0FFF718FF0028F9D00C4B012297
:103DA0001A60F5E70B4B00221A60E2E70024FEF7E9
:103DB00063FF204638BD00BFD41D0020C81D002071
:103DC000141E0020DC1D0020681900205C19002052
:103DD000581E0020D01D002010B5A8B10446104B7D
:103DE0001B6843B14FF0500383F31188BFF36F8F0B
:103DF000BFF34F8FFEE7FFF7D9FE00212046FFF704
:103E0000DBFDFFF76DFF48B94FF0E0234FF0805224
:103E1000C3F8042DBFF34F8FBFF36F8F10BD00BFEA
:103E2000D41D00201F4B1B681BB11F4B01221A60C1
:103E300070471D4B00221A601C4B1B6803EB83016B
:103E40008A001B498A585AB90BB1013BF6E74FF07B
:103E5000500383F31188BFF36F8FBFF34F8FFEE7DB
:103E600003EB830082000A4450684068506003EB13
:103E7000830C4FEA8C020832114488420BD003EBCA
:103E8000830291000A4A0A445268D168094A1160C3
:103E9000064A13607047406862469100044A0A442B
:103EA0005060ECE7D41D0020581E0020DC1D0020CF
:103EB000681900205C19002058B110B50C46094A59
:103EC00011681831FEF731FE01212046FFF774FD1D
:103ED00010BD4FF0500383F31188BFF36F8FBFF312
:103EE0004F8FFEE75C19002038B570B10D461446BF
:103EF0000A4A11681831FEF70DFE0CB14FF0FF357C
:103F000021462846FFF758FD38BD4FF0500383F394
:103F10001188BFF36F8FBFF34F8FFEE75C1900204E
:103F200038B5C368DC6824B304F118052846FEF7E9
:103F300015FE184B1B682BBB251D2846FEF70EFEF1
:103F4000E06A154B1B68984201D9134B186000EBCF
:103F500080002946114B03EB8000FEF7DBFDE26A8F
:103F60000F4B1B68DB6A9A4211D901200D4B186078
:103F700038BD4FF0500383F31188BFF36F8FBFF349
:103F80004F8FFEE729460848FEF7C4FDE7E700200B
:103F9000EEE700BFD41D0020DC1D002068190020C2
:103FA0005C190020581E0020141E0020034B1B68C3
:103FB0000360034B1B684360704700BF101E002066
:103FC000541E0020D8B170B50C46054601B3FEF76B
:103FD00031FE1B4B19686B68C81A2268B2F1FF3FAB
:103FE00027D0184E3668D5F800C0B44501D08B42B2
:103FF00024D9824215D80023236001241AE04FF00F
:10400000500383F31188BFF36F8FBFF34F8FFEE729
:104010004FF0500383F31188BFF36F8FBFF34F8FBF
:10402000FEE75B1A134423602846FFF7BFFF002416
:1040300000E00024FEF720FE204670BD0124F9E7D1
:10404000541E0020101E0020014B01221A607047F0
:10405000581E0020054B1B6833B1054B1B680BB184
:10406000002070470220704701207047281E002062
:10407000D41D002000283BD038B504461E4B1B68D9
:10408000834208D04FF0500383F31188BFF36F8F42
:10409000BFF34F8FFEE7036D43B94FF0500383F337
:1040A0001188BFF36F8FBFF34F8FFEE7013B0365AE
:1040B000C16AC26C91421DD00BB1002038BD051DF4
:1040C0002846FEF74BFDE06CE062C0F13803A361C7
:1040D0000A4B1B68984201D9084B186000EB80001E
:1040E0002946074B03EB8000FEF714FD0120E5E7AE
:1040F000002070470020E1E75C190020DC1D002053
:1041000068190020064B1A681368B3FA83F35B0939
:10411000036013B9D368186870470020704700BF68
:104120005C1E002008B54160006191420CD8D21A93
:1041300083699A4201D3012008BD011D094B18680B
:10414000FEF7F3FC0020F7E79A4201D2994206D22B
:10415000011D054B1868FEF7E8FC0020ECE7012084
:10416000EAE700BF601E00205C1E002030B583B06F
:10417000FEF760FD114B1B681BB1FEF77DFD03B020
:1041800030BD0F4D2846FEF7B7FC0E4C2046FEF71B
:10419000B3FC0D4B1D600D4B1C60002300930C4BBA
:1041A0000C4A10210A20FFF762F8044B186000281F
:1041B000E3D00949FFF77EFADFE700BF801F002048
:1041C000041F0020181F00205C1E0020601E00201D
:1041D000301F0020641E0020C847000810B588B0BA
:1041E000FFF7C4FF124B1B68CBB100240594069463
:1041F00007AA06A905A8FEF773FC059B0293069B78
:104200000193022300932346079A0A490A48FFF7BD
:1042100011FC0A4B186010B1012008B010BD4FF01E
:10422000500383F31188BFF36F8FBFF34F8FFEE707
:10423000801F0020D04700081D450008841F002073
:10424000B8B19C4603461848006858B300B585B01D
:1042500000910192029305291CDCFFF7FBFE022866
:1042600010D000231A4669460F480068FFF748F847
:1042700015E04FF0500383F31188BFF36F8FBFF346
:104280004F8FFEE70023069A694607480068FFF74C
:1042900037F804E0002362466946FFF7F5F805B0F9
:1042A0005DF804FB00207047801F002070B582B0CD
:1042B0001A4B1B681A6852B3DB681E68DC68251D40
:1042C0002846FEF74BFC636A20469847E369012BBA
:1042D000EED1A36933449E4207D26360246129462C
:1042E0000E4B1868FEF721FCE2E7002100910B4617
:1042F00032462046FFF7A4FF0028D9D14FF05003E3
:1043000083F31188BFF36F8FBFF34F8FFEE7044A2B
:10431000106802490860136002B070BD5C1E002086
:10432000601E002038B50546FFF748FC0446074BE1
:104330001B68834205D800232B60044B1C60204679
:1043400038BDFFF7B3FF01232B60F6E72C1F0020D9
:1043500070B582B006460D4614490968C968CC6834
:10436000201DFEF7FBFBE169012904D0636A2046AA
:10437000984702B070BDA16933462A4631442046B1
:10438000FFF7D0FE0028F1D0002100910B46324605
:104390002046FFF755FF0028E8D14FF0500383F384
:1043A0001188BFF36F8FBFF34F8FFEE75C1E0020B5
:1043B00070B582B006460C46FFF7F8FB01A8FFF780
:1043C000B1FF019B2BBB05460CB9B0421AD22CB1F0
:1043D000124B1B681C68B4FA84F464092246711BF2
:1043E0000F4B1868FFF77AF9FFF77AFC98B94FF08E
:1043F000E0234FF08052C3F8042DBFF34F8FBFF37B
:104400006F8F08E0FFF76CFC29463046FFF7A0FFEE
:1044100001E0FFF765FC02B070BD00BF601E002028
:10442000801F002010B588B002E0049B002B0FDA3B
:10443000002204A9384B1868FFF78CF8002869D0CF
:10444000049B002BF1DA07990698059B9847ECE747
:10445000069C636913B1201DFEF780FB03A8FFF7DC
:1044600061FF049B092BE3D801A252F823F000BF9F
:104470009944000899440008994400083144000810
:10448000DF440008054500089944000899440008E5
:1044900031440008DF440008059BA1690246194425
:1044A0002046FFF73FFE0028C2D0636A20469847A7
:1044B000E369012BBCD1A269002100910B4605984C
:1044C00002442046FFF7BCFE0028B1D14FF0500354
:1044D00083F31188BFF36F8FBFF34F8FFEE705990A
:1044E000A16131B10346024601442046FFF71AFE9E
:1044F0009EE74FF0500383F31188BFF36F8FBFF334
:104500004F8FFEE794F82C30002B91D12046FEF718
:1045100083FD8DE708B010BD801F002000B583B07B
:1045200001A8FFF7EFFD0199FFF742FFFFF77AFFC0
:10453000F6E7000070B50D4E0D4D761BB61006D097
:10454000002455F8043B01349847A642F9D1094E9E
:10455000094D00F0D5F8761BB61006D0002455F8AA
:10456000043B01349847A642F9D170BDDC470008EE
:10457000DC470008E4470008DC470008830730B543
:1045800048D0541E002A3FD00346CAB201E0013C85
:104590003AD303F8012B9D07F9D1032C2DD9CDB2C5
:1045A00045EA05250F2C45EA054536D9A4F1100248
:1045B00022F00F0C03F1200EE6444FEA121C03F127
:1045C000100242E9045542E9025510327245F8D111
:1045D0000CF1010214F00C0F03EB021204F00F0CAB
:1045E00013D0ACF1040323F003030433134442F863
:1045F000045B9342FBD10CF003042CB1CAB21C44FF
:1046000003F8012B9C42FBD130BD64461346002CBD
:10461000F4D1F9E703461446BFE71A46A446E0E79B
:10462000024B13B1024800F005B8704700000000CB
:1046300041460008002301461A46184600F01AB801
:1046400038B5084B084D5B1B9C1007D0043B1D443C
:10465000013C55F804399847002CF9D1BDE83840A1
:1046600000F054B8E8470008E4470008704700BF6E
:10467000704700BF2DE9F047DFF87CA00646DAF866
:10468000000098460F469146FFF7F0FF1B4B1B6852
:10469000D3F8484124B365681F2D26DC5EB96B1C36
:1046A0000235DAF80000636044F82570FFF7E0FF98
:1046B0000020BDE8F087012304EB8501C1F8889054
:1046C000D4F88821AB401A43022EC4F88821C1F8DF
:1046D0000881E4D1D4F88C211343C4F88C31DEE78F
:1046E00003F5A674C3F84841D5E7DAF80000FFF7F0
:1046F000BFFF4FF0FF30DCE740040020D847000840
:10470000F8B500BFF8BC08BC9E467047F8B500BFBE
:08471000F8BC08BC9E4670478E
:10471800FFFF0009042A000000000000000000005C
:10472800747261636B696E675461736B000000009B
:1047380064656661756C745461736B003847000872
:104748000000000000000000000000000000000061
:104758000002000018000000000000000000000037
:1047680028470008000000000000000000000000CA
:104778000000000000080000180000000000000011
:1047880000000000FFFFFE0205FA00000000000024
:1047980000000000010203040607080900000000E9
:1047A8000102030402030405060708090A0B0C0D9D
:1047B8000E0F10100102000049444C450000000093
:1047C800546D725100000000546D722053766300DE
:0447D80018000020A5
:0847DC00214600083501000828
:0447E40011010008B7
:1047E8000D020000F40100000024F40001000000A4
:1047F80010000000AAAAAAAA0000000004030020D2
:104808006C030020D403002000000000000000001A
:104818000000000000000000000000000000000090
:104828000000000000000000000000000000000080
:104838000000000000000000000000000000000070
:104848000000000000000000000000000000000060
:104858000000000000000000000000000000000050
:104868000000000000000000000000000000000040
:104878000000000000000000000000000000000030
:104888000000000000000000000000000000000020
:104898000000000000000000000000000000000010
:1048A80001000000000000000E33CDAB34126DE6AD
:1048B800ECDE05000B000000000000000000000016
:1048C80000000000000000000000000000000000E0
:1048D80000000000000000000000000000000000D0
:1048E80000000000000000000000000000000000C0
:1048F80000000000000000000000000000000000B0
:044C2800881F0020C1
:04000005080014617A
:00000001FF
